{
	"StructEnum.sol": {
		"StrucEnum": {
			"abi": [
				{
					"inputs": [],
					"stateMutability": "nonpayable",
					"type": "constructor"
				},
				{
					"inputs": [
						{
							"internalType": "uint256",
							"name": "_orderId",
							"type": "uint256"
						}
					],
					"name": "advanceOrder",
					"outputs": [],
					"stateMutability": "nonpayable",
					"type": "function"
				},
				{
					"inputs": [
						{
							"internalType": "string",
							"name": "_zipCode",
							"type": "string"
						},
						{
							"internalType": "uint256[]",
							"name": "_products",
							"type": "uint256[]"
						}
					],
					"name": "createOrder",
					"outputs": [
						{
							"internalType": "uint256",
							"name": "",
							"type": "uint256"
						}
					],
					"stateMutability": "nonpayable",
					"type": "function"
				},
				{
					"inputs": [
						{
							"internalType": "uint256",
							"name": "_orderId",
							"type": "uint256"
						}
					],
					"name": "getOrder",
					"outputs": [
						{
							"components": [
								{
									"internalType": "address",
									"name": "customer",
									"type": "address"
								},
								{
									"internalType": "string",
									"name": "zipCode",
									"type": "string"
								},
								{
									"internalType": "uint256[]",
									"name": "products",
									"type": "uint256[]"
								},
								{
									"internalType": "enum StrucEnum.Status",
									"name": "status",
									"type": "uint8"
								}
							],
							"internalType": "struct StrucEnum.Order",
							"name": "",
							"type": "tuple"
						}
					],
					"stateMutability": "view",
					"type": "function"
				},
				{
					"inputs": [
						{
							"internalType": "uint256",
							"name": "",
							"type": "uint256"
						}
					],
					"name": "orders",
					"outputs": [
						{
							"internalType": "address",
							"name": "customer",
							"type": "address"
						},
						{
							"internalType": "string",
							"name": "zipCode",
							"type": "string"
						},
						{
							"internalType": "enum StrucEnum.Status",
							"name": "status",
							"type": "uint8"
						}
					],
					"stateMutability": "view",
					"type": "function"
				},
				{
					"inputs": [],
					"name": "owner",
					"outputs": [
						{
							"internalType": "address",
							"name": "",
							"type": "address"
						}
					],
					"stateMutability": "view",
					"type": "function"
				},
				{
					"inputs": [
						{
							"internalType": "uint256",
							"name": "_orderId",
							"type": "uint256"
						},
						{
							"internalType": "string",
							"name": "_zip",
							"type": "string"
						}
					],
					"name": "updateZip",
					"outputs": [],
					"stateMutability": "nonpayable",
					"type": "function"
				}
			],
			"devdoc": {
				"kind": "dev",
				"methods": {},
				"version": 1
			},
			"evm": {
				"assembly": "    /* \"StructEnum.sol\":67:3552  contract StrucEnum... */\n  mstore(0x40, 0x80)\n    /* \"StructEnum.sol\":1199:1255  constructor()... */\n  callvalue\n  dup1\n  iszero\n  tag_1\n  jumpi\n  0x00\n  dup1\n  revert\ntag_1:\n  pop\n    /* \"StructEnum.sol\":1237:1247  msg.sender */\n  caller\n    /* \"StructEnum.sol\":1229:1234  owner */\n  0x01\n  0x00\n    /* \"StructEnum.sol\":1229:1247  owner = msg.sender */\n  0x0100\n  exp\n  dup2\n  sload\n  dup2\n  0xffffffffffffffffffffffffffffffffffffffff\n  mul\n  not\n  and\n  swap1\n  dup4\n  0xffffffffffffffffffffffffffffffffffffffff\n  and\n  mul\n  or\n  swap1\n  sstore\n  pop\n    /* \"StructEnum.sol\":67:3552  contract StrucEnum... */\n  dataSize(sub_0)\n  dup1\n  dataOffset(sub_0)\n  0x00\n  codecopy\n  0x00\n  return\nstop\n\nsub_0: assembly {\n        /* \"StructEnum.sol\":67:3552  contract StrucEnum... */\n      mstore(0x40, 0x80)\n      callvalue\n      dup1\n      iszero\n      tag_1\n      jumpi\n      0x00\n      dup1\n      revert\n    tag_1:\n      pop\n      jumpi(tag_2, lt(calldatasize, 0x04))\n      shr(0xe0, calldataload(0x00))\n      dup1\n      0x577dc0a0\n      eq\n      tag_3\n      jumpi\n      dup1\n      0x6d9a65d8\n      eq\n      tag_4\n      jumpi\n      dup1\n      0x8da5cb5b\n      eq\n      tag_5\n      jumpi\n      dup1\n      0xa85c38ef\n      eq\n      tag_6\n      jumpi\n      dup1\n      0xafe13a62\n      eq\n      tag_7\n      jumpi\n      dup1\n      0xd09ef241\n      eq\n      tag_8\n      jumpi\n    tag_2:\n      0x00\n      dup1\n      revert\n        /* \"StructEnum.sol\":3237:3547  function updateZip(uint256 _orderId, string memory _zip) external {... */\n    tag_3:\n      tag_9\n      0x04\n      dup1\n      calldatasize\n      sub\n      dup2\n      add\n      swap1\n      tag_10\n      swap2\n      swap1\n      tag_11\n      jump\t// in\n    tag_10:\n      tag_12\n      jump\t// in\n    tag_9:\n      stop\n        /* \"StructEnum.sol\":1332:2257  function createOrder(string memory _zipCode, uint256[] memory _products) public returns (uint256)... */\n    tag_4:\n      tag_13\n      0x04\n      dup1\n      calldatasize\n      sub\n      dup2\n      add\n      swap1\n      tag_14\n      swap2\n      swap1\n      tag_15\n      jump\t// in\n    tag_14:\n      tag_16\n      jump\t// in\n    tag_13:\n      mload(0x40)\n      tag_17\n      swap2\n      swap1\n      tag_18\n      jump\t// in\n    tag_17:\n      mload(0x40)\n      dup1\n      swap2\n      sub\n      swap1\n      return\n        /* \"StructEnum.sol\":853:873  address public owner */\n    tag_5:\n      tag_19\n      tag_20\n      jump\t// in\n    tag_19:\n      mload(0x40)\n      tag_21\n      swap2\n      swap1\n      tag_22\n      jump\t// in\n    tag_21:\n      mload(0x40)\n      dup1\n      swap2\n      sub\n      swap1\n      return\n        /* \"StructEnum.sol\":761:782  Order[] public orders */\n    tag_6:\n      tag_23\n      0x04\n      dup1\n      calldatasize\n      sub\n      dup2\n      add\n      swap1\n      tag_24\n      swap2\n      swap1\n      tag_25\n      jump\t// in\n    tag_24:\n      tag_26\n      jump\t// in\n    tag_23:\n      mload(0x40)\n      tag_27\n      swap4\n      swap3\n      swap2\n      swap1\n      tag_28\n      jump\t// in\n    tag_27:\n      mload(0x40)\n      dup1\n      swap2\n      sub\n      swap1\n      return\n        /* \"StructEnum.sol\":2310:2930  function advanceOrder(uint256 _orderId) external {... */\n    tag_7:\n      tag_29\n      0x04\n      dup1\n      calldatasize\n      sub\n      dup2\n      add\n      swap1\n      tag_30\n      swap2\n      swap1\n      tag_25\n      jump\t// in\n    tag_30:\n      tag_31\n      jump\t// in\n    tag_29:\n      stop\n        /* \"StructEnum.sol\":2938:3229  function getOrder(uint256 _orderId) external view returns (Order memory) {... */\n    tag_8:\n      tag_32\n      0x04\n      dup1\n      calldatasize\n      sub\n      dup2\n      add\n      swap1\n      tag_33\n      swap2\n      swap1\n      tag_25\n      jump\t// in\n    tag_33:\n      tag_34\n      jump\t// in\n    tag_32:\n      mload(0x40)\n      tag_35\n      swap2\n      swap1\n      tag_36\n      jump\t// in\n    tag_35:\n      mload(0x40)\n      dup1\n      swap2\n      sub\n      swap1\n      return\n        /* \"StructEnum.sol\":3237:3547  function updateZip(uint256 _orderId, string memory _zip) external {... */\n    tag_12:\n        /* \"StructEnum.sol\":3333:3339  orders */\n      0x00\n        /* \"StructEnum.sol\":3333:3346  orders.length */\n      dup1\n      sload\n      swap1\n      pop\n        /* \"StructEnum.sol\":3322:3330  _orderId */\n      dup3\n        /* \"StructEnum.sol\":3322:3346  _orderId < orders.length */\n      lt\n        /* \"StructEnum.sol\":3314:3372  require(_orderId < orders.length, \"Not a valid order id.\") */\n      tag_38\n      jumpi\n      mload(0x40)\n      0x08c379a000000000000000000000000000000000000000000000000000000000\n      dup2\n      mstore\n      0x04\n      add\n      tag_39\n      swap1\n      tag_40\n      jump\t// in\n    tag_39:\n      mload(0x40)\n      dup1\n      swap2\n      sub\n      swap1\n      revert\n    tag_38:\n        /* \"StructEnum.sol\":3383:3402  Order storage order */\n      0x00\n        /* \"StructEnum.sol\":3405:3411  orders */\n      dup1\n        /* \"StructEnum.sol\":3412:3420  _orderId */\n      dup4\n        /* \"StructEnum.sol\":3405:3421  orders[_orderId] */\n      dup2\n      sload\n      dup2\n      lt\n      tag_41\n      jumpi\n      tag_42\n      tag_43\n      jump\t// in\n    tag_42:\n    tag_41:\n      swap1\n      0x00\n      mstore\n      keccak256(0x00, 0x20)\n      swap1\n      0x04\n      mul\n      add\n        /* \"StructEnum.sol\":3383:3421  Order storage order = orders[_orderId] */\n      swap1\n      pop\n        /* \"StructEnum.sol\":3458:3468  msg.sender */\n      caller\n        /* \"StructEnum.sol\":3440:3468  order.customer == msg.sender */\n      0xffffffffffffffffffffffffffffffffffffffff\n      and\n        /* \"StructEnum.sol\":3440:3445  order */\n      dup2\n        /* \"StructEnum.sol\":3440:3454  order.customer */\n      0x00\n      add\n      0x00\n      swap1\n      sload\n      swap1\n      0x0100\n      exp\n      swap1\n      div\n      0xffffffffffffffffffffffffffffffffffffffff\n      and\n        /* \"StructEnum.sol\":3440:3468  order.customer == msg.sender */\n      0xffffffffffffffffffffffffffffffffffffffff\n      and\n      eq\n        /* \"StructEnum.sol\":3432:3508  require(order.customer == msg.sender, \"You are not the owner of the order.\") */\n      tag_45\n      jumpi\n      mload(0x40)\n      0x08c379a000000000000000000000000000000000000000000000000000000000\n      dup2\n      mstore\n      0x04\n      add\n      tag_46\n      swap1\n      tag_47\n      jump\t// in\n    tag_46:\n      mload(0x40)\n      dup1\n      swap2\n      sub\n      swap1\n      revert\n    tag_45:\n        /* \"StructEnum.sol\":3535:3539  _zip */\n      dup2\n        /* \"StructEnum.sol\":3519:3524  order */\n      dup2\n        /* \"StructEnum.sol\":3519:3532  order.zipCode */\n      0x01\n      add\n        /* \"StructEnum.sol\":3519:3539  order.zipCode = _zip */\n      swap1\n      dup2\n      tag_48\n      swap2\n      swap1\n      tag_49\n      jump\t// in\n    tag_48:\n      pop\n        /* \"StructEnum.sol\":3303:3547  {... */\n      pop\n        /* \"StructEnum.sol\":3237:3547  function updateZip(uint256 _orderId, string memory _zip) external {... */\n      pop\n      pop\n      jump\t// out\n        /* \"StructEnum.sol\":1332:2257  function createOrder(string memory _zipCode, uint256[] memory _products) public returns (uint256)... */\n    tag_16:\n        /* \"StructEnum.sol\":1421:1428  uint256 */\n      0x00\n        /* \"StructEnum.sol\":1473:1474  0 */\n      dup1\n        /* \"StructEnum.sol\":1454:1463  _products */\n      dup3\n        /* \"StructEnum.sol\":1454:1470  _products.length */\n      mload\n        /* \"StructEnum.sol\":1454:1474  _products.length > 0 */\n      gt\n        /* \"StructEnum.sol\":1446:1491  require(_products.length > 0, \"No products.\") */\n      tag_51\n      jumpi\n      mload(0x40)\n      0x08c379a000000000000000000000000000000000000000000000000000000000\n      dup2\n      mstore\n      0x04\n      add\n      tag_52\n      swap1\n      tag_53\n      jump\t// in\n    tag_52:\n      mload(0x40)\n      dup1\n      swap2\n      sub\n      swap1\n      revert\n    tag_51:\n        /* \"StructEnum.sol\":1826:1832  orders */\n      0x00\n        /* \"StructEnum.sol\":1852:2026  Order({... */\n      mload(0x40)\n      dup1\n      0x80\n      add\n      0x40\n      mstore\n      dup1\n        /* \"StructEnum.sol\":1887:1897  msg.sender */\n      caller\n        /* \"StructEnum.sol\":1852:2026  Order({... */\n      0xffffffffffffffffffffffffffffffffffffffff\n      and\n      dup2\n      mstore\n      0x20\n      add\n        /* \"StructEnum.sol\":1925:1933  _zipCode */\n      dup6\n        /* \"StructEnum.sol\":1852:2026  Order({... */\n      dup2\n      mstore\n      0x20\n      add\n        /* \"StructEnum.sol\":1962:1971  _products */\n      dup5\n        /* \"StructEnum.sol\":1852:2026  Order({... */\n      dup2\n      mstore\n      0x20\n      add\n        /* \"StructEnum.sol\":1998:2010  Status.Taken */\n      0x00\n        /* \"StructEnum.sol\":1852:2026  Order({... */\n      0x03\n      dup2\n      gt\n      iszero\n      tag_54\n      jumpi\n      tag_55\n      tag_56\n      jump\t// in\n    tag_55:\n    tag_54:\n      dup2\n      mstore\n      pop\n        /* \"StructEnum.sol\":1826:2037  orders.push(... */\n      swap1\n      dup1\n      0x01\n      dup2\n      sload\n      add\n      dup1\n      dup3\n      sstore\n      dup1\n      swap2\n      pop\n      pop\n      0x01\n      swap1\n      sub\n      swap1\n      0x00\n      mstore\n      keccak256(0x00, 0x20)\n      swap1\n      0x04\n      mul\n      add\n      0x00\n      swap1\n      swap2\n      swap1\n      swap2\n      swap1\n      swap2\n      pop\n      0x00\n      dup3\n      add\n      mload\n      dup2\n      0x00\n      add\n      exp(0x0100, 0x00)\n      dup2\n      sload\n      dup2\n      0xffffffffffffffffffffffffffffffffffffffff\n      mul\n      not\n      and\n      swap1\n      dup4\n      0xffffffffffffffffffffffffffffffffffffffff\n      and\n      mul\n      or\n      swap1\n      sstore\n      pop\n      0x20\n      dup3\n      add\n      mload\n      dup2\n      0x01\n      add\n      swap1\n      dup2\n      tag_58\n      swap2\n      swap1\n      tag_49\n      jump\t// in\n    tag_58:\n      pop\n      0x40\n      dup3\n      add\n      mload\n      dup2\n      0x02\n      add\n      swap1\n      dup1\n      mload\n      swap1\n      0x20\n      add\n      swap1\n      tag_59\n      swap3\n      swap2\n      swap1\n      tag_60\n      jump\t// in\n    tag_59:\n      pop\n      0x60\n      dup3\n      add\n      mload\n      dup2\n      0x03\n      add\n      exp(0x0100, 0x00)\n      dup2\n      sload\n      dup2\n      0xff\n      mul\n      not\n      and\n      swap1\n      dup4\n      0x03\n      dup2\n      gt\n      iszero\n      tag_61\n      jumpi\n      tag_62\n      tag_56\n      jump\t// in\n    tag_62:\n    tag_61:\n      mul\n      or\n      swap1\n      sstore\n      pop\n      pop\n      pop\n        /* \"StructEnum.sol\":2072:2073  1 */\n      0x01\n        /* \"StructEnum.sol\":2057:2063  orders */\n      0x00\n        /* \"StructEnum.sol\":2057:2070  orders.length */\n      dup1\n      sload\n      swap1\n      pop\n        /* \"StructEnum.sol\":2057:2073  orders.length -1 */\n      tag_63\n      swap2\n      swap1\n      tag_64\n      jump\t// in\n    tag_63:\n        /* \"StructEnum.sol\":2050:2073  return orders.length -1 */\n      swap1\n      pop\n        /* \"StructEnum.sol\":1332:2257  function createOrder(string memory _zipCode, uint256[] memory _products) public returns (uint256)... */\n      swap3\n      swap2\n      pop\n      pop\n      jump\t// out\n        /* \"StructEnum.sol\":853:873  address public owner */\n    tag_20:\n      0x01\n      0x00\n      swap1\n      sload\n      swap1\n      0x0100\n      exp\n      swap1\n      div\n      0xffffffffffffffffffffffffffffffffffffffff\n      and\n      dup2\n      jump\t// out\n        /* \"StructEnum.sol\":761:782  Order[] public orders */\n    tag_26:\n      0x00\n      dup2\n      dup2\n      sload\n      dup2\n      lt\n      tag_65\n      jumpi\n      0x00\n      dup1\n      revert\n    tag_65:\n      swap1\n      0x00\n      mstore\n      keccak256(0x00, 0x20)\n      swap1\n      0x04\n      mul\n      add\n      0x00\n      swap2\n      pop\n      swap1\n      pop\n      dup1\n      0x00\n      add\n      0x00\n      swap1\n      sload\n      swap1\n      0x0100\n      exp\n      swap1\n      div\n      0xffffffffffffffffffffffffffffffffffffffff\n      and\n      swap1\n      dup1\n      0x01\n      add\n      dup1\n      sload\n      tag_67\n      swap1\n      tag_68\n      jump\t// in\n    tag_67:\n      dup1\n      0x1f\n      add\n      0x20\n      dup1\n      swap2\n      div\n      mul\n      0x20\n      add\n      mload(0x40)\n      swap1\n      dup2\n      add\n      0x40\n      mstore\n      dup1\n      swap3\n      swap2\n      swap1\n      dup2\n      dup2\n      mstore\n      0x20\n      add\n      dup3\n      dup1\n      sload\n      tag_69\n      swap1\n      tag_68\n      jump\t// in\n    tag_69:\n      dup1\n      iszero\n      tag_70\n      jumpi\n      dup1\n      0x1f\n      lt\n      tag_71\n      jumpi\n      0x0100\n      dup1\n      dup4\n      sload\n      div\n      mul\n      dup4\n      mstore\n      swap2\n      0x20\n      add\n      swap2\n      jump(tag_70)\n    tag_71:\n      dup3\n      add\n      swap2\n      swap1\n      0x00\n      mstore\n      keccak256(0x00, 0x20)\n      swap1\n    tag_72:\n      dup2\n      sload\n      dup2\n      mstore\n      swap1\n      0x01\n      add\n      swap1\n      0x20\n      add\n      dup1\n      dup4\n      gt\n      tag_72\n      jumpi\n      dup3\n      swap1\n      sub\n      0x1f\n      and\n      dup3\n      add\n      swap2\n    tag_70:\n      pop\n      pop\n      pop\n      pop\n      pop\n      swap1\n      dup1\n      0x03\n      add\n      0x00\n      swap1\n      sload\n      swap1\n      0x0100\n      exp\n      swap1\n      div\n      0xff\n      and\n      swap1\n      pop\n      dup4\n      jump\t// out\n        /* \"StructEnum.sol\":2310:2930  function advanceOrder(uint256 _orderId) external {... */\n    tag_31:\n        /* \"StructEnum.sol\":2387:2397  msg.sender */\n      caller\n        /* \"StructEnum.sol\":2378:2397  owner == msg.sender */\n      0xffffffffffffffffffffffffffffffffffffffff\n      and\n        /* \"StructEnum.sol\":2378:2383  owner */\n      0x01\n      0x00\n      swap1\n      sload\n      swap1\n      0x0100\n      exp\n      swap1\n      div\n      0xffffffffffffffffffffffffffffffffffffffff\n      and\n        /* \"StructEnum.sol\":2378:2397  owner == msg.sender */\n      0xffffffffffffffffffffffffffffffffffffffff\n      and\n      eq\n        /* \"StructEnum.sol\":2370:2425  require(owner == msg.sender, \"You are not authorized.\") */\n      tag_74\n      jumpi\n      mload(0x40)\n      0x08c379a000000000000000000000000000000000000000000000000000000000\n      dup2\n      mstore\n      0x04\n      add\n      tag_75\n      swap1\n      tag_76\n      jump\t// in\n    tag_75:\n      mload(0x40)\n      dup1\n      swap2\n      sub\n      swap1\n      revert\n    tag_74:\n        /* \"StructEnum.sol\":2455:2461  orders */\n      0x00\n        /* \"StructEnum.sol\":2455:2468  orders.length */\n      dup1\n      sload\n      swap1\n      pop\n        /* \"StructEnum.sol\":2444:2452  _orderId */\n      dup2\n        /* \"StructEnum.sol\":2444:2468  _orderId < orders.length */\n      lt\n        /* \"StructEnum.sol\":2436:2494  require(_orderId < orders.length, \"Not a valid order id.\") */\n      tag_77\n      jumpi\n      mload(0x40)\n      0x08c379a000000000000000000000000000000000000000000000000000000000\n      dup2\n      mstore\n      0x04\n      add\n      tag_78\n      swap1\n      tag_40\n      jump\t// in\n    tag_78:\n      mload(0x40)\n      dup1\n      swap2\n      sub\n      swap1\n      revert\n    tag_77:\n        /* \"StructEnum.sol\":2507:2526  Order storage order */\n      0x00\n        /* \"StructEnum.sol\":2529:2535  orders */\n      dup1\n        /* \"StructEnum.sol\":2536:2544  _orderId */\n      dup3\n        /* \"StructEnum.sol\":2529:2545  orders[_orderId] */\n      dup2\n      sload\n      dup2\n      lt\n      tag_79\n      jumpi\n      tag_80\n      tag_43\n      jump\t// in\n    tag_80:\n    tag_79:\n      swap1\n      0x00\n      mstore\n      keccak256(0x00, 0x20)\n      swap1\n      0x04\n      mul\n      add\n        /* \"StructEnum.sol\":2507:2545  Order storage order = orders[_orderId] */\n      swap1\n      pop\n        /* \"StructEnum.sol\":2580:2594  Status.Shipped */\n      0x03\n        /* \"StructEnum.sol\":2564:2594  order.status != Status.Shipped */\n      dup1\n      dup2\n      gt\n      iszero\n      tag_82\n      jumpi\n      tag_83\n      tag_56\n      jump\t// in\n    tag_83:\n    tag_82:\n        /* \"StructEnum.sol\":2564:2569  order */\n      dup2\n        /* \"StructEnum.sol\":2564:2576  order.status */\n      0x03\n      add\n      0x00\n      swap1\n      sload\n      swap1\n      0x0100\n      exp\n      swap1\n      div\n      0xff\n      and\n        /* \"StructEnum.sol\":2564:2594  order.status != Status.Shipped */\n      0x03\n      dup2\n      gt\n      iszero\n      tag_84\n      jumpi\n      tag_85\n      tag_56\n      jump\t// in\n    tag_85:\n    tag_84:\n      sub\n        /* \"StructEnum.sol\":2556:2624  require(order.status != Status.Shipped, \"Order is already shipped.\") */\n      tag_86\n      jumpi\n      mload(0x40)\n      0x08c379a000000000000000000000000000000000000000000000000000000000\n      dup2\n      mstore\n      0x04\n      add\n      tag_87\n      swap1\n      tag_88\n      jump\t// in\n    tag_87:\n      mload(0x40)\n      dup1\n      swap2\n      sub\n      swap1\n      revert\n    tag_86:\n        /* \"StructEnum.sol\":2657:2669  Status.Taken */\n      0x00\n        /* \"StructEnum.sol\":2641:2669  order.status == Status.Taken */\n      0x03\n      dup2\n      gt\n      iszero\n      tag_89\n      jumpi\n      tag_90\n      tag_56\n      jump\t// in\n    tag_90:\n    tag_89:\n        /* \"StructEnum.sol\":2641:2646  order */\n      dup2\n        /* \"StructEnum.sol\":2641:2653  order.status */\n      0x03\n      add\n      0x00\n      swap1\n      sload\n      swap1\n      0x0100\n      exp\n      swap1\n      div\n      0xff\n      and\n        /* \"StructEnum.sol\":2641:2669  order.status == Status.Taken */\n      0x03\n      dup2\n      gt\n      iszero\n      tag_91\n      jumpi\n      tag_92\n      tag_56\n      jump\t// in\n    tag_92:\n    tag_91:\n      sub\n        /* \"StructEnum.sol\":2637:2923  if (order.status == Status.Taken) {... */\n      tag_93\n      jumpi\n        /* \"StructEnum.sol\":2701:2717  Status.Preparing */\n      0x01\n        /* \"StructEnum.sol\":2686:2691  order */\n      dup2\n        /* \"StructEnum.sol\":2686:2698  order.status */\n      0x03\n      add\n      0x00\n        /* \"StructEnum.sol\":2686:2717  order.status = Status.Preparing */\n      0x0100\n      exp\n      dup2\n      sload\n      dup2\n      0xff\n      mul\n      not\n      and\n      swap1\n      dup4\n      0x03\n      dup2\n      gt\n      iszero\n      tag_94\n      jumpi\n      tag_95\n      tag_56\n      jump\t// in\n    tag_95:\n    tag_94:\n      mul\n      or\n      swap1\n      sstore\n      pop\n        /* \"StructEnum.sol\":2637:2923  if (order.status == Status.Taken) {... */\n      jump(tag_96)\n    tag_93:\n        /* \"StructEnum.sol\":2755:2771  Status.Preparing */\n      0x01\n        /* \"StructEnum.sol\":2739:2771  order.status == Status.Preparing */\n      0x03\n      dup2\n      gt\n      iszero\n      tag_97\n      jumpi\n      tag_98\n      tag_56\n      jump\t// in\n    tag_98:\n    tag_97:\n        /* \"StructEnum.sol\":2739:2744  order */\n      dup2\n        /* \"StructEnum.sol\":2739:2751  order.status */\n      0x03\n      add\n      0x00\n      swap1\n      sload\n      swap1\n      0x0100\n      exp\n      swap1\n      div\n      0xff\n      and\n        /* \"StructEnum.sol\":2739:2771  order.status == Status.Preparing */\n      0x03\n      dup2\n      gt\n      iszero\n      tag_99\n      jumpi\n      tag_100\n      tag_56\n      jump\t// in\n    tag_100:\n    tag_99:\n      sub\n        /* \"StructEnum.sol\":2735:2923  if (order.status == Status.Preparing) {... */\n      tag_101\n      jumpi\n        /* \"StructEnum.sol\":2803:2815  Status.Boxed */\n      0x02\n        /* \"StructEnum.sol\":2788:2793  order */\n      dup2\n        /* \"StructEnum.sol\":2788:2800  order.status */\n      0x03\n      add\n      0x00\n        /* \"StructEnum.sol\":2788:2815  order.status = Status.Boxed */\n      0x0100\n      exp\n      dup2\n      sload\n      dup2\n      0xff\n      mul\n      not\n      and\n      swap1\n      dup4\n      0x03\n      dup2\n      gt\n      iszero\n      tag_102\n      jumpi\n      tag_103\n      tag_56\n      jump\t// in\n    tag_103:\n    tag_102:\n      mul\n      or\n      swap1\n      sstore\n      pop\n        /* \"StructEnum.sol\":2735:2923  if (order.status == Status.Preparing) {... */\n      jump(tag_104)\n    tag_101:\n        /* \"StructEnum.sol\":2853:2865  Status.Boxed */\n      0x02\n        /* \"StructEnum.sol\":2837:2865  order.status == Status.Boxed */\n      0x03\n      dup2\n      gt\n      iszero\n      tag_105\n      jumpi\n      tag_106\n      tag_56\n      jump\t// in\n    tag_106:\n    tag_105:\n        /* \"StructEnum.sol\":2837:2842  order */\n      dup2\n        /* \"StructEnum.sol\":2837:2849  order.status */\n      0x03\n      add\n      0x00\n      swap1\n      sload\n      swap1\n      0x0100\n      exp\n      swap1\n      div\n      0xff\n      and\n        /* \"StructEnum.sol\":2837:2865  order.status == Status.Boxed */\n      0x03\n      dup2\n      gt\n      iszero\n      tag_107\n      jumpi\n      tag_108\n      tag_56\n      jump\t// in\n    tag_108:\n    tag_107:\n      sub\n        /* \"StructEnum.sol\":2833:2923  if (order.status == Status.Boxed) {... */\n      tag_109\n      jumpi\n        /* \"StructEnum.sol\":2897:2911  Status.Shipped */\n      0x03\n        /* \"StructEnum.sol\":2882:2887  order */\n      dup2\n        /* \"StructEnum.sol\":2882:2894  order.status */\n      0x03\n      add\n      0x00\n        /* \"StructEnum.sol\":2882:2911  order.status = Status.Shipped */\n      0x0100\n      exp\n      dup2\n      sload\n      dup2\n      0xff\n      mul\n      not\n      and\n      swap1\n      dup4\n      0x03\n      dup2\n      gt\n      iszero\n      tag_110\n      jumpi\n      tag_111\n      tag_56\n      jump\t// in\n    tag_111:\n    tag_110:\n      mul\n      or\n      swap1\n      sstore\n      pop\n        /* \"StructEnum.sol\":2833:2923  if (order.status == Status.Boxed) {... */\n    tag_109:\n        /* \"StructEnum.sol\":2735:2923  if (order.status == Status.Preparing) {... */\n    tag_104:\n        /* \"StructEnum.sol\":2637:2923  if (order.status == Status.Taken) {... */\n    tag_96:\n        /* \"StructEnum.sol\":2359:2930  {... */\n      pop\n        /* \"StructEnum.sol\":2310:2930  function advanceOrder(uint256 _orderId) external {... */\n      pop\n      jump\t// out\n        /* \"StructEnum.sol\":2938:3229  function getOrder(uint256 _orderId) external view returns (Order memory) {... */\n    tag_34:\n        /* \"StructEnum.sol\":2997:3009  Order memory */\n      tag_112\n      tag_113\n      jump\t// in\n    tag_112:\n        /* \"StructEnum.sol\":3041:3047  orders */\n      0x00\n        /* \"StructEnum.sol\":3041:3054  orders.length */\n      dup1\n      sload\n      swap1\n      pop\n        /* \"StructEnum.sol\":3030:3038  _orderId */\n      dup3\n        /* \"StructEnum.sol\":3030:3054  _orderId < orders.length */\n      lt\n        /* \"StructEnum.sol\":3022:3080  require(_orderId < orders.length, \"Not a valid order id.\") */\n      tag_115\n      jumpi\n      mload(0x40)\n      0x08c379a000000000000000000000000000000000000000000000000000000000\n      dup2\n      mstore\n      0x04\n      add\n      tag_116\n      swap1\n      tag_40\n      jump\t// in\n    tag_116:\n      mload(0x40)\n      dup1\n      swap2\n      sub\n      swap1\n      revert\n    tag_115:\n        /* \"StructEnum.sol\":3205:3211  orders */\n      0x00\n        /* \"StructEnum.sol\":3212:3220  _orderId */\n      dup3\n        /* \"StructEnum.sol\":3205:3221  orders[_orderId] */\n      dup2\n      sload\n      dup2\n      lt\n      tag_117\n      jumpi\n      tag_118\n      tag_43\n      jump\t// in\n    tag_118:\n    tag_117:\n      swap1\n      0x00\n      mstore\n      keccak256(0x00, 0x20)\n      swap1\n      0x04\n      mul\n      add\n        /* \"StructEnum.sol\":3198:3221  return orders[_orderId] */\n      mload(0x40)\n      dup1\n      0x80\n      add\n      0x40\n      mstore\n      swap1\n      dup2\n      0x00\n      dup3\n      add\n      0x00\n      swap1\n      sload\n      swap1\n      0x0100\n      exp\n      swap1\n      div\n      0xffffffffffffffffffffffffffffffffffffffff\n      and\n      0xffffffffffffffffffffffffffffffffffffffff\n      and\n      0xffffffffffffffffffffffffffffffffffffffff\n      and\n      dup2\n      mstore\n      0x20\n      add\n      0x01\n      dup3\n      add\n      dup1\n      sload\n      tag_120\n      swap1\n      tag_68\n      jump\t// in\n    tag_120:\n      dup1\n      0x1f\n      add\n      0x20\n      dup1\n      swap2\n      div\n      mul\n      0x20\n      add\n      mload(0x40)\n      swap1\n      dup2\n      add\n      0x40\n      mstore\n      dup1\n      swap3\n      swap2\n      swap1\n      dup2\n      dup2\n      mstore\n      0x20\n      add\n      dup3\n      dup1\n      sload\n      tag_121\n      swap1\n      tag_68\n      jump\t// in\n    tag_121:\n      dup1\n      iszero\n      tag_122\n      jumpi\n      dup1\n      0x1f\n      lt\n      tag_123\n      jumpi\n      0x0100\n      dup1\n      dup4\n      sload\n      div\n      mul\n      dup4\n      mstore\n      swap2\n      0x20\n      add\n      swap2\n      jump(tag_122)\n    tag_123:\n      dup3\n      add\n      swap2\n      swap1\n      0x00\n      mstore\n      keccak256(0x00, 0x20)\n      swap1\n    tag_124:\n      dup2\n      sload\n      dup2\n      mstore\n      swap1\n      0x01\n      add\n      swap1\n      0x20\n      add\n      dup1\n      dup4\n      gt\n      tag_124\n      jumpi\n      dup3\n      swap1\n      sub\n      0x1f\n      and\n      dup3\n      add\n      swap2\n    tag_122:\n      pop\n      pop\n      pop\n      pop\n      pop\n      dup2\n      mstore\n      0x20\n      add\n      0x02\n      dup3\n      add\n      dup1\n      sload\n      dup1\n      0x20\n      mul\n      0x20\n      add\n      mload(0x40)\n      swap1\n      dup2\n      add\n      0x40\n      mstore\n      dup1\n      swap3\n      swap2\n      swap1\n      dup2\n      dup2\n      mstore\n      0x20\n      add\n      dup3\n      dup1\n      sload\n      dup1\n      iszero\n      tag_125\n      jumpi\n      0x20\n      mul\n      dup3\n      add\n      swap2\n      swap1\n      0x00\n      mstore\n      keccak256(0x00, 0x20)\n      swap1\n    tag_126:\n      dup2\n      sload\n      dup2\n      mstore\n      0x20\n      add\n      swap1\n      0x01\n      add\n      swap1\n      dup1\n      dup4\n      gt\n      tag_126\n      jumpi\n    tag_125:\n      pop\n      pop\n      pop\n      pop\n      pop\n      dup2\n      mstore\n      0x20\n      add\n      0x03\n      dup3\n      add\n      0x00\n      swap1\n      sload\n      swap1\n      0x0100\n      exp\n      swap1\n      div\n      0xff\n      and\n      0x03\n      dup2\n      gt\n      iszero\n      tag_127\n      jumpi\n      tag_128\n      tag_56\n      jump\t// in\n    tag_128:\n    tag_127:\n      0x03\n      dup2\n      gt\n      iszero\n      tag_129\n      jumpi\n      tag_130\n      tag_56\n      jump\t// in\n    tag_130:\n    tag_129:\n      dup2\n      mstore\n      pop\n      pop\n      swap1\n      pop\n        /* \"StructEnum.sol\":2938:3229  function getOrder(uint256 _orderId) external view returns (Order memory) {... */\n      swap2\n      swap1\n      pop\n      jump\t// out\n    tag_60:\n      dup3\n      dup1\n      sload\n      dup3\n      dup3\n      sstore\n      swap1\n      0x00\n      mstore\n      keccak256(0x00, 0x20)\n      swap1\n      dup2\n      add\n      swap3\n      dup3\n      iszero\n      tag_131\n      jumpi\n      swap2\n      0x20\n      mul\n      dup3\n      add\n    tag_132:\n      dup3\n      dup2\n      gt\n      iszero\n      tag_133\n      jumpi\n      dup3\n      mload\n      dup3\n      sstore\n      swap2\n      0x20\n      add\n      swap2\n      swap1\n      0x01\n      add\n      swap1\n      jump(tag_132)\n    tag_133:\n    tag_131:\n      pop\n      swap1\n      pop\n      tag_134\n      swap2\n      swap1\n      tag_135\n      jump\t// in\n    tag_134:\n      pop\n      swap1\n      jump\t// out\n    tag_113:\n      mload(0x40)\n      dup1\n      0x80\n      add\n      0x40\n      mstore\n      dup1\n      and(0xffffffffffffffffffffffffffffffffffffffff, 0x00)\n      dup2\n      mstore\n      0x20\n      add\n      0x60\n      dup2\n      mstore\n      0x20\n      add\n      0x60\n      dup2\n      mstore\n      0x20\n      add\n      0x00\n      0x03\n      dup2\n      gt\n      iszero\n      tag_136\n      jumpi\n      tag_137\n      tag_56\n      jump\t// in\n    tag_137:\n    tag_136:\n      dup2\n      mstore\n      pop\n      swap1\n      jump\t// out\n    tag_135:\n    tag_138:\n      dup1\n      dup3\n      gt\n      iszero\n      tag_139\n      jumpi\n      0x00\n      dup2\n      0x00\n      swap1\n      sstore\n      pop\n      0x01\n      add\n      jump(tag_138)\n    tag_139:\n      pop\n      swap1\n      jump\t// out\n        /* \"#utility.yul\":7:82   */\n    tag_140:\n        /* \"#utility.yul\":40:46   */\n      0x00\n        /* \"#utility.yul\":73:75   */\n      0x40\n        /* \"#utility.yul\":67:76   */\n      mload\n        /* \"#utility.yul\":57:76   */\n      swap1\n      pop\n        /* \"#utility.yul\":7:82   */\n      swap1\n      jump\t// out\n        /* \"#utility.yul\":88:205   */\n    tag_141:\n        /* \"#utility.yul\":197:198   */\n      0x00\n        /* \"#utility.yul\":194:195   */\n      dup1\n        /* \"#utility.yul\":187:199   */\n      revert\n        /* \"#utility.yul\":211:328   */\n    tag_142:\n        /* \"#utility.yul\":320:321   */\n      0x00\n        /* \"#utility.yul\":317:318   */\n      dup1\n        /* \"#utility.yul\":310:322   */\n      revert\n        /* \"#utility.yul\":334:411   */\n    tag_143:\n        /* \"#utility.yul\":371:378   */\n      0x00\n        /* \"#utility.yul\":400:405   */\n      dup2\n        /* \"#utility.yul\":389:405   */\n      swap1\n      pop\n        /* \"#utility.yul\":334:411   */\n      swap2\n      swap1\n      pop\n      jump\t// out\n        /* \"#utility.yul\":417:539   */\n    tag_144:\n        /* \"#utility.yul\":490:514   */\n      tag_217\n        /* \"#utility.yul\":508:513   */\n      dup2\n        /* \"#utility.yul\":490:514   */\n      tag_143\n      jump\t// in\n    tag_217:\n        /* \"#utility.yul\":483:488   */\n      dup2\n        /* \"#utility.yul\":480:515   */\n      eq\n        /* \"#utility.yul\":470:533   */\n      tag_218\n      jumpi\n        /* \"#utility.yul\":529:530   */\n      0x00\n        /* \"#utility.yul\":526:527   */\n      dup1\n        /* \"#utility.yul\":519:531   */\n      revert\n        /* \"#utility.yul\":470:533   */\n    tag_218:\n        /* \"#utility.yul\":417:539   */\n      pop\n      jump\t// out\n        /* \"#utility.yul\":545:684   */\n    tag_145:\n        /* \"#utility.yul\":591:596   */\n      0x00\n        /* \"#utility.yul\":629:635   */\n      dup2\n        /* \"#utility.yul\":616:636   */\n      calldataload\n        /* \"#utility.yul\":607:636   */\n      swap1\n      pop\n        /* \"#utility.yul\":645:678   */\n      tag_220\n        /* \"#utility.yul\":672:677   */\n      dup2\n        /* \"#utility.yul\":645:678   */\n      tag_144\n      jump\t// in\n    tag_220:\n        /* \"#utility.yul\":545:684   */\n      swap3\n      swap2\n      pop\n      pop\n      jump\t// out\n        /* \"#utility.yul\":690:807   */\n    tag_146:\n        /* \"#utility.yul\":799:800   */\n      0x00\n        /* \"#utility.yul\":796:797   */\n      dup1\n        /* \"#utility.yul\":789:801   */\n      revert\n        /* \"#utility.yul\":813:930   */\n    tag_147:\n        /* \"#utility.yul\":922:923   */\n      0x00\n        /* \"#utility.yul\":919:920   */\n      dup1\n        /* \"#utility.yul\":912:924   */\n      revert\n        /* \"#utility.yul\":936:1038   */\n    tag_148:\n        /* \"#utility.yul\":977:983   */\n      0x00\n        /* \"#utility.yul\":1028:1030   */\n      0x1f\n        /* \"#utility.yul\":1024:1031   */\n      not\n        /* \"#utility.yul\":1019:1021   */\n      0x1f\n        /* \"#utility.yul\":1012:1017   */\n      dup4\n        /* \"#utility.yul\":1008:1022   */\n      add\n        /* \"#utility.yul\":1004:1032   */\n      and\n        /* \"#utility.yul\":994:1032   */\n      swap1\n      pop\n        /* \"#utility.yul\":936:1038   */\n      swap2\n      swap1\n      pop\n      jump\t// out\n        /* \"#utility.yul\":1044:1224   */\n    tag_149:\n        /* \"#utility.yul\":1092:1169   */\n      0x4e487b7100000000000000000000000000000000000000000000000000000000\n        /* \"#utility.yul\":1089:1090   */\n      0x00\n        /* \"#utility.yul\":1082:1170   */\n      mstore\n        /* \"#utility.yul\":1189:1193   */\n      0x41\n        /* \"#utility.yul\":1186:1187   */\n      0x04\n        /* \"#utility.yul\":1179:1194   */\n      mstore\n        /* \"#utility.yul\":1213:1217   */\n      0x24\n        /* \"#utility.yul\":1210:1211   */\n      0x00\n        /* \"#utility.yul\":1203:1218   */\n      revert\n        /* \"#utility.yul\":1230:1511   */\n    tag_150:\n        /* \"#utility.yul\":1313:1340   */\n      tag_226\n        /* \"#utility.yul\":1335:1339   */\n      dup3\n        /* \"#utility.yul\":1313:1340   */\n      tag_148\n      jump\t// in\n    tag_226:\n        /* \"#utility.yul\":1305:1311   */\n      dup2\n        /* \"#utility.yul\":1301:1341   */\n      add\n        /* \"#utility.yul\":1443:1449   */\n      dup2\n        /* \"#utility.yul\":1431:1441   */\n      dup2\n        /* \"#utility.yul\":1428:1450   */\n      lt\n        /* \"#utility.yul\":1407:1425   */\n      0xffffffffffffffff\n        /* \"#utility.yul\":1395:1405   */\n      dup3\n        /* \"#utility.yul\":1392:1426   */\n      gt\n        /* \"#utility.yul\":1389:1451   */\n      or\n        /* \"#utility.yul\":1386:1474   */\n      iszero\n      tag_227\n      jumpi\n        /* \"#utility.yul\":1454:1472   */\n      tag_228\n      tag_149\n      jump\t// in\n    tag_228:\n        /* \"#utility.yul\":1386:1474   */\n    tag_227:\n        /* \"#utility.yul\":1494:1504   */\n      dup1\n        /* \"#utility.yul\":1490:1492   */\n      0x40\n        /* \"#utility.yul\":1483:1505   */\n      mstore\n        /* \"#utility.yul\":1273:1511   */\n      pop\n        /* \"#utility.yul\":1230:1511   */\n      pop\n      pop\n      jump\t// out\n        /* \"#utility.yul\":1517:1646   */\n    tag_151:\n        /* \"#utility.yul\":1551:1557   */\n      0x00\n        /* \"#utility.yul\":1578:1598   */\n      tag_230\n      tag_140\n      jump\t// in\n    tag_230:\n        /* \"#utility.yul\":1568:1598   */\n      swap1\n      pop\n        /* \"#utility.yul\":1607:1640   */\n      tag_231\n        /* \"#utility.yul\":1635:1639   */\n      dup3\n        /* \"#utility.yul\":1627:1633   */\n      dup3\n        /* \"#utility.yul\":1607:1640   */\n      tag_150\n      jump\t// in\n    tag_231:\n        /* \"#utility.yul\":1517:1646   */\n      swap2\n      swap1\n      pop\n      jump\t// out\n        /* \"#utility.yul\":1652:1960   */\n    tag_152:\n        /* \"#utility.yul\":1714:1718   */\n      0x00\n        /* \"#utility.yul\":1804:1822   */\n      0xffffffffffffffff\n        /* \"#utility.yul\":1796:1802   */\n      dup3\n        /* \"#utility.yul\":1793:1823   */\n      gt\n        /* \"#utility.yul\":1790:1846   */\n      iszero\n      tag_233\n      jumpi\n        /* \"#utility.yul\":1826:1844   */\n      tag_234\n      tag_149\n      jump\t// in\n    tag_234:\n        /* \"#utility.yul\":1790:1846   */\n    tag_233:\n        /* \"#utility.yul\":1864:1893   */\n      tag_235\n        /* \"#utility.yul\":1886:1892   */\n      dup3\n        /* \"#utility.yul\":1864:1893   */\n      tag_148\n      jump\t// in\n    tag_235:\n        /* \"#utility.yul\":1856:1893   */\n      swap1\n      pop\n        /* \"#utility.yul\":1948:1952   */\n      0x20\n        /* \"#utility.yul\":1942:1946   */\n      dup2\n        /* \"#utility.yul\":1938:1953   */\n      add\n        /* \"#utility.yul\":1930:1953   */\n      swap1\n      pop\n        /* \"#utility.yul\":1652:1960   */\n      swap2\n      swap1\n      pop\n      jump\t// out\n        /* \"#utility.yul\":1966:2114   */\n    tag_153:\n        /* \"#utility.yul\":2064:2070   */\n      dup3\n        /* \"#utility.yul\":2059:2062   */\n      dup2\n        /* \"#utility.yul\":2054:2057   */\n      dup4\n        /* \"#utility.yul\":2041:2071   */\n      calldatacopy\n        /* \"#utility.yul\":2105:2106   */\n      0x00\n        /* \"#utility.yul\":2096:2102   */\n      dup4\n        /* \"#utility.yul\":2091:2094   */\n      dup4\n        /* \"#utility.yul\":2087:2103   */\n      add\n        /* \"#utility.yul\":2080:2107   */\n      mstore\n        /* \"#utility.yul\":1966:2114   */\n      pop\n      pop\n      pop\n      jump\t// out\n        /* \"#utility.yul\":2120:2545   */\n    tag_154:\n        /* \"#utility.yul\":2198:2203   */\n      0x00\n        /* \"#utility.yul\":2223:2289   */\n      tag_238\n        /* \"#utility.yul\":2239:2288   */\n      tag_239\n        /* \"#utility.yul\":2281:2287   */\n      dup5\n        /* \"#utility.yul\":2239:2288   */\n      tag_152\n      jump\t// in\n    tag_239:\n        /* \"#utility.yul\":2223:2289   */\n      tag_151\n      jump\t// in\n    tag_238:\n        /* \"#utility.yul\":2214:2289   */\n      swap1\n      pop\n        /* \"#utility.yul\":2312:2318   */\n      dup3\n        /* \"#utility.yul\":2305:2310   */\n      dup2\n        /* \"#utility.yul\":2298:2319   */\n      mstore\n        /* \"#utility.yul\":2350:2354   */\n      0x20\n        /* \"#utility.yul\":2343:2348   */\n      dup2\n        /* \"#utility.yul\":2339:2355   */\n      add\n        /* \"#utility.yul\":2388:2391   */\n      dup5\n        /* \"#utility.yul\":2379:2385   */\n      dup5\n        /* \"#utility.yul\":2374:2377   */\n      dup5\n        /* \"#utility.yul\":2370:2386   */\n      add\n        /* \"#utility.yul\":2367:2392   */\n      gt\n        /* \"#utility.yul\":2364:2476   */\n      iszero\n      tag_240\n      jumpi\n        /* \"#utility.yul\":2395:2474   */\n      tag_241\n      tag_147\n      jump\t// in\n    tag_241:\n        /* \"#utility.yul\":2364:2476   */\n    tag_240:\n        /* \"#utility.yul\":2485:2539   */\n      tag_242\n        /* \"#utility.yul\":2532:2538   */\n      dup5\n        /* \"#utility.yul\":2527:2530   */\n      dup3\n        /* \"#utility.yul\":2522:2525   */\n      dup6\n        /* \"#utility.yul\":2485:2539   */\n      tag_153\n      jump\t// in\n    tag_242:\n        /* \"#utility.yul\":2204:2545   */\n      pop\n        /* \"#utility.yul\":2120:2545   */\n      swap4\n      swap3\n      pop\n      pop\n      pop\n      jump\t// out\n        /* \"#utility.yul\":2565:2905   */\n    tag_155:\n        /* \"#utility.yul\":2621:2626   */\n      0x00\n        /* \"#utility.yul\":2670:2673   */\n      dup3\n        /* \"#utility.yul\":2663:2667   */\n      0x1f\n        /* \"#utility.yul\":2655:2661   */\n      dup4\n        /* \"#utility.yul\":2651:2668   */\n      add\n        /* \"#utility.yul\":2647:2674   */\n      slt\n        /* \"#utility.yul\":2637:2759   */\n      tag_244\n      jumpi\n        /* \"#utility.yul\":2678:2757   */\n      tag_245\n      tag_146\n      jump\t// in\n    tag_245:\n        /* \"#utility.yul\":2637:2759   */\n    tag_244:\n        /* \"#utility.yul\":2795:2801   */\n      dup2\n        /* \"#utility.yul\":2782:2802   */\n      calldataload\n        /* \"#utility.yul\":2820:2899   */\n      tag_246\n        /* \"#utility.yul\":2895:2898   */\n      dup5\n        /* \"#utility.yul\":2887:2893   */\n      dup3\n        /* \"#utility.yul\":2880:2884   */\n      0x20\n        /* \"#utility.yul\":2872:2878   */\n      dup7\n        /* \"#utility.yul\":2868:2885   */\n      add\n        /* \"#utility.yul\":2820:2899   */\n      tag_154\n      jump\t// in\n    tag_246:\n        /* \"#utility.yul\":2811:2899   */\n      swap2\n      pop\n        /* \"#utility.yul\":2627:2905   */\n      pop\n        /* \"#utility.yul\":2565:2905   */\n      swap3\n      swap2\n      pop\n      pop\n      jump\t// out\n        /* \"#utility.yul\":2911:3565   */\n    tag_11:\n        /* \"#utility.yul\":2989:2995   */\n      0x00\n        /* \"#utility.yul\":2997:3003   */\n      dup1\n        /* \"#utility.yul\":3046:3048   */\n      0x40\n        /* \"#utility.yul\":3034:3043   */\n      dup4\n        /* \"#utility.yul\":3025:3032   */\n      dup6\n        /* \"#utility.yul\":3021:3044   */\n      sub\n        /* \"#utility.yul\":3017:3049   */\n      slt\n        /* \"#utility.yul\":3014:3133   */\n      iszero\n      tag_248\n      jumpi\n        /* \"#utility.yul\":3052:3131   */\n      tag_249\n      tag_141\n      jump\t// in\n    tag_249:\n        /* \"#utility.yul\":3014:3133   */\n    tag_248:\n        /* \"#utility.yul\":3172:3173   */\n      0x00\n        /* \"#utility.yul\":3197:3250   */\n      tag_250\n        /* \"#utility.yul\":3242:3249   */\n      dup6\n        /* \"#utility.yul\":3233:3239   */\n      dup3\n        /* \"#utility.yul\":3222:3231   */\n      dup7\n        /* \"#utility.yul\":3218:3240   */\n      add\n        /* \"#utility.yul\":3197:3250   */\n      tag_145\n      jump\t// in\n    tag_250:\n        /* \"#utility.yul\":3187:3250   */\n      swap3\n      pop\n        /* \"#utility.yul\":3143:3260   */\n      pop\n        /* \"#utility.yul\":3327:3329   */\n      0x20\n        /* \"#utility.yul\":3316:3325   */\n      dup4\n        /* \"#utility.yul\":3312:3330   */\n      add\n        /* \"#utility.yul\":3299:3331   */\n      calldataload\n        /* \"#utility.yul\":3358:3376   */\n      0xffffffffffffffff\n        /* \"#utility.yul\":3350:3356   */\n      dup2\n        /* \"#utility.yul\":3347:3377   */\n      gt\n        /* \"#utility.yul\":3344:3461   */\n      iszero\n      tag_251\n      jumpi\n        /* \"#utility.yul\":3380:3459   */\n      tag_252\n      tag_142\n      jump\t// in\n    tag_252:\n        /* \"#utility.yul\":3344:3461   */\n    tag_251:\n        /* \"#utility.yul\":3485:3548   */\n      tag_253\n        /* \"#utility.yul\":3540:3547   */\n      dup6\n        /* \"#utility.yul\":3531:3537   */\n      dup3\n        /* \"#utility.yul\":3520:3529   */\n      dup7\n        /* \"#utility.yul\":3516:3538   */\n      add\n        /* \"#utility.yul\":3485:3548   */\n      tag_155\n      jump\t// in\n    tag_253:\n        /* \"#utility.yul\":3475:3548   */\n      swap2\n      pop\n        /* \"#utility.yul\":3270:3558   */\n      pop\n        /* \"#utility.yul\":2911:3565   */\n      swap3\n      pop\n      swap3\n      swap1\n      pop\n      jump\t// out\n        /* \"#utility.yul\":3571:3882   */\n    tag_156:\n        /* \"#utility.yul\":3648:3652   */\n      0x00\n        /* \"#utility.yul\":3738:3756   */\n      0xffffffffffffffff\n        /* \"#utility.yul\":3730:3736   */\n      dup3\n        /* \"#utility.yul\":3727:3757   */\n      gt\n        /* \"#utility.yul\":3724:3780   */\n      iszero\n      tag_255\n      jumpi\n        /* \"#utility.yul\":3760:3778   */\n      tag_256\n      tag_149\n      jump\t// in\n    tag_256:\n        /* \"#utility.yul\":3724:3780   */\n    tag_255:\n        /* \"#utility.yul\":3810:3814   */\n      0x20\n        /* \"#utility.yul\":3802:3808   */\n      dup3\n        /* \"#utility.yul\":3798:3815   */\n      mul\n        /* \"#utility.yul\":3790:3815   */\n      swap1\n      pop\n        /* \"#utility.yul\":3870:3874   */\n      0x20\n        /* \"#utility.yul\":3864:3868   */\n      dup2\n        /* \"#utility.yul\":3860:3875   */\n      add\n        /* \"#utility.yul\":3852:3875   */\n      swap1\n      pop\n        /* \"#utility.yul\":3571:3882   */\n      swap2\n      swap1\n      pop\n      jump\t// out\n        /* \"#utility.yul\":3888:4005   */\n    tag_157:\n        /* \"#utility.yul\":3997:3998   */\n      0x00\n        /* \"#utility.yul\":3994:3995   */\n      dup1\n        /* \"#utility.yul\":3987:3999   */\n      revert\n        /* \"#utility.yul\":4028:4738   */\n    tag_158:\n        /* \"#utility.yul\":4124:4129   */\n      0x00\n        /* \"#utility.yul\":4149:4230   */\n      tag_259\n        /* \"#utility.yul\":4165:4229   */\n      tag_260\n        /* \"#utility.yul\":4222:4228   */\n      dup5\n        /* \"#utility.yul\":4165:4229   */\n      tag_156\n      jump\t// in\n    tag_260:\n        /* \"#utility.yul\":4149:4230   */\n      tag_151\n      jump\t// in\n    tag_259:\n        /* \"#utility.yul\":4140:4230   */\n      swap1\n      pop\n        /* \"#utility.yul\":4250:4255   */\n      dup1\n        /* \"#utility.yul\":4279:4285   */\n      dup4\n        /* \"#utility.yul\":4272:4277   */\n      dup3\n        /* \"#utility.yul\":4265:4286   */\n      mstore\n        /* \"#utility.yul\":4313:4317   */\n      0x20\n        /* \"#utility.yul\":4306:4311   */\n      dup3\n        /* \"#utility.yul\":4302:4318   */\n      add\n        /* \"#utility.yul\":4295:4318   */\n      swap1\n      pop\n        /* \"#utility.yul\":4366:4370   */\n      0x20\n        /* \"#utility.yul\":4358:4364   */\n      dup5\n        /* \"#utility.yul\":4354:4371   */\n      mul\n        /* \"#utility.yul\":4346:4352   */\n      dup4\n        /* \"#utility.yul\":4342:4372   */\n      add\n        /* \"#utility.yul\":4395:4398   */\n      dup6\n        /* \"#utility.yul\":4387:4393   */\n      dup2\n        /* \"#utility.yul\":4384:4399   */\n      gt\n        /* \"#utility.yul\":4381:4503   */\n      iszero\n      tag_261\n      jumpi\n        /* \"#utility.yul\":4414:4493   */\n      tag_262\n      tag_157\n      jump\t// in\n    tag_262:\n        /* \"#utility.yul\":4381:4503   */\n    tag_261:\n        /* \"#utility.yul\":4529:4535   */\n      dup4\n        /* \"#utility.yul\":4512:4732   */\n    tag_263:\n        /* \"#utility.yul\":4546:4552   */\n      dup2\n        /* \"#utility.yul\":4541:4544   */\n      dup2\n        /* \"#utility.yul\":4538:4553   */\n      lt\n        /* \"#utility.yul\":4512:4732   */\n      iszero\n      tag_265\n      jumpi\n        /* \"#utility.yul\":4621:4624   */\n      dup1\n        /* \"#utility.yul\":4650:4687   */\n      tag_266\n        /* \"#utility.yul\":4683:4686   */\n      dup9\n        /* \"#utility.yul\":4671:4681   */\n      dup3\n        /* \"#utility.yul\":4650:4687   */\n      tag_145\n      jump\t// in\n    tag_266:\n        /* \"#utility.yul\":4645:4648   */\n      dup5\n        /* \"#utility.yul\":4638:4688   */\n      mstore\n        /* \"#utility.yul\":4717:4721   */\n      0x20\n        /* \"#utility.yul\":4712:4715   */\n      dup5\n        /* \"#utility.yul\":4708:4722   */\n      add\n        /* \"#utility.yul\":4701:4722   */\n      swap4\n      pop\n        /* \"#utility.yul\":4588:4732   */\n      pop\n        /* \"#utility.yul\":4572:4576   */\n      0x20\n        /* \"#utility.yul\":4567:4570   */\n      dup2\n        /* \"#utility.yul\":4563:4577   */\n      add\n        /* \"#utility.yul\":4556:4577   */\n      swap1\n      pop\n        /* \"#utility.yul\":4512:4732   */\n      jump(tag_263)\n    tag_265:\n        /* \"#utility.yul\":4516:4537   */\n      pop\n        /* \"#utility.yul\":4130:4738   */\n      pop\n      pop\n        /* \"#utility.yul\":4028:4738   */\n      swap4\n      swap3\n      pop\n      pop\n      pop\n      jump\t// out\n        /* \"#utility.yul\":4761:5131   */\n    tag_159:\n        /* \"#utility.yul\":4832:4837   */\n      0x00\n        /* \"#utility.yul\":4881:4884   */\n      dup3\n        /* \"#utility.yul\":4874:4878   */\n      0x1f\n        /* \"#utility.yul\":4866:4872   */\n      dup4\n        /* \"#utility.yul\":4862:4879   */\n      add\n        /* \"#utility.yul\":4858:4885   */\n      slt\n        /* \"#utility.yul\":4848:4970   */\n      tag_268\n      jumpi\n        /* \"#utility.yul\":4889:4968   */\n      tag_269\n      tag_146\n      jump\t// in\n    tag_269:\n        /* \"#utility.yul\":4848:4970   */\n    tag_268:\n        /* \"#utility.yul\":5006:5012   */\n      dup2\n        /* \"#utility.yul\":4993:5013   */\n      calldataload\n        /* \"#utility.yul\":5031:5125   */\n      tag_270\n        /* \"#utility.yul\":5121:5124   */\n      dup5\n        /* \"#utility.yul\":5113:5119   */\n      dup3\n        /* \"#utility.yul\":5106:5110   */\n      0x20\n        /* \"#utility.yul\":5098:5104   */\n      dup7\n        /* \"#utility.yul\":5094:5111   */\n      add\n        /* \"#utility.yul\":5031:5125   */\n      tag_158\n      jump\t// in\n    tag_270:\n        /* \"#utility.yul\":5022:5125   */\n      swap2\n      pop\n        /* \"#utility.yul\":4838:5131   */\n      pop\n        /* \"#utility.yul\":4761:5131   */\n      swap3\n      swap2\n      pop\n      pop\n      jump\t// out\n        /* \"#utility.yul\":5137:6001   */\n    tag_15:\n        /* \"#utility.yul\":5240:5246   */\n      0x00\n        /* \"#utility.yul\":5248:5254   */\n      dup1\n        /* \"#utility.yul\":5297:5299   */\n      0x40\n        /* \"#utility.yul\":5285:5294   */\n      dup4\n        /* \"#utility.yul\":5276:5283   */\n      dup6\n        /* \"#utility.yul\":5272:5295   */\n      sub\n        /* \"#utility.yul\":5268:5300   */\n      slt\n        /* \"#utility.yul\":5265:5384   */\n      iszero\n      tag_272\n      jumpi\n        /* \"#utility.yul\":5303:5382   */\n      tag_273\n      tag_141\n      jump\t// in\n    tag_273:\n        /* \"#utility.yul\":5265:5384   */\n    tag_272:\n        /* \"#utility.yul\":5451:5452   */\n      0x00\n        /* \"#utility.yul\":5440:5449   */\n      dup4\n        /* \"#utility.yul\":5436:5453   */\n      add\n        /* \"#utility.yul\":5423:5454   */\n      calldataload\n        /* \"#utility.yul\":5481:5499   */\n      0xffffffffffffffff\n        /* \"#utility.yul\":5473:5479   */\n      dup2\n        /* \"#utility.yul\":5470:5500   */\n      gt\n        /* \"#utility.yul\":5467:5584   */\n      iszero\n      tag_274\n      jumpi\n        /* \"#utility.yul\":5503:5582   */\n      tag_275\n      tag_142\n      jump\t// in\n    tag_275:\n        /* \"#utility.yul\":5467:5584   */\n    tag_274:\n        /* \"#utility.yul\":5608:5671   */\n      tag_276\n        /* \"#utility.yul\":5663:5670   */\n      dup6\n        /* \"#utility.yul\":5654:5660   */\n      dup3\n        /* \"#utility.yul\":5643:5652   */\n      dup7\n        /* \"#utility.yul\":5639:5661   */\n      add\n        /* \"#utility.yul\":5608:5671   */\n      tag_155\n      jump\t// in\n    tag_276:\n        /* \"#utility.yul\":5598:5671   */\n      swap3\n      pop\n        /* \"#utility.yul\":5394:5681   */\n      pop\n        /* \"#utility.yul\":5748:5750   */\n      0x20\n        /* \"#utility.yul\":5737:5746   */\n      dup4\n        /* \"#utility.yul\":5733:5751   */\n      add\n        /* \"#utility.yul\":5720:5752   */\n      calldataload\n        /* \"#utility.yul\":5779:5797   */\n      0xffffffffffffffff\n        /* \"#utility.yul\":5771:5777   */\n      dup2\n        /* \"#utility.yul\":5768:5798   */\n      gt\n        /* \"#utility.yul\":5765:5882   */\n      iszero\n      tag_277\n      jumpi\n        /* \"#utility.yul\":5801:5880   */\n      tag_278\n      tag_142\n      jump\t// in\n    tag_278:\n        /* \"#utility.yul\":5765:5882   */\n    tag_277:\n        /* \"#utility.yul\":5906:5984   */\n      tag_279\n        /* \"#utility.yul\":5976:5983   */\n      dup6\n        /* \"#utility.yul\":5967:5973   */\n      dup3\n        /* \"#utility.yul\":5956:5965   */\n      dup7\n        /* \"#utility.yul\":5952:5974   */\n      add\n        /* \"#utility.yul\":5906:5984   */\n      tag_159\n      jump\t// in\n    tag_279:\n        /* \"#utility.yul\":5896:5984   */\n      swap2\n      pop\n        /* \"#utility.yul\":5691:5994   */\n      pop\n        /* \"#utility.yul\":5137:6001   */\n      swap3\n      pop\n      swap3\n      swap1\n      pop\n      jump\t// out\n        /* \"#utility.yul\":6007:6125   */\n    tag_160:\n        /* \"#utility.yul\":6094:6118   */\n      tag_281\n        /* \"#utility.yul\":6112:6117   */\n      dup2\n        /* \"#utility.yul\":6094:6118   */\n      tag_143\n      jump\t// in\n    tag_281:\n        /* \"#utility.yul\":6089:6092   */\n      dup3\n        /* \"#utility.yul\":6082:6119   */\n      mstore\n        /* \"#utility.yul\":6007:6125   */\n      pop\n      pop\n      jump\t// out\n        /* \"#utility.yul\":6131:6353   */\n    tag_18:\n        /* \"#utility.yul\":6224:6228   */\n      0x00\n        /* \"#utility.yul\":6262:6264   */\n      0x20\n        /* \"#utility.yul\":6251:6260   */\n      dup3\n        /* \"#utility.yul\":6247:6265   */\n      add\n        /* \"#utility.yul\":6239:6265   */\n      swap1\n      pop\n        /* \"#utility.yul\":6275:6346   */\n      tag_283\n        /* \"#utility.yul\":6343:6344   */\n      0x00\n        /* \"#utility.yul\":6332:6341   */\n      dup4\n        /* \"#utility.yul\":6328:6345   */\n      add\n        /* \"#utility.yul\":6319:6325   */\n      dup5\n        /* \"#utility.yul\":6275:6346   */\n      tag_160\n      jump\t// in\n    tag_283:\n        /* \"#utility.yul\":6131:6353   */\n      swap3\n      swap2\n      pop\n      pop\n      jump\t// out\n        /* \"#utility.yul\":6359:6485   */\n    tag_161:\n        /* \"#utility.yul\":6396:6403   */\n      0x00\n        /* \"#utility.yul\":6436:6478   */\n      0xffffffffffffffffffffffffffffffffffffffff\n        /* \"#utility.yul\":6429:6434   */\n      dup3\n        /* \"#utility.yul\":6425:6479   */\n      and\n        /* \"#utility.yul\":6414:6479   */\n      swap1\n      pop\n        /* \"#utility.yul\":6359:6485   */\n      swap2\n      swap1\n      pop\n      jump\t// out\n        /* \"#utility.yul\":6491:6587   */\n    tag_162:\n        /* \"#utility.yul\":6528:6535   */\n      0x00\n        /* \"#utility.yul\":6557:6581   */\n      tag_286\n        /* \"#utility.yul\":6575:6580   */\n      dup3\n        /* \"#utility.yul\":6557:6581   */\n      tag_161\n      jump\t// in\n    tag_286:\n        /* \"#utility.yul\":6546:6581   */\n      swap1\n      pop\n        /* \"#utility.yul\":6491:6587   */\n      swap2\n      swap1\n      pop\n      jump\t// out\n        /* \"#utility.yul\":6593:6711   */\n    tag_163:\n        /* \"#utility.yul\":6680:6704   */\n      tag_288\n        /* \"#utility.yul\":6698:6703   */\n      dup2\n        /* \"#utility.yul\":6680:6704   */\n      tag_162\n      jump\t// in\n    tag_288:\n        /* \"#utility.yul\":6675:6678   */\n      dup3\n        /* \"#utility.yul\":6668:6705   */\n      mstore\n        /* \"#utility.yul\":6593:6711   */\n      pop\n      pop\n      jump\t// out\n        /* \"#utility.yul\":6717:6939   */\n    tag_22:\n        /* \"#utility.yul\":6810:6814   */\n      0x00\n        /* \"#utility.yul\":6848:6850   */\n      0x20\n        /* \"#utility.yul\":6837:6846   */\n      dup3\n        /* \"#utility.yul\":6833:6851   */\n      add\n        /* \"#utility.yul\":6825:6851   */\n      swap1\n      pop\n        /* \"#utility.yul\":6861:6932   */\n      tag_290\n        /* \"#utility.yul\":6929:6930   */\n      0x00\n        /* \"#utility.yul\":6918:6927   */\n      dup4\n        /* \"#utility.yul\":6914:6931   */\n      add\n        /* \"#utility.yul\":6905:6911   */\n      dup5\n        /* \"#utility.yul\":6861:6932   */\n      tag_163\n      jump\t// in\n    tag_290:\n        /* \"#utility.yul\":6717:6939   */\n      swap3\n      swap2\n      pop\n      pop\n      jump\t// out\n        /* \"#utility.yul\":6945:7274   */\n    tag_25:\n        /* \"#utility.yul\":7004:7010   */\n      0x00\n        /* \"#utility.yul\":7053:7055   */\n      0x20\n        /* \"#utility.yul\":7041:7050   */\n      dup3\n        /* \"#utility.yul\":7032:7039   */\n      dup5\n        /* \"#utility.yul\":7028:7051   */\n      sub\n        /* \"#utility.yul\":7024:7056   */\n      slt\n        /* \"#utility.yul\":7021:7140   */\n      iszero\n      tag_292\n      jumpi\n        /* \"#utility.yul\":7059:7138   */\n      tag_293\n      tag_141\n      jump\t// in\n    tag_293:\n        /* \"#utility.yul\":7021:7140   */\n    tag_292:\n        /* \"#utility.yul\":7179:7180   */\n      0x00\n        /* \"#utility.yul\":7204:7257   */\n      tag_294\n        /* \"#utility.yul\":7249:7256   */\n      dup5\n        /* \"#utility.yul\":7240:7246   */\n      dup3\n        /* \"#utility.yul\":7229:7238   */\n      dup6\n        /* \"#utility.yul\":7225:7247   */\n      add\n        /* \"#utility.yul\":7204:7257   */\n      tag_145\n      jump\t// in\n    tag_294:\n        /* \"#utility.yul\":7194:7257   */\n      swap2\n      pop\n        /* \"#utility.yul\":7150:7267   */\n      pop\n        /* \"#utility.yul\":6945:7274   */\n      swap3\n      swap2\n      pop\n      pop\n      jump\t// out\n        /* \"#utility.yul\":7280:7379   */\n    tag_164:\n        /* \"#utility.yul\":7332:7338   */\n      0x00\n        /* \"#utility.yul\":7366:7371   */\n      dup2\n        /* \"#utility.yul\":7360:7372   */\n      mload\n        /* \"#utility.yul\":7350:7372   */\n      swap1\n      pop\n        /* \"#utility.yul\":7280:7379   */\n      swap2\n      swap1\n      pop\n      jump\t// out\n        /* \"#utility.yul\":7385:7554   */\n    tag_165:\n        /* \"#utility.yul\":7469:7480   */\n      0x00\n        /* \"#utility.yul\":7503:7509   */\n      dup3\n        /* \"#utility.yul\":7498:7501   */\n      dup3\n        /* \"#utility.yul\":7491:7510   */\n      mstore\n        /* \"#utility.yul\":7543:7547   */\n      0x20\n        /* \"#utility.yul\":7538:7541   */\n      dup3\n        /* \"#utility.yul\":7534:7548   */\n      add\n        /* \"#utility.yul\":7519:7548   */\n      swap1\n      pop\n        /* \"#utility.yul\":7385:7554   */\n      swap3\n      swap2\n      pop\n      pop\n      jump\t// out\n        /* \"#utility.yul\":7560:7699   */\n    tag_166:\n        /* \"#utility.yul\":7649:7655   */\n      dup3\n        /* \"#utility.yul\":7644:7647   */\n      dup2\n        /* \"#utility.yul\":7639:7642   */\n      dup4\n        /* \"#utility.yul\":7633:7656   */\n      mcopy\n        /* \"#utility.yul\":7690:7691   */\n      0x00\n        /* \"#utility.yul\":7681:7687   */\n      dup4\n        /* \"#utility.yul\":7676:7679   */\n      dup4\n        /* \"#utility.yul\":7672:7688   */\n      add\n        /* \"#utility.yul\":7665:7692   */\n      mstore\n        /* \"#utility.yul\":7560:7699   */\n      pop\n      pop\n      pop\n      jump\t// out\n        /* \"#utility.yul\":7705:8082   */\n    tag_167:\n        /* \"#utility.yul\":7793:7796   */\n      0x00\n        /* \"#utility.yul\":7821:7860   */\n      tag_299\n        /* \"#utility.yul\":7854:7859   */\n      dup3\n        /* \"#utility.yul\":7821:7860   */\n      tag_164\n      jump\t// in\n    tag_299:\n        /* \"#utility.yul\":7876:7947   */\n      tag_300\n        /* \"#utility.yul\":7940:7946   */\n      dup2\n        /* \"#utility.yul\":7935:7938   */\n      dup6\n        /* \"#utility.yul\":7876:7947   */\n      tag_165\n      jump\t// in\n    tag_300:\n        /* \"#utility.yul\":7869:7947   */\n      swap4\n      pop\n        /* \"#utility.yul\":7956:8021   */\n      tag_301\n        /* \"#utility.yul\":8014:8020   */\n      dup2\n        /* \"#utility.yul\":8009:8012   */\n      dup6\n        /* \"#utility.yul\":8002:8006   */\n      0x20\n        /* \"#utility.yul\":7995:8000   */\n      dup7\n        /* \"#utility.yul\":7991:8007   */\n      add\n        /* \"#utility.yul\":7956:8021   */\n      tag_166\n      jump\t// in\n    tag_301:\n        /* \"#utility.yul\":8046:8075   */\n      tag_302\n        /* \"#utility.yul\":8068:8074   */\n      dup2\n        /* \"#utility.yul\":8046:8075   */\n      tag_148\n      jump\t// in\n    tag_302:\n        /* \"#utility.yul\":8041:8044   */\n      dup5\n        /* \"#utility.yul\":8037:8076   */\n      add\n        /* \"#utility.yul\":8030:8076   */\n      swap2\n      pop\n        /* \"#utility.yul\":7797:8082   */\n      pop\n        /* \"#utility.yul\":7705:8082   */\n      swap3\n      swap2\n      pop\n      pop\n      jump\t// out\n        /* \"#utility.yul\":8088:8268   */\n    tag_56:\n        /* \"#utility.yul\":8136:8213   */\n      0x4e487b7100000000000000000000000000000000000000000000000000000000\n        /* \"#utility.yul\":8133:8134   */\n      0x00\n        /* \"#utility.yul\":8126:8214   */\n      mstore\n        /* \"#utility.yul\":8233:8237   */\n      0x21\n        /* \"#utility.yul\":8230:8231   */\n      0x04\n        /* \"#utility.yul\":8223:8238   */\n      mstore\n        /* \"#utility.yul\":8257:8261   */\n      0x24\n        /* \"#utility.yul\":8254:8255   */\n      0x00\n        /* \"#utility.yul\":8247:8262   */\n      revert\n        /* \"#utility.yul\":8274:8387   */\n    tag_168:\n        /* \"#utility.yul\":8355:8356   */\n      0x04\n        /* \"#utility.yul\":8348:8353   */\n      dup2\n        /* \"#utility.yul\":8345:8357   */\n      lt\n        /* \"#utility.yul\":8335:8381   */\n      tag_305\n      jumpi\n        /* \"#utility.yul\":8361:8379   */\n      tag_306\n      tag_56\n      jump\t// in\n    tag_306:\n        /* \"#utility.yul\":8335:8381   */\n    tag_305:\n        /* \"#utility.yul\":8274:8387   */\n      pop\n      jump\t// out\n        /* \"#utility.yul\":8393:8520   */\n    tag_169:\n        /* \"#utility.yul\":8438:8445   */\n      0x00\n        /* \"#utility.yul\":8467:8472   */\n      dup2\n        /* \"#utility.yul\":8456:8472   */\n      swap1\n      pop\n        /* \"#utility.yul\":8473:8514   */\n      tag_308\n        /* \"#utility.yul\":8508:8513   */\n      dup3\n        /* \"#utility.yul\":8473:8514   */\n      tag_168\n      jump\t// in\n    tag_308:\n        /* \"#utility.yul\":8393:8520   */\n      swap2\n      swap1\n      pop\n      jump\t// out\n        /* \"#utility.yul\":8526:8653   */\n    tag_170:\n        /* \"#utility.yul\":8582:8591   */\n      0x00\n        /* \"#utility.yul\":8615:8647   */\n      tag_310\n        /* \"#utility.yul\":8641:8646   */\n      dup3\n        /* \"#utility.yul\":8615:8647   */\n      tag_169\n      jump\t// in\n    tag_310:\n        /* \"#utility.yul\":8602:8647   */\n      swap1\n      pop\n        /* \"#utility.yul\":8526:8653   */\n      swap2\n      swap1\n      pop\n      jump\t// out\n        /* \"#utility.yul\":8659:8802   */\n    tag_171:\n        /* \"#utility.yul\":8752:8795   */\n      tag_312\n        /* \"#utility.yul\":8789:8794   */\n      dup2\n        /* \"#utility.yul\":8752:8795   */\n      tag_170\n      jump\t// in\n    tag_312:\n        /* \"#utility.yul\":8747:8750   */\n      dup3\n        /* \"#utility.yul\":8740:8796   */\n      mstore\n        /* \"#utility.yul\":8659:8802   */\n      pop\n      pop\n      jump\t// out\n        /* \"#utility.yul\":8808:9353   */\n    tag_28:\n        /* \"#utility.yul\":8983:8987   */\n      0x00\n        /* \"#utility.yul\":9021:9023   */\n      0x60\n        /* \"#utility.yul\":9010:9019   */\n      dup3\n        /* \"#utility.yul\":9006:9024   */\n      add\n        /* \"#utility.yul\":8998:9024   */\n      swap1\n      pop\n        /* \"#utility.yul\":9034:9105   */\n      tag_314\n        /* \"#utility.yul\":9102:9103   */\n      0x00\n        /* \"#utility.yul\":9091:9100   */\n      dup4\n        /* \"#utility.yul\":9087:9104   */\n      add\n        /* \"#utility.yul\":9078:9084   */\n      dup7\n        /* \"#utility.yul\":9034:9105   */\n      tag_163\n      jump\t// in\n    tag_314:\n        /* \"#utility.yul\":9152:9161   */\n      dup2\n        /* \"#utility.yul\":9146:9150   */\n      dup2\n        /* \"#utility.yul\":9142:9162   */\n      sub\n        /* \"#utility.yul\":9137:9139   */\n      0x20\n        /* \"#utility.yul\":9126:9135   */\n      dup4\n        /* \"#utility.yul\":9122:9140   */\n      add\n        /* \"#utility.yul\":9115:9163   */\n      mstore\n        /* \"#utility.yul\":9180:9258   */\n      tag_315\n        /* \"#utility.yul\":9253:9257   */\n      dup2\n        /* \"#utility.yul\":9244:9250   */\n      dup6\n        /* \"#utility.yul\":9180:9258   */\n      tag_167\n      jump\t// in\n    tag_315:\n        /* \"#utility.yul\":9172:9258   */\n      swap1\n      pop\n        /* \"#utility.yul\":9268:9346   */\n      tag_316\n        /* \"#utility.yul\":9342:9344   */\n      0x40\n        /* \"#utility.yul\":9331:9340   */\n      dup4\n        /* \"#utility.yul\":9327:9345   */\n      add\n        /* \"#utility.yul\":9318:9324   */\n      dup5\n        /* \"#utility.yul\":9268:9346   */\n      tag_171\n      jump\t// in\n    tag_316:\n        /* \"#utility.yul\":8808:9353   */\n      swap5\n      swap4\n      pop\n      pop\n      pop\n      pop\n      jump\t// out\n        /* \"#utility.yul\":9359:9467   */\n    tag_172:\n        /* \"#utility.yul\":9436:9460   */\n      tag_318\n        /* \"#utility.yul\":9454:9459   */\n      dup2\n        /* \"#utility.yul\":9436:9460   */\n      tag_162\n      jump\t// in\n    tag_318:\n        /* \"#utility.yul\":9431:9434   */\n      dup3\n        /* \"#utility.yul\":9424:9461   */\n      mstore\n        /* \"#utility.yul\":9359:9467   */\n      pop\n      pop\n      jump\t// out\n        /* \"#utility.yul\":9473:9632   */\n    tag_173:\n        /* \"#utility.yul\":9547:9558   */\n      0x00\n        /* \"#utility.yul\":9581:9587   */\n      dup3\n        /* \"#utility.yul\":9576:9579   */\n      dup3\n        /* \"#utility.yul\":9569:9588   */\n      mstore\n        /* \"#utility.yul\":9621:9625   */\n      0x20\n        /* \"#utility.yul\":9616:9619   */\n      dup3\n        /* \"#utility.yul\":9612:9626   */\n      add\n        /* \"#utility.yul\":9597:9626   */\n      swap1\n      pop\n        /* \"#utility.yul\":9473:9632   */\n      swap3\n      swap2\n      pop\n      pop\n      jump\t// out\n        /* \"#utility.yul\":9638:9995   */\n    tag_174:\n        /* \"#utility.yul\":9716:9719   */\n      0x00\n        /* \"#utility.yul\":9744:9783   */\n      tag_321\n        /* \"#utility.yul\":9777:9782   */\n      dup3\n        /* \"#utility.yul\":9744:9783   */\n      tag_164\n      jump\t// in\n    tag_321:\n        /* \"#utility.yul\":9799:9860   */\n      tag_322\n        /* \"#utility.yul\":9853:9859   */\n      dup2\n        /* \"#utility.yul\":9848:9851   */\n      dup6\n        /* \"#utility.yul\":9799:9860   */\n      tag_173\n      jump\t// in\n    tag_322:\n        /* \"#utility.yul\":9792:9860   */\n      swap4\n      pop\n        /* \"#utility.yul\":9869:9934   */\n      tag_323\n        /* \"#utility.yul\":9927:9933   */\n      dup2\n        /* \"#utility.yul\":9922:9925   */\n      dup6\n        /* \"#utility.yul\":9915:9919   */\n      0x20\n        /* \"#utility.yul\":9908:9913   */\n      dup7\n        /* \"#utility.yul\":9904:9920   */\n      add\n        /* \"#utility.yul\":9869:9934   */\n      tag_166\n      jump\t// in\n    tag_323:\n        /* \"#utility.yul\":9959:9988   */\n      tag_324\n        /* \"#utility.yul\":9981:9987   */\n      dup2\n        /* \"#utility.yul\":9959:9988   */\n      tag_148\n      jump\t// in\n    tag_324:\n        /* \"#utility.yul\":9954:9957   */\n      dup5\n        /* \"#utility.yul\":9950:9989   */\n      add\n        /* \"#utility.yul\":9943:9989   */\n      swap2\n      pop\n        /* \"#utility.yul\":9720:9995   */\n      pop\n        /* \"#utility.yul\":9638:9995   */\n      swap3\n      swap2\n      pop\n      pop\n      jump\t// out\n        /* \"#utility.yul\":10001:10115   */\n    tag_175:\n        /* \"#utility.yul\":10068:10074   */\n      0x00\n        /* \"#utility.yul\":10102:10107   */\n      dup2\n        /* \"#utility.yul\":10096:10108   */\n      mload\n        /* \"#utility.yul\":10086:10108   */\n      swap1\n      pop\n        /* \"#utility.yul\":10001:10115   */\n      swap2\n      swap1\n      pop\n      jump\t// out\n        /* \"#utility.yul\":10121:10295   */\n    tag_176:\n        /* \"#utility.yul\":10210:10221   */\n      0x00\n        /* \"#utility.yul\":10244:10250   */\n      dup3\n        /* \"#utility.yul\":10239:10242   */\n      dup3\n        /* \"#utility.yul\":10232:10251   */\n      mstore\n        /* \"#utility.yul\":10284:10288   */\n      0x20\n        /* \"#utility.yul\":10279:10282   */\n      dup3\n        /* \"#utility.yul\":10275:10289   */\n      add\n        /* \"#utility.yul\":10260:10289   */\n      swap1\n      pop\n        /* \"#utility.yul\":10121:10295   */\n      swap3\n      swap2\n      pop\n      pop\n      jump\t// out\n        /* \"#utility.yul\":10301:10433   */\n    tag_177:\n        /* \"#utility.yul\":10368:10372   */\n      0x00\n        /* \"#utility.yul\":10391:10394   */\n      dup2\n        /* \"#utility.yul\":10383:10394   */\n      swap1\n      pop\n        /* \"#utility.yul\":10421:10425   */\n      0x20\n        /* \"#utility.yul\":10416:10419   */\n      dup3\n        /* \"#utility.yul\":10412:10426   */\n      add\n        /* \"#utility.yul\":10404:10426   */\n      swap1\n      pop\n        /* \"#utility.yul\":10301:10433   */\n      swap2\n      swap1\n      pop\n      jump\t// out\n        /* \"#utility.yul\":10439:10547   */\n    tag_178:\n        /* \"#utility.yul\":10516:10540   */\n      tag_329\n        /* \"#utility.yul\":10534:10539   */\n      dup2\n        /* \"#utility.yul\":10516:10540   */\n      tag_143\n      jump\t// in\n    tag_329:\n        /* \"#utility.yul\":10511:10514   */\n      dup3\n        /* \"#utility.yul\":10504:10541   */\n      mstore\n        /* \"#utility.yul\":10439:10547   */\n      pop\n      pop\n      jump\t// out\n        /* \"#utility.yul\":10553:10732   */\n    tag_179:\n        /* \"#utility.yul\":10622:10632   */\n      0x00\n        /* \"#utility.yul\":10643:10689   */\n      tag_331\n        /* \"#utility.yul\":10685:10688   */\n      dup4\n        /* \"#utility.yul\":10677:10683   */\n      dup4\n        /* \"#utility.yul\":10643:10689   */\n      tag_178\n      jump\t// in\n    tag_331:\n        /* \"#utility.yul\":10721:10725   */\n      0x20\n        /* \"#utility.yul\":10716:10719   */\n      dup4\n        /* \"#utility.yul\":10712:10726   */\n      add\n        /* \"#utility.yul\":10698:10726   */\n      swap1\n      pop\n        /* \"#utility.yul\":10553:10732   */\n      swap3\n      swap2\n      pop\n      pop\n      jump\t// out\n        /* \"#utility.yul\":10738:10851   */\n    tag_180:\n        /* \"#utility.yul\":10808:10812   */\n      0x00\n        /* \"#utility.yul\":10840:10844   */\n      0x20\n        /* \"#utility.yul\":10835:10838   */\n      dup3\n        /* \"#utility.yul\":10831:10845   */\n      add\n        /* \"#utility.yul\":10823:10845   */\n      swap1\n      pop\n        /* \"#utility.yul\":10738:10851   */\n      swap2\n      swap1\n      pop\n      jump\t// out\n        /* \"#utility.yul\":10887:11599   */\n    tag_181:\n        /* \"#utility.yul\":10996:10999   */\n      0x00\n        /* \"#utility.yul\":11025:11079   */\n      tag_334\n        /* \"#utility.yul\":11073:11078   */\n      dup3\n        /* \"#utility.yul\":11025:11079   */\n      tag_175\n      jump\t// in\n    tag_334:\n        /* \"#utility.yul\":11095:11171   */\n      tag_335\n        /* \"#utility.yul\":11164:11170   */\n      dup2\n        /* \"#utility.yul\":11159:11162   */\n      dup6\n        /* \"#utility.yul\":11095:11171   */\n      tag_176\n      jump\t// in\n    tag_335:\n        /* \"#utility.yul\":11088:11171   */\n      swap4\n      pop\n        /* \"#utility.yul\":11195:11251   */\n      tag_336\n        /* \"#utility.yul\":11245:11250   */\n      dup4\n        /* \"#utility.yul\":11195:11251   */\n      tag_177\n      jump\t// in\n    tag_336:\n        /* \"#utility.yul\":11274:11281   */\n      dup1\n        /* \"#utility.yul\":11305:11306   */\n      0x00\n        /* \"#utility.yul\":11290:11574   */\n    tag_337:\n        /* \"#utility.yul\":11315:11321   */\n      dup4\n        /* \"#utility.yul\":11312:11313   */\n      dup2\n        /* \"#utility.yul\":11309:11322   */\n      lt\n        /* \"#utility.yul\":11290:11574   */\n      iszero\n      tag_339\n      jumpi\n        /* \"#utility.yul\":11391:11397   */\n      dup2\n        /* \"#utility.yul\":11385:11398   */\n      mload\n        /* \"#utility.yul\":11418:11481   */\n      tag_340\n        /* \"#utility.yul\":11477:11480   */\n      dup9\n        /* \"#utility.yul\":11462:11475   */\n      dup3\n        /* \"#utility.yul\":11418:11481   */\n      tag_179\n      jump\t// in\n    tag_340:\n        /* \"#utility.yul\":11411:11481   */\n      swap8\n      pop\n        /* \"#utility.yul\":11504:11564   */\n      tag_341\n        /* \"#utility.yul\":11557:11563   */\n      dup4\n        /* \"#utility.yul\":11504:11564   */\n      tag_180\n      jump\t// in\n    tag_341:\n        /* \"#utility.yul\":11494:11564   */\n      swap3\n      pop\n        /* \"#utility.yul\":11350:11574   */\n      pop\n        /* \"#utility.yul\":11337:11338   */\n      0x01\n        /* \"#utility.yul\":11334:11335   */\n      dup2\n        /* \"#utility.yul\":11330:11339   */\n      add\n        /* \"#utility.yul\":11325:11339   */\n      swap1\n      pop\n        /* \"#utility.yul\":11290:11574   */\n      jump(tag_337)\n    tag_339:\n        /* \"#utility.yul\":11294:11308   */\n      pop\n        /* \"#utility.yul\":11590:11593   */\n      dup6\n        /* \"#utility.yul\":11583:11593   */\n      swap4\n      pop\n        /* \"#utility.yul\":11001:11599   */\n      pop\n      pop\n      pop\n        /* \"#utility.yul\":10887:11599   */\n      swap3\n      swap2\n      pop\n      pop\n      jump\t// out\n        /* \"#utility.yul\":11605:11738   */\n    tag_182:\n        /* \"#utility.yul\":11688:11731   */\n      tag_343\n        /* \"#utility.yul\":11725:11730   */\n      dup2\n        /* \"#utility.yul\":11688:11731   */\n      tag_170\n      jump\t// in\n    tag_343:\n        /* \"#utility.yul\":11683:11686   */\n      dup3\n        /* \"#utility.yul\":11676:11732   */\n      mstore\n        /* \"#utility.yul\":11605:11738   */\n      pop\n      pop\n      jump\t// out\n        /* \"#utility.yul\":11800:12866   */\n    tag_183:\n        /* \"#utility.yul\":11911:11914   */\n      0x00\n        /* \"#utility.yul\":11947:11951   */\n      0x80\n        /* \"#utility.yul\":11942:11945   */\n      dup4\n        /* \"#utility.yul\":11938:11952   */\n      add\n        /* \"#utility.yul\":12038:12042   */\n      0x00\n        /* \"#utility.yul\":12031:12036   */\n      dup4\n        /* \"#utility.yul\":12027:12043   */\n      add\n        /* \"#utility.yul\":12021:12044   */\n      mload\n        /* \"#utility.yul\":12057:12120   */\n      tag_345\n        /* \"#utility.yul\":12114:12118   */\n      0x00\n        /* \"#utility.yul\":12109:12112   */\n      dup7\n        /* \"#utility.yul\":12105:12119   */\n      add\n        /* \"#utility.yul\":12091:12103   */\n      dup3\n        /* \"#utility.yul\":12057:12120   */\n      tag_172\n      jump\t// in\n    tag_345:\n        /* \"#utility.yul\":11962:12130   */\n      pop\n        /* \"#utility.yul\":12215:12219   */\n      0x20\n        /* \"#utility.yul\":12208:12213   */\n      dup4\n        /* \"#utility.yul\":12204:12220   */\n      add\n        /* \"#utility.yul\":12198:12221   */\n      mload\n        /* \"#utility.yul\":12268:12271   */\n      dup5\n        /* \"#utility.yul\":12262:12266   */\n      dup3\n        /* \"#utility.yul\":12258:12272   */\n      sub\n        /* \"#utility.yul\":12251:12255   */\n      0x20\n        /* \"#utility.yul\":12246:12249   */\n      dup7\n        /* \"#utility.yul\":12242:12256   */\n      add\n        /* \"#utility.yul\":12235:12273   */\n      mstore\n        /* \"#utility.yul\":12294:12367   */\n      tag_346\n        /* \"#utility.yul\":12362:12366   */\n      dup3\n        /* \"#utility.yul\":12348:12360   */\n      dup3\n        /* \"#utility.yul\":12294:12367   */\n      tag_174\n      jump\t// in\n    tag_346:\n        /* \"#utility.yul\":12286:12367   */\n      swap2\n      pop\n        /* \"#utility.yul\":12140:12378   */\n      pop\n        /* \"#utility.yul\":12464:12468   */\n      0x40\n        /* \"#utility.yul\":12457:12462   */\n      dup4\n        /* \"#utility.yul\":12453:12469   */\n      add\n        /* \"#utility.yul\":12447:12470   */\n      mload\n        /* \"#utility.yul\":12517:12520   */\n      dup5\n        /* \"#utility.yul\":12511:12515   */\n      dup3\n        /* \"#utility.yul\":12507:12521   */\n      sub\n        /* \"#utility.yul\":12500:12504   */\n      0x40\n        /* \"#utility.yul\":12495:12498   */\n      dup7\n        /* \"#utility.yul\":12491:12505   */\n      add\n        /* \"#utility.yul\":12484:12522   */\n      mstore\n        /* \"#utility.yul\":12543:12646   */\n      tag_347\n        /* \"#utility.yul\":12641:12645   */\n      dup3\n        /* \"#utility.yul\":12627:12639   */\n      dup3\n        /* \"#utility.yul\":12543:12646   */\n      tag_181\n      jump\t// in\n    tag_347:\n        /* \"#utility.yul\":12535:12646   */\n      swap2\n      pop\n        /* \"#utility.yul\":12388:12657   */\n      pop\n        /* \"#utility.yul\":12741:12745   */\n      0x60\n        /* \"#utility.yul\":12734:12739   */\n      dup4\n        /* \"#utility.yul\":12730:12746   */\n      add\n        /* \"#utility.yul\":12724:12747   */\n      mload\n        /* \"#utility.yul\":12760:12829   */\n      tag_348\n        /* \"#utility.yul\":12823:12827   */\n      0x60\n        /* \"#utility.yul\":12818:12821   */\n      dup7\n        /* \"#utility.yul\":12814:12828   */\n      add\n        /* \"#utility.yul\":12800:12812   */\n      dup3\n        /* \"#utility.yul\":12760:12829   */\n      tag_182\n      jump\t// in\n    tag_348:\n        /* \"#utility.yul\":12667:12839   */\n      pop\n        /* \"#utility.yul\":12856:12860   */\n      dup1\n        /* \"#utility.yul\":12849:12860   */\n      swap2\n      pop\n        /* \"#utility.yul\":11916:12866   */\n      pop\n        /* \"#utility.yul\":11800:12866   */\n      swap3\n      swap2\n      pop\n      pop\n      jump\t// out\n        /* \"#utility.yul\":12872:13229   */\n    tag_36:\n        /* \"#utility.yul\":13007:13011   */\n      0x00\n        /* \"#utility.yul\":13045:13047   */\n      0x20\n        /* \"#utility.yul\":13034:13043   */\n      dup3\n        /* \"#utility.yul\":13030:13048   */\n      add\n        /* \"#utility.yul\":13022:13048   */\n      swap1\n      pop\n        /* \"#utility.yul\":13094:13103   */\n      dup2\n        /* \"#utility.yul\":13088:13092   */\n      dup2\n        /* \"#utility.yul\":13084:13104   */\n      sub\n        /* \"#utility.yul\":13080:13081   */\n      0x00\n        /* \"#utility.yul\":13069:13078   */\n      dup4\n        /* \"#utility.yul\":13065:13082   */\n      add\n        /* \"#utility.yul\":13058:13105   */\n      mstore\n        /* \"#utility.yul\":13122:13222   */\n      tag_350\n        /* \"#utility.yul\":13217:13221   */\n      dup2\n        /* \"#utility.yul\":13208:13214   */\n      dup5\n        /* \"#utility.yul\":13122:13222   */\n      tag_183\n      jump\t// in\n    tag_350:\n        /* \"#utility.yul\":13114:13222   */\n      swap1\n      pop\n        /* \"#utility.yul\":12872:13229   */\n      swap3\n      swap2\n      pop\n      pop\n      jump\t// out\n        /* \"#utility.yul\":13235:13406   */\n    tag_184:\n        /* \"#utility.yul\":13375:13398   */\n      0x4e6f7420612076616c6964206f726465722069642e0000000000000000000000\n        /* \"#utility.yul\":13371:13372   */\n      0x00\n        /* \"#utility.yul\":13363:13369   */\n      dup3\n        /* \"#utility.yul\":13359:13373   */\n      add\n        /* \"#utility.yul\":13352:13399   */\n      mstore\n        /* \"#utility.yul\":13235:13406   */\n      pop\n      jump\t// out\n        /* \"#utility.yul\":13412:13778   */\n    tag_185:\n        /* \"#utility.yul\":13554:13557   */\n      0x00\n        /* \"#utility.yul\":13575:13642   */\n      tag_353\n        /* \"#utility.yul\":13639:13641   */\n      0x15\n        /* \"#utility.yul\":13634:13637   */\n      dup4\n        /* \"#utility.yul\":13575:13642   */\n      tag_165\n      jump\t// in\n    tag_353:\n        /* \"#utility.yul\":13568:13642   */\n      swap2\n      pop\n        /* \"#utility.yul\":13651:13744   */\n      tag_354\n        /* \"#utility.yul\":13740:13743   */\n      dup3\n        /* \"#utility.yul\":13651:13744   */\n      tag_184\n      jump\t// in\n    tag_354:\n        /* \"#utility.yul\":13769:13771   */\n      0x20\n        /* \"#utility.yul\":13764:13767   */\n      dup3\n        /* \"#utility.yul\":13760:13772   */\n      add\n        /* \"#utility.yul\":13753:13772   */\n      swap1\n      pop\n        /* \"#utility.yul\":13412:13778   */\n      swap2\n      swap1\n      pop\n      jump\t// out\n        /* \"#utility.yul\":13784:14203   */\n    tag_40:\n        /* \"#utility.yul\":13950:13954   */\n      0x00\n        /* \"#utility.yul\":13988:13990   */\n      0x20\n        /* \"#utility.yul\":13977:13986   */\n      dup3\n        /* \"#utility.yul\":13973:13991   */\n      add\n        /* \"#utility.yul\":13965:13991   */\n      swap1\n      pop\n        /* \"#utility.yul\":14037:14046   */\n      dup2\n        /* \"#utility.yul\":14031:14035   */\n      dup2\n        /* \"#utility.yul\":14027:14047   */\n      sub\n        /* \"#utility.yul\":14023:14024   */\n      0x00\n        /* \"#utility.yul\":14012:14021   */\n      dup4\n        /* \"#utility.yul\":14008:14025   */\n      add\n        /* \"#utility.yul\":14001:14048   */\n      mstore\n        /* \"#utility.yul\":14065:14196   */\n      tag_356\n        /* \"#utility.yul\":14191:14195   */\n      dup2\n        /* \"#utility.yul\":14065:14196   */\n      tag_185\n      jump\t// in\n    tag_356:\n        /* \"#utility.yul\":14057:14196   */\n      swap1\n      pop\n        /* \"#utility.yul\":13784:14203   */\n      swap2\n      swap1\n      pop\n      jump\t// out\n        /* \"#utility.yul\":14209:14389   */\n    tag_43:\n        /* \"#utility.yul\":14257:14334   */\n      0x4e487b7100000000000000000000000000000000000000000000000000000000\n        /* \"#utility.yul\":14254:14255   */\n      0x00\n        /* \"#utility.yul\":14247:14335   */\n      mstore\n        /* \"#utility.yul\":14354:14358   */\n      0x32\n        /* \"#utility.yul\":14351:14352   */\n      0x04\n        /* \"#utility.yul\":14344:14359   */\n      mstore\n        /* \"#utility.yul\":14378:14382   */\n      0x24\n        /* \"#utility.yul\":14375:14376   */\n      0x00\n        /* \"#utility.yul\":14368:14383   */\n      revert\n        /* \"#utility.yul\":14395:14617   */\n    tag_186:\n        /* \"#utility.yul\":14535:14569   */\n      0x596f7520617265206e6f7420746865206f776e6572206f6620746865206f7264\n        /* \"#utility.yul\":14531:14532   */\n      0x00\n        /* \"#utility.yul\":14523:14529   */\n      dup3\n        /* \"#utility.yul\":14519:14533   */\n      add\n        /* \"#utility.yul\":14512:14570   */\n      mstore\n        /* \"#utility.yul\":14604:14609   */\n      0x65722e0000000000000000000000000000000000000000000000000000000000\n        /* \"#utility.yul\":14599:14601   */\n      0x20\n        /* \"#utility.yul\":14591:14597   */\n      dup3\n        /* \"#utility.yul\":14587:14602   */\n      add\n        /* \"#utility.yul\":14580:14610   */\n      mstore\n        /* \"#utility.yul\":14395:14617   */\n      pop\n      jump\t// out\n        /* \"#utility.yul\":14623:14989   */\n    tag_187:\n        /* \"#utility.yul\":14765:14768   */\n      0x00\n        /* \"#utility.yul\":14786:14853   */\n      tag_360\n        /* \"#utility.yul\":14850:14852   */\n      0x23\n        /* \"#utility.yul\":14845:14848   */\n      dup4\n        /* \"#utility.yul\":14786:14853   */\n      tag_165\n      jump\t// in\n    tag_360:\n        /* \"#utility.yul\":14779:14853   */\n      swap2\n      pop\n        /* \"#utility.yul\":14862:14955   */\n      tag_361\n        /* \"#utility.yul\":14951:14954   */\n      dup3\n        /* \"#utility.yul\":14862:14955   */\n      tag_186\n      jump\t// in\n    tag_361:\n        /* \"#utility.yul\":14980:14982   */\n      0x40\n        /* \"#utility.yul\":14975:14978   */\n      dup3\n        /* \"#utility.yul\":14971:14983   */\n      add\n        /* \"#utility.yul\":14964:14983   */\n      swap1\n      pop\n        /* \"#utility.yul\":14623:14989   */\n      swap2\n      swap1\n      pop\n      jump\t// out\n        /* \"#utility.yul\":14995:15414   */\n    tag_47:\n        /* \"#utility.yul\":15161:15165   */\n      0x00\n        /* \"#utility.yul\":15199:15201   */\n      0x20\n        /* \"#utility.yul\":15188:15197   */\n      dup3\n        /* \"#utility.yul\":15184:15202   */\n      add\n        /* \"#utility.yul\":15176:15202   */\n      swap1\n      pop\n        /* \"#utility.yul\":15248:15257   */\n      dup2\n        /* \"#utility.yul\":15242:15246   */\n      dup2\n        /* \"#utility.yul\":15238:15258   */\n      sub\n        /* \"#utility.yul\":15234:15235   */\n      0x00\n        /* \"#utility.yul\":15223:15232   */\n      dup4\n        /* \"#utility.yul\":15219:15236   */\n      add\n        /* \"#utility.yul\":15212:15259   */\n      mstore\n        /* \"#utility.yul\":15276:15407   */\n      tag_363\n        /* \"#utility.yul\":15402:15406   */\n      dup2\n        /* \"#utility.yul\":15276:15407   */\n      tag_187\n      jump\t// in\n    tag_363:\n        /* \"#utility.yul\":15268:15407   */\n      swap1\n      pop\n        /* \"#utility.yul\":14995:15414   */\n      swap2\n      swap1\n      pop\n      jump\t// out\n        /* \"#utility.yul\":15420:15600   */\n    tag_188:\n        /* \"#utility.yul\":15468:15545   */\n      0x4e487b7100000000000000000000000000000000000000000000000000000000\n        /* \"#utility.yul\":15465:15466   */\n      0x00\n        /* \"#utility.yul\":15458:15546   */\n      mstore\n        /* \"#utility.yul\":15565:15569   */\n      0x22\n        /* \"#utility.yul\":15562:15563   */\n      0x04\n        /* \"#utility.yul\":15555:15570   */\n      mstore\n        /* \"#utility.yul\":15589:15593   */\n      0x24\n        /* \"#utility.yul\":15586:15587   */\n      0x00\n        /* \"#utility.yul\":15579:15594   */\n      revert\n        /* \"#utility.yul\":15606:15926   */\n    tag_68:\n        /* \"#utility.yul\":15650:15656   */\n      0x00\n        /* \"#utility.yul\":15687:15688   */\n      0x02\n        /* \"#utility.yul\":15681:15685   */\n      dup3\n        /* \"#utility.yul\":15677:15689   */\n      div\n        /* \"#utility.yul\":15667:15689   */\n      swap1\n      pop\n        /* \"#utility.yul\":15734:15735   */\n      0x01\n        /* \"#utility.yul\":15728:15732   */\n      dup3\n        /* \"#utility.yul\":15724:15736   */\n      and\n        /* \"#utility.yul\":15755:15773   */\n      dup1\n        /* \"#utility.yul\":15745:15826   */\n      tag_366\n      jumpi\n        /* \"#utility.yul\":15811:15815   */\n      0x7f\n        /* \"#utility.yul\":15803:15809   */\n      dup3\n        /* \"#utility.yul\":15799:15816   */\n      and\n        /* \"#utility.yul\":15789:15816   */\n      swap2\n      pop\n        /* \"#utility.yul\":15745:15826   */\n    tag_366:\n        /* \"#utility.yul\":15873:15875   */\n      0x20\n        /* \"#utility.yul\":15865:15871   */\n      dup3\n        /* \"#utility.yul\":15862:15876   */\n      lt\n        /* \"#utility.yul\":15842:15860   */\n      dup2\n        /* \"#utility.yul\":15839:15877   */\n      sub\n        /* \"#utility.yul\":15836:15920   */\n      tag_367\n      jumpi\n        /* \"#utility.yul\":15892:15910   */\n      tag_368\n      tag_188\n      jump\t// in\n    tag_368:\n        /* \"#utility.yul\":15836:15920   */\n    tag_367:\n        /* \"#utility.yul\":15657:15926   */\n      pop\n        /* \"#utility.yul\":15606:15926   */\n      swap2\n      swap1\n      pop\n      jump\t// out\n        /* \"#utility.yul\":15932:16073   */\n    tag_189:\n        /* \"#utility.yul\":15981:15985   */\n      0x00\n        /* \"#utility.yul\":16004:16007   */\n      dup2\n        /* \"#utility.yul\":15996:16007   */\n      swap1\n      pop\n        /* \"#utility.yul\":16027:16030   */\n      dup2\n        /* \"#utility.yul\":16024:16025   */\n      0x00\n        /* \"#utility.yul\":16017:16031   */\n      mstore\n        /* \"#utility.yul\":16061:16065   */\n      0x20\n        /* \"#utility.yul\":16058:16059   */\n      0x00\n        /* \"#utility.yul\":16048:16066   */\n      keccak256\n        /* \"#utility.yul\":16040:16066   */\n      swap1\n      pop\n        /* \"#utility.yul\":15932:16073   */\n      swap2\n      swap1\n      pop\n      jump\t// out\n        /* \"#utility.yul\":16079:16172   */\n    tag_190:\n        /* \"#utility.yul\":16116:16122   */\n      0x00\n        /* \"#utility.yul\":16163:16165   */\n      0x20\n        /* \"#utility.yul\":16158:16160   */\n      0x1f\n        /* \"#utility.yul\":16151:16156   */\n      dup4\n        /* \"#utility.yul\":16147:16161   */\n      add\n        /* \"#utility.yul\":16143:16166   */\n      div\n        /* \"#utility.yul\":16133:16166   */\n      swap1\n      pop\n        /* \"#utility.yul\":16079:16172   */\n      swap2\n      swap1\n      pop\n      jump\t// out\n        /* \"#utility.yul\":16178:16285   */\n    tag_191:\n        /* \"#utility.yul\":16222:16230   */\n      0x00\n        /* \"#utility.yul\":16272:16277   */\n      dup3\n        /* \"#utility.yul\":16266:16270   */\n      dup3\n        /* \"#utility.yul\":16262:16278   */\n      shl\n        /* \"#utility.yul\":16241:16278   */\n      swap1\n      pop\n        /* \"#utility.yul\":16178:16285   */\n      swap3\n      swap2\n      pop\n      pop\n      jump\t// out\n        /* \"#utility.yul\":16291:16684   */\n    tag_192:\n        /* \"#utility.yul\":16360:16366   */\n      0x00\n        /* \"#utility.yul\":16410:16411   */\n      0x08\n        /* \"#utility.yul\":16398:16408   */\n      dup4\n        /* \"#utility.yul\":16394:16412   */\n      mul\n        /* \"#utility.yul\":16433:16530   */\n      tag_373\n        /* \"#utility.yul\":16463:16529   */\n      0xffffffffffffffffffffffffffffffffffffffffffffffffffffffffffffffff\n        /* \"#utility.yul\":16452:16461   */\n      dup3\n        /* \"#utility.yul\":16433:16530   */\n      tag_191\n      jump\t// in\n    tag_373:\n        /* \"#utility.yul\":16551:16590   */\n      tag_374\n        /* \"#utility.yul\":16581:16589   */\n      dup7\n        /* \"#utility.yul\":16570:16579   */\n      dup4\n        /* \"#utility.yul\":16551:16590   */\n      tag_191\n      jump\t// in\n    tag_374:\n        /* \"#utility.yul\":16539:16590   */\n      swap6\n      pop\n        /* \"#utility.yul\":16623:16627   */\n      dup1\n        /* \"#utility.yul\":16619:16628   */\n      not\n        /* \"#utility.yul\":16612:16617   */\n      dup5\n        /* \"#utility.yul\":16608:16629   */\n      and\n        /* \"#utility.yul\":16599:16629   */\n      swap4\n      pop\n        /* \"#utility.yul\":16672:16676   */\n      dup1\n        /* \"#utility.yul\":16662:16670   */\n      dup7\n        /* \"#utility.yul\":16658:16677   */\n      and\n        /* \"#utility.yul\":16651:16656   */\n      dup5\n        /* \"#utility.yul\":16648:16678   */\n      or\n        /* \"#utility.yul\":16638:16678   */\n      swap3\n      pop\n        /* \"#utility.yul\":16367:16684   */\n      pop\n      pop\n        /* \"#utility.yul\":16291:16684   */\n      swap4\n      swap3\n      pop\n      pop\n      pop\n      jump\t// out\n        /* \"#utility.yul\":16690:16750   */\n    tag_193:\n        /* \"#utility.yul\":16718:16721   */\n      0x00\n        /* \"#utility.yul\":16739:16744   */\n      dup2\n        /* \"#utility.yul\":16732:16744   */\n      swap1\n      pop\n        /* \"#utility.yul\":16690:16750   */\n      swap2\n      swap1\n      pop\n      jump\t// out\n        /* \"#utility.yul\":16756:16898   */\n    tag_194:\n        /* \"#utility.yul\":16806:16815   */\n      0x00\n        /* \"#utility.yul\":16839:16892   */\n      tag_377\n        /* \"#utility.yul\":16857:16891   */\n      tag_378\n        /* \"#utility.yul\":16866:16890   */\n      tag_379\n        /* \"#utility.yul\":16884:16889   */\n      dup5\n        /* \"#utility.yul\":16866:16890   */\n      tag_143\n      jump\t// in\n    tag_379:\n        /* \"#utility.yul\":16857:16891   */\n      tag_193\n      jump\t// in\n    tag_378:\n        /* \"#utility.yul\":16839:16892   */\n      tag_143\n      jump\t// in\n    tag_377:\n        /* \"#utility.yul\":16826:16892   */\n      swap1\n      pop\n        /* \"#utility.yul\":16756:16898   */\n      swap2\n      swap1\n      pop\n      jump\t// out\n        /* \"#utility.yul\":16904:16979   */\n    tag_195:\n        /* \"#utility.yul\":16947:16950   */\n      0x00\n        /* \"#utility.yul\":16968:16973   */\n      dup2\n        /* \"#utility.yul\":16961:16973   */\n      swap1\n      pop\n        /* \"#utility.yul\":16904:16979   */\n      swap2\n      swap1\n      pop\n      jump\t// out\n        /* \"#utility.yul\":16985:17254   */\n    tag_196:\n        /* \"#utility.yul\":17095:17134   */\n      tag_382\n        /* \"#utility.yul\":17126:17133   */\n      dup4\n        /* \"#utility.yul\":17095:17134   */\n      tag_194\n      jump\t// in\n    tag_382:\n        /* \"#utility.yul\":17156:17247   */\n      tag_383\n        /* \"#utility.yul\":17205:17246   */\n      tag_384\n        /* \"#utility.yul\":17229:17245   */\n      dup3\n        /* \"#utility.yul\":17205:17246   */\n      tag_195\n      jump\t// in\n    tag_384:\n        /* \"#utility.yul\":17197:17203   */\n      dup5\n        /* \"#utility.yul\":17190:17194   */\n      dup5\n        /* \"#utility.yul\":17184:17195   */\n      sload\n        /* \"#utility.yul\":17156:17247   */\n      tag_192\n      jump\t// in\n    tag_383:\n        /* \"#utility.yul\":17150:17154   */\n      dup3\n        /* \"#utility.yul\":17143:17248   */\n      sstore\n        /* \"#utility.yul\":17061:17254   */\n      pop\n        /* \"#utility.yul\":16985:17254   */\n      pop\n      pop\n      pop\n      jump\t// out\n        /* \"#utility.yul\":17260:17333   */\n    tag_197:\n        /* \"#utility.yul\":17305:17308   */\n      0x00\n        /* \"#utility.yul\":17260:17333   */\n      swap1\n      jump\t// out\n        /* \"#utility.yul\":17339:17528   */\n    tag_198:\n        /* \"#utility.yul\":17416:17448   */\n      tag_387\n      tag_197\n      jump\t// in\n    tag_387:\n        /* \"#utility.yul\":17457:17522   */\n      tag_388\n        /* \"#utility.yul\":17515:17521   */\n      dup2\n        /* \"#utility.yul\":17507:17513   */\n      dup5\n        /* \"#utility.yul\":17501:17505   */\n      dup5\n        /* \"#utility.yul\":17457:17522   */\n      tag_196\n      jump\t// in\n    tag_388:\n        /* \"#utility.yul\":17392:17528   */\n      pop\n        /* \"#utility.yul\":17339:17528   */\n      pop\n      pop\n      jump\t// out\n        /* \"#utility.yul\":17534:17720   */\n    tag_199:\n        /* \"#utility.yul\":17594:17714   */\n    tag_390:\n        /* \"#utility.yul\":17611:17614   */\n      dup2\n        /* \"#utility.yul\":17604:17609   */\n      dup2\n        /* \"#utility.yul\":17601:17615   */\n      lt\n        /* \"#utility.yul\":17594:17714   */\n      iszero\n      tag_392\n      jumpi\n        /* \"#utility.yul\":17665:17704   */\n      tag_393\n        /* \"#utility.yul\":17702:17703   */\n      0x00\n        /* \"#utility.yul\":17695:17700   */\n      dup3\n        /* \"#utility.yul\":17665:17704   */\n      tag_198\n      jump\t// in\n    tag_393:\n        /* \"#utility.yul\":17638:17639   */\n      0x01\n        /* \"#utility.yul\":17631:17636   */\n      dup2\n        /* \"#utility.yul\":17627:17640   */\n      add\n        /* \"#utility.yul\":17618:17640   */\n      swap1\n      pop\n        /* \"#utility.yul\":17594:17714   */\n      jump(tag_390)\n    tag_392:\n        /* \"#utility.yul\":17534:17720   */\n      pop\n      pop\n      jump\t// out\n        /* \"#utility.yul\":17726:18269   */\n    tag_200:\n        /* \"#utility.yul\":17827:17829   */\n      0x1f\n        /* \"#utility.yul\":17822:17825   */\n      dup3\n        /* \"#utility.yul\":17819:17830   */\n      gt\n        /* \"#utility.yul\":17816:18262   */\n      iszero\n      tag_395\n      jumpi\n        /* \"#utility.yul\":17861:17899   */\n      tag_396\n        /* \"#utility.yul\":17893:17898   */\n      dup2\n        /* \"#utility.yul\":17861:17899   */\n      tag_189\n      jump\t// in\n    tag_396:\n        /* \"#utility.yul\":17945:17974   */\n      tag_397\n        /* \"#utility.yul\":17963:17973   */\n      dup5\n        /* \"#utility.yul\":17945:17974   */\n      tag_190\n      jump\t// in\n    tag_397:\n        /* \"#utility.yul\":17935:17943   */\n      dup2\n        /* \"#utility.yul\":17931:17975   */\n      add\n        /* \"#utility.yul\":18128:18130   */\n      0x20\n        /* \"#utility.yul\":18116:18126   */\n      dup6\n        /* \"#utility.yul\":18113:18131   */\n      lt\n        /* \"#utility.yul\":18110:18159   */\n      iszero\n      tag_398\n      jumpi\n        /* \"#utility.yul\":18149:18157   */\n      dup2\n        /* \"#utility.yul\":18134:18157   */\n      swap1\n      pop\n        /* \"#utility.yul\":18110:18159   */\n    tag_398:\n        /* \"#utility.yul\":18172:18252   */\n      tag_399\n        /* \"#utility.yul\":18228:18250   */\n      tag_400\n        /* \"#utility.yul\":18246:18249   */\n      dup6\n        /* \"#utility.yul\":18228:18250   */\n      tag_190\n      jump\t// in\n    tag_400:\n        /* \"#utility.yul\":18218:18226   */\n      dup4\n        /* \"#utility.yul\":18214:18251   */\n      add\n        /* \"#utility.yul\":18201:18212   */\n      dup3\n        /* \"#utility.yul\":18172:18252   */\n      tag_199\n      jump\t// in\n    tag_399:\n        /* \"#utility.yul\":17831:18262   */\n      pop\n      pop\n        /* \"#utility.yul\":17816:18262   */\n    tag_395:\n        /* \"#utility.yul\":17726:18269   */\n      pop\n      pop\n      pop\n      jump\t// out\n        /* \"#utility.yul\":18275:18392   */\n    tag_201:\n        /* \"#utility.yul\":18329:18337   */\n      0x00\n        /* \"#utility.yul\":18379:18384   */\n      dup3\n        /* \"#utility.yul\":18373:18377   */\n      dup3\n        /* \"#utility.yul\":18369:18385   */\n      shr\n        /* \"#utility.yul\":18348:18385   */\n      swap1\n      pop\n        /* \"#utility.yul\":18275:18392   */\n      swap3\n      swap2\n      pop\n      pop\n      jump\t// out\n        /* \"#utility.yul\":18398:18567   */\n    tag_202:\n        /* \"#utility.yul\":18442:18448   */\n      0x00\n        /* \"#utility.yul\":18475:18526   */\n      tag_403\n        /* \"#utility.yul\":18523:18524   */\n      0x00\n        /* \"#utility.yul\":18519:18525   */\n      not\n        /* \"#utility.yul\":18511:18516   */\n      dup5\n        /* \"#utility.yul\":18508:18509   */\n      0x08\n        /* \"#utility.yul\":18504:18517   */\n      mul\n        /* \"#utility.yul\":18475:18526   */\n      tag_201\n      jump\t// in\n    tag_403:\n        /* \"#utility.yul\":18471:18527   */\n      not\n        /* \"#utility.yul\":18556:18560   */\n      dup1\n        /* \"#utility.yul\":18550:18554   */\n      dup4\n        /* \"#utility.yul\":18546:18561   */\n      and\n        /* \"#utility.yul\":18536:18561   */\n      swap2\n      pop\n        /* \"#utility.yul\":18449:18567   */\n      pop\n        /* \"#utility.yul\":18398:18567   */\n      swap3\n      swap2\n      pop\n      pop\n      jump\t// out\n        /* \"#utility.yul\":18572:18867   */\n    tag_203:\n        /* \"#utility.yul\":18648:18652   */\n      0x00\n        /* \"#utility.yul\":18794:18823   */\n      tag_405\n        /* \"#utility.yul\":18819:18822   */\n      dup4\n        /* \"#utility.yul\":18813:18817   */\n      dup4\n        /* \"#utility.yul\":18794:18823   */\n      tag_202\n      jump\t// in\n    tag_405:\n        /* \"#utility.yul\":18786:18823   */\n      swap2\n      pop\n        /* \"#utility.yul\":18856:18859   */\n      dup3\n        /* \"#utility.yul\":18853:18854   */\n      0x02\n        /* \"#utility.yul\":18849:18860   */\n      mul\n        /* \"#utility.yul\":18843:18847   */\n      dup3\n        /* \"#utility.yul\":18840:18861   */\n      or\n        /* \"#utility.yul\":18832:18861   */\n      swap1\n      pop\n        /* \"#utility.yul\":18572:18867   */\n      swap3\n      swap2\n      pop\n      pop\n      jump\t// out\n        /* \"#utility.yul\":18872:20267   */\n    tag_49:\n        /* \"#utility.yul\":18989:19026   */\n      tag_407\n        /* \"#utility.yul\":19022:19025   */\n      dup3\n        /* \"#utility.yul\":18989:19026   */\n      tag_164\n      jump\t// in\n    tag_407:\n        /* \"#utility.yul\":19091:19109   */\n      0xffffffffffffffff\n        /* \"#utility.yul\":19083:19089   */\n      dup2\n        /* \"#utility.yul\":19080:19110   */\n      gt\n        /* \"#utility.yul\":19077:19133   */\n      iszero\n      tag_408\n      jumpi\n        /* \"#utility.yul\":19113:19131   */\n      tag_409\n      tag_149\n      jump\t// in\n    tag_409:\n        /* \"#utility.yul\":19077:19133   */\n    tag_408:\n        /* \"#utility.yul\":19157:19195   */\n      tag_410\n        /* \"#utility.yul\":19189:19193   */\n      dup3\n        /* \"#utility.yul\":19183:19194   */\n      sload\n        /* \"#utility.yul\":19157:19195   */\n      tag_68\n      jump\t// in\n    tag_410:\n        /* \"#utility.yul\":19242:19309   */\n      tag_411\n        /* \"#utility.yul\":19302:19308   */\n      dup3\n        /* \"#utility.yul\":19294:19300   */\n      dup3\n        /* \"#utility.yul\":19288:19292   */\n      dup6\n        /* \"#utility.yul\":19242:19309   */\n      tag_200\n      jump\t// in\n    tag_411:\n        /* \"#utility.yul\":19336:19337   */\n      0x00\n        /* \"#utility.yul\":19360:19364   */\n      0x20\n        /* \"#utility.yul\":19347:19364   */\n      swap1\n      pop\n        /* \"#utility.yul\":19392:19394   */\n      0x1f\n        /* \"#utility.yul\":19384:19390   */\n      dup4\n        /* \"#utility.yul\":19381:19395   */\n      gt\n        /* \"#utility.yul\":19409:19410   */\n      0x01\n        /* \"#utility.yul\":19404:20022   */\n      dup2\n      eq\n      tag_413\n      jumpi\n        /* \"#utility.yul\":20066:20067   */\n      0x00\n        /* \"#utility.yul\":20083:20089   */\n      dup5\n        /* \"#utility.yul\":20080:20157   */\n      iszero\n      tag_414\n      jumpi\n        /* \"#utility.yul\":20132:20141   */\n      dup3\n        /* \"#utility.yul\":20127:20130   */\n      dup8\n        /* \"#utility.yul\":20123:20142   */\n      add\n        /* \"#utility.yul\":20117:20143   */\n      mload\n        /* \"#utility.yul\":20108:20143   */\n      swap1\n      pop\n        /* \"#utility.yul\":20080:20157   */\n    tag_414:\n        /* \"#utility.yul\":20183:20250   */\n      tag_415\n        /* \"#utility.yul\":20243:20249   */\n      dup6\n        /* \"#utility.yul\":20236:20241   */\n      dup3\n        /* \"#utility.yul\":20183:20250   */\n      tag_203\n      jump\t// in\n    tag_415:\n        /* \"#utility.yul\":20177:20181   */\n      dup7\n        /* \"#utility.yul\":20170:20251   */\n      sstore\n        /* \"#utility.yul\":20039:20261   */\n      pop\n        /* \"#utility.yul\":19374:20261   */\n      jump(tag_412)\n        /* \"#utility.yul\":19404:20022   */\n    tag_413:\n        /* \"#utility.yul\":19456:19460   */\n      0x1f\n        /* \"#utility.yul\":19452:19461   */\n      not\n        /* \"#utility.yul\":19444:19450   */\n      dup5\n        /* \"#utility.yul\":19440:19462   */\n      and\n        /* \"#utility.yul\":19490:19527   */\n      tag_416\n        /* \"#utility.yul\":19522:19526   */\n      dup7\n        /* \"#utility.yul\":19490:19527   */\n      tag_189\n      jump\t// in\n    tag_416:\n        /* \"#utility.yul\":19549:19550   */\n      0x00\n        /* \"#utility.yul\":19563:19771   */\n    tag_417:\n        /* \"#utility.yul\":19577:19584   */\n      dup3\n        /* \"#utility.yul\":19574:19575   */\n      dup2\n        /* \"#utility.yul\":19571:19585   */\n      lt\n        /* \"#utility.yul\":19563:19771   */\n      iszero\n      tag_419\n      jumpi\n        /* \"#utility.yul\":19656:19665   */\n      dup5\n        /* \"#utility.yul\":19651:19654   */\n      dup10\n        /* \"#utility.yul\":19647:19666   */\n      add\n        /* \"#utility.yul\":19641:19667   */\n      mload\n        /* \"#utility.yul\":19633:19639   */\n      dup3\n        /* \"#utility.yul\":19626:19668   */\n      sstore\n        /* \"#utility.yul\":19707:19708   */\n      0x01\n        /* \"#utility.yul\":19699:19705   */\n      dup3\n        /* \"#utility.yul\":19695:19709   */\n      add\n        /* \"#utility.yul\":19685:19709   */\n      swap2\n      pop\n        /* \"#utility.yul\":19754:19756   */\n      0x20\n        /* \"#utility.yul\":19743:19752   */\n      dup6\n        /* \"#utility.yul\":19739:19757   */\n      add\n        /* \"#utility.yul\":19726:19757   */\n      swap5\n      pop\n        /* \"#utility.yul\":19600:19604   */\n      0x20\n        /* \"#utility.yul\":19597:19598   */\n      dup2\n        /* \"#utility.yul\":19593:19605   */\n      add\n        /* \"#utility.yul\":19588:19605   */\n      swap1\n      pop\n        /* \"#utility.yul\":19563:19771   */\n      jump(tag_417)\n    tag_419:\n        /* \"#utility.yul\":19799:19805   */\n      dup7\n        /* \"#utility.yul\":19790:19797   */\n      dup4\n        /* \"#utility.yul\":19787:19806   */\n      lt\n        /* \"#utility.yul\":19784:19963   */\n      iszero\n      tag_420\n      jumpi\n        /* \"#utility.yul\":19857:19866   */\n      dup5\n        /* \"#utility.yul\":19852:19855   */\n      dup10\n        /* \"#utility.yul\":19848:19867   */\n      add\n        /* \"#utility.yul\":19842:19868   */\n      mload\n        /* \"#utility.yul\":19900:19948   */\n      tag_421\n        /* \"#utility.yul\":19942:19946   */\n      0x1f\n        /* \"#utility.yul\":19934:19940   */\n      dup10\n        /* \"#utility.yul\":19930:19947   */\n      and\n        /* \"#utility.yul\":19919:19928   */\n      dup3\n        /* \"#utility.yul\":19900:19948   */\n      tag_202\n      jump\t// in\n    tag_421:\n        /* \"#utility.yul\":19892:19898   */\n      dup4\n        /* \"#utility.yul\":19885:19949   */\n      sstore\n        /* \"#utility.yul\":19807:19963   */\n      pop\n        /* \"#utility.yul\":19784:19963   */\n    tag_420:\n        /* \"#utility.yul\":20009:20010   */\n      0x01\n        /* \"#utility.yul\":20005:20006   */\n      0x02\n        /* \"#utility.yul\":19997:20003   */\n      dup9\n        /* \"#utility.yul\":19993:20007   */\n      mul\n        /* \"#utility.yul\":19989:20011   */\n      add\n        /* \"#utility.yul\":19983:19987   */\n      dup9\n        /* \"#utility.yul\":19976:20012   */\n      sstore\n        /* \"#utility.yul\":19411:20022   */\n      pop\n      pop\n      pop\n        /* \"#utility.yul\":19374:20261   */\n    tag_412:\n      pop\n        /* \"#utility.yul\":18964:20267   */\n      pop\n      pop\n      pop\n        /* \"#utility.yul\":18872:20267   */\n      pop\n      pop\n      jump\t// out\n        /* \"#utility.yul\":20273:20435   */\n    tag_204:\n        /* \"#utility.yul\":20413:20427   */\n      0x4e6f2070726f64756374732e0000000000000000000000000000000000000000\n        /* \"#utility.yul\":20409:20410   */\n      0x00\n        /* \"#utility.yul\":20401:20407   */\n      dup3\n        /* \"#utility.yul\":20397:20411   */\n      add\n        /* \"#utility.yul\":20390:20428   */\n      mstore\n        /* \"#utility.yul\":20273:20435   */\n      pop\n      jump\t// out\n        /* \"#utility.yul\":20441:20807   */\n    tag_205:\n        /* \"#utility.yul\":20583:20586   */\n      0x00\n        /* \"#utility.yul\":20604:20671   */\n      tag_424\n        /* \"#utility.yul\":20668:20670   */\n      0x0c\n        /* \"#utility.yul\":20663:20666   */\n      dup4\n        /* \"#utility.yul\":20604:20671   */\n      tag_165\n      jump\t// in\n    tag_424:\n        /* \"#utility.yul\":20597:20671   */\n      swap2\n      pop\n        /* \"#utility.yul\":20680:20773   */\n      tag_425\n        /* \"#utility.yul\":20769:20772   */\n      dup3\n        /* \"#utility.yul\":20680:20773   */\n      tag_204\n      jump\t// in\n    tag_425:\n        /* \"#utility.yul\":20798:20800   */\n      0x20\n        /* \"#utility.yul\":20793:20796   */\n      dup3\n        /* \"#utility.yul\":20789:20801   */\n      add\n        /* \"#utility.yul\":20782:20801   */\n      swap1\n      pop\n        /* \"#utility.yul\":20441:20807   */\n      swap2\n      swap1\n      pop\n      jump\t// out\n        /* \"#utility.yul\":20813:21232   */\n    tag_53:\n        /* \"#utility.yul\":20979:20983   */\n      0x00\n        /* \"#utility.yul\":21017:21019   */\n      0x20\n        /* \"#utility.yul\":21006:21015   */\n      dup3\n        /* \"#utility.yul\":21002:21020   */\n      add\n        /* \"#utility.yul\":20994:21020   */\n      swap1\n      pop\n        /* \"#utility.yul\":21066:21075   */\n      dup2\n        /* \"#utility.yul\":21060:21064   */\n      dup2\n        /* \"#utility.yul\":21056:21076   */\n      sub\n        /* \"#utility.yul\":21052:21053   */\n      0x00\n        /* \"#utility.yul\":21041:21050   */\n      dup4\n        /* \"#utility.yul\":21037:21054   */\n      add\n        /* \"#utility.yul\":21030:21077   */\n      mstore\n        /* \"#utility.yul\":21094:21225   */\n      tag_427\n        /* \"#utility.yul\":21220:21224   */\n      dup2\n        /* \"#utility.yul\":21094:21225   */\n      tag_205\n      jump\t// in\n    tag_427:\n        /* \"#utility.yul\":21086:21225   */\n      swap1\n      pop\n        /* \"#utility.yul\":20813:21232   */\n      swap2\n      swap1\n      pop\n      jump\t// out\n        /* \"#utility.yul\":21238:21418   */\n    tag_206:\n        /* \"#utility.yul\":21286:21363   */\n      0x4e487b7100000000000000000000000000000000000000000000000000000000\n        /* \"#utility.yul\":21283:21284   */\n      0x00\n        /* \"#utility.yul\":21276:21364   */\n      mstore\n        /* \"#utility.yul\":21383:21387   */\n      0x11\n        /* \"#utility.yul\":21380:21381   */\n      0x04\n        /* \"#utility.yul\":21373:21388   */\n      mstore\n        /* \"#utility.yul\":21407:21411   */\n      0x24\n        /* \"#utility.yul\":21404:21405   */\n      0x00\n        /* \"#utility.yul\":21397:21412   */\n      revert\n        /* \"#utility.yul\":21424:21618   */\n    tag_64:\n        /* \"#utility.yul\":21464:21468   */\n      0x00\n        /* \"#utility.yul\":21484:21504   */\n      tag_430\n        /* \"#utility.yul\":21502:21503   */\n      dup3\n        /* \"#utility.yul\":21484:21504   */\n      tag_143\n      jump\t// in\n    tag_430:\n        /* \"#utility.yul\":21479:21504   */\n      swap2\n      pop\n        /* \"#utility.yul\":21518:21538   */\n      tag_431\n        /* \"#utility.yul\":21536:21537   */\n      dup4\n        /* \"#utility.yul\":21518:21538   */\n      tag_143\n      jump\t// in\n    tag_431:\n        /* \"#utility.yul\":21513:21538   */\n      swap3\n      pop\n        /* \"#utility.yul\":21562:21563   */\n      dup3\n        /* \"#utility.yul\":21559:21560   */\n      dup3\n        /* \"#utility.yul\":21555:21564   */\n      sub\n        /* \"#utility.yul\":21547:21564   */\n      swap1\n      pop\n        /* \"#utility.yul\":21586:21587   */\n      dup2\n        /* \"#utility.yul\":21580:21584   */\n      dup2\n        /* \"#utility.yul\":21577:21588   */\n      gt\n        /* \"#utility.yul\":21574:21611   */\n      iszero\n      tag_432\n      jumpi\n        /* \"#utility.yul\":21591:21609   */\n      tag_433\n      tag_206\n      jump\t// in\n    tag_433:\n        /* \"#utility.yul\":21574:21611   */\n    tag_432:\n        /* \"#utility.yul\":21424:21618   */\n      swap3\n      swap2\n      pop\n      pop\n      jump\t// out\n        /* \"#utility.yul\":21624:21797   */\n    tag_207:\n        /* \"#utility.yul\":21764:21789   */\n      0x596f7520617265206e6f7420617574686f72697a65642e000000000000000000\n        /* \"#utility.yul\":21760:21761   */\n      0x00\n        /* \"#utility.yul\":21752:21758   */\n      dup3\n        /* \"#utility.yul\":21748:21762   */\n      add\n        /* \"#utility.yul\":21741:21790   */\n      mstore\n        /* \"#utility.yul\":21624:21797   */\n      pop\n      jump\t// out\n        /* \"#utility.yul\":21803:22169   */\n    tag_208:\n        /* \"#utility.yul\":21945:21948   */\n      0x00\n        /* \"#utility.yul\":21966:22033   */\n      tag_436\n        /* \"#utility.yul\":22030:22032   */\n      0x17\n        /* \"#utility.yul\":22025:22028   */\n      dup4\n        /* \"#utility.yul\":21966:22033   */\n      tag_165\n      jump\t// in\n    tag_436:\n        /* \"#utility.yul\":21959:22033   */\n      swap2\n      pop\n        /* \"#utility.yul\":22042:22135   */\n      tag_437\n        /* \"#utility.yul\":22131:22134   */\n      dup3\n        /* \"#utility.yul\":22042:22135   */\n      tag_207\n      jump\t// in\n    tag_437:\n        /* \"#utility.yul\":22160:22162   */\n      0x20\n        /* \"#utility.yul\":22155:22158   */\n      dup3\n        /* \"#utility.yul\":22151:22163   */\n      add\n        /* \"#utility.yul\":22144:22163   */\n      swap1\n      pop\n        /* \"#utility.yul\":21803:22169   */\n      swap2\n      swap1\n      pop\n      jump\t// out\n        /* \"#utility.yul\":22175:22594   */\n    tag_76:\n        /* \"#utility.yul\":22341:22345   */\n      0x00\n        /* \"#utility.yul\":22379:22381   */\n      0x20\n        /* \"#utility.yul\":22368:22377   */\n      dup3\n        /* \"#utility.yul\":22364:22382   */\n      add\n        /* \"#utility.yul\":22356:22382   */\n      swap1\n      pop\n        /* \"#utility.yul\":22428:22437   */\n      dup2\n        /* \"#utility.yul\":22422:22426   */\n      dup2\n        /* \"#utility.yul\":22418:22438   */\n      sub\n        /* \"#utility.yul\":22414:22415   */\n      0x00\n        /* \"#utility.yul\":22403:22412   */\n      dup4\n        /* \"#utility.yul\":22399:22416   */\n      add\n        /* \"#utility.yul\":22392:22439   */\n      mstore\n        /* \"#utility.yul\":22456:22587   */\n      tag_439\n        /* \"#utility.yul\":22582:22586   */\n      dup2\n        /* \"#utility.yul\":22456:22587   */\n      tag_208\n      jump\t// in\n    tag_439:\n        /* \"#utility.yul\":22448:22587   */\n      swap1\n      pop\n        /* \"#utility.yul\":22175:22594   */\n      swap2\n      swap1\n      pop\n      jump\t// out\n        /* \"#utility.yul\":22600:22775   */\n    tag_209:\n        /* \"#utility.yul\":22740:22767   */\n      0x4f7264657220697320616c726561647920736869707065642e00000000000000\n        /* \"#utility.yul\":22736:22737   */\n      0x00\n        /* \"#utility.yul\":22728:22734   */\n      dup3\n        /* \"#utility.yul\":22724:22738   */\n      add\n        /* \"#utility.yul\":22717:22768   */\n      mstore\n        /* \"#utility.yul\":22600:22775   */\n      pop\n      jump\t// out\n        /* \"#utility.yul\":22781:23147   */\n    tag_210:\n        /* \"#utility.yul\":22923:22926   */\n      0x00\n        /* \"#utility.yul\":22944:23011   */\n      tag_442\n        /* \"#utility.yul\":23008:23010   */\n      0x19\n        /* \"#utility.yul\":23003:23006   */\n      dup4\n        /* \"#utility.yul\":22944:23011   */\n      tag_165\n      jump\t// in\n    tag_442:\n        /* \"#utility.yul\":22937:23011   */\n      swap2\n      pop\n        /* \"#utility.yul\":23020:23113   */\n      tag_443\n        /* \"#utility.yul\":23109:23112   */\n      dup3\n        /* \"#utility.yul\":23020:23113   */\n      tag_209\n      jump\t// in\n    tag_443:\n        /* \"#utility.yul\":23138:23140   */\n      0x20\n        /* \"#utility.yul\":23133:23136   */\n      dup3\n        /* \"#utility.yul\":23129:23141   */\n      add\n        /* \"#utility.yul\":23122:23141   */\n      swap1\n      pop\n        /* \"#utility.yul\":22781:23147   */\n      swap2\n      swap1\n      pop\n      jump\t// out\n        /* \"#utility.yul\":23153:23572   */\n    tag_88:\n        /* \"#utility.yul\":23319:23323   */\n      0x00\n        /* \"#utility.yul\":23357:23359   */\n      0x20\n        /* \"#utility.yul\":23346:23355   */\n      dup3\n        /* \"#utility.yul\":23342:23360   */\n      add\n        /* \"#utility.yul\":23334:23360   */\n      swap1\n      pop\n        /* \"#utility.yul\":23406:23415   */\n      dup2\n        /* \"#utility.yul\":23400:23404   */\n      dup2\n        /* \"#utility.yul\":23396:23416   */\n      sub\n        /* \"#utility.yul\":23392:23393   */\n      0x00\n        /* \"#utility.yul\":23381:23390   */\n      dup4\n        /* \"#utility.yul\":23377:23394   */\n      add\n        /* \"#utility.yul\":23370:23417   */\n      mstore\n        /* \"#utility.yul\":23434:23565   */\n      tag_445\n        /* \"#utility.yul\":23560:23564   */\n      dup2\n        /* \"#utility.yul\":23434:23565   */\n      tag_210\n      jump\t// in\n    tag_445:\n        /* \"#utility.yul\":23426:23565   */\n      swap1\n      pop\n        /* \"#utility.yul\":23153:23572   */\n      swap2\n      swap1\n      pop\n      jump\t// out\n\n    auxdata: 0xa264697066735822122041b93d0eaa4f9d79509c9cf73e26a22f81e17b896b5437f759371bb937d0606364736f6c634300081a0033\n}\n",
				"bytecode": {
					"linkReferences": {},
					"object": "6080604052348015600e575f80fd5b503360015f6101000a81548173ffffffffffffffffffffffffffffffffffffffff021916908373ffffffffffffffffffffffffffffffffffffffff1602179055506116628061005c5f395ff3fe608060405234801561000f575f80fd5b5060043610610060575f3560e01c8063577dc0a0146100645780636d9a65d8146100805780638da5cb5b146100b0578063a85c38ef146100ce578063afe13a6214610100578063d09ef2411461011c575b5f80fd5b61007e60048036038101906100799190610bb6565b61014c565b005b61009a60048036038101906100959190610cd4565b61025b565b6040516100a79190610d59565b60405180910390f35b6100b86103d0565b6040516100c59190610db1565b60405180910390f35b6100e860048036038101906100e39190610dca565b6103f5565b6040516100f793929190610ec8565b60405180910390f35b61011a60048036038101906101159190610dca565b6104da565b005b61013660048036038101906101319190610dca565b61078f565b6040516101439190611088565b60405180910390f35b5f805490508210610192576040517f08c379a0000000000000000000000000000000000000000000000000000000008152600401610189906110f2565b60405180910390fd5b5f8083815481106101a6576101a5611110565b5b905f5260205f20906004020190503373ffffffffffffffffffffffffffffffffffffffff16815f015f9054906101000a900473ffffffffffffffffffffffffffffffffffffffff1673ffffffffffffffffffffffffffffffffffffffff1614610244576040517f08c379a000000000000000000000000000000000000000000000000000000000815260040161023b906111ad565b60405180910390fd5b8181600101908161025591906113c5565b50505050565b5f8082511161029f576040517f08c379a0000000000000000000000000000000000000000000000000000000008152600401610296906114de565b60405180910390fd5b5f60405180608001604052803373ffffffffffffffffffffffffffffffffffffffff1681526020018581526020018481526020015f60038111156102e6576102e5610e55565b5b815250908060018154018082558091505060019003905f5260205f2090600402015f909190919091505f820151815f015f6101000a81548173ffffffffffffffffffffffffffffffffffffffff021916908373ffffffffffffffffffffffffffffffffffffffff160217905550602082015181600101908161036891906113c5565b506040820151816002019080519060200190610385929190610982565b506060820151816003015f6101000a81548160ff021916908360038111156103b0576103af610e55565b5b0217905550505060015f805490506103c89190611529565b905092915050565b60015f9054906101000a900473ffffffffffffffffffffffffffffffffffffffff1681565b5f8181548110610403575f80fd5b905f5260205f2090600402015f91509050805f015f9054906101000a900473ffffffffffffffffffffffffffffffffffffffff1690806001018054610447906111f8565b80601f0160208091040260200160405190810160405280929190818152602001828054610473906111f8565b80156104be5780601f10610495576101008083540402835291602001916104be565b820191905f5260205f20905b8154815290600101906020018083116104a157829003601f168201915b505050505090806003015f9054906101000a900460ff16905083565b3373ffffffffffffffffffffffffffffffffffffffff1660015f9054906101000a900473ffffffffffffffffffffffffffffffffffffffff1673ffffffffffffffffffffffffffffffffffffffff1614610569576040517f08c379a0000000000000000000000000000000000000000000000000000000008152600401610560906115a6565b60405180910390fd5b5f8054905081106105af576040517f08c379a00000000000000000000000000000000000000000000000000000000081526004016105a6906110f2565b60405180910390fd5b5f8082815481106105c3576105c2611110565b5b905f5260205f20906004020190506003808111156105e4576105e3610e55565b5b816003015f9054906101000a900460ff16600381111561060757610606610e55565b5b03610647576040517f08c379a000000000000000000000000000000000000000000000000000000000815260040161063e9061160e565b60405180910390fd5b5f600381111561065a57610659610e55565b5b816003015f9054906101000a900460ff16600381111561067d5761067c610e55565b5b036106b3576001816003015f6101000a81548160ff021916908360038111156106a9576106a8610e55565b5b021790555061078b565b600160038111156106c7576106c6610e55565b5b816003015f9054906101000a900460ff1660038111156106ea576106e9610e55565b5b03610720576002816003015f6101000a81548160ff0219169083600381111561071657610715610e55565b5b021790555061078a565b6002600381111561073457610733610e55565b5b816003015f9054906101000a900460ff16600381111561075757610756610e55565b5b03610789576003816003015f6101000a81548160ff0219169083600381111561078357610782610e55565b5b02179055505b5b5b5050565b6107976109cd565b5f8054905082106107dd576040517f08c379a00000000000000000000000000000000000000000000000000000000081526004016107d4906110f2565b60405180910390fd5b5f82815481106107f0576107ef611110565b5b905f5260205f2090600402016040518060800160405290815f82015f9054906101000a900473ffffffffffffffffffffffffffffffffffffffff1673ffffffffffffffffffffffffffffffffffffffff1673ffffffffffffffffffffffffffffffffffffffff16815260200160018201805461086b906111f8565b80601f0160208091040260200160405190810160405280929190818152602001828054610897906111f8565b80156108e25780601f106108b9576101008083540402835291602001916108e2565b820191905f5260205f20905b8154815290600101906020018083116108c557829003601f168201915b505050505081526020016002820180548060200260200160405190810160405280929190818152602001828054801561093857602002820191905f5260205f20905b815481526020019060010190808311610924575b50505050508152602001600382015f9054906101000a900460ff16600381111561096557610964610e55565b5b600381111561097757610976610e55565b5b815250509050919050565b828054828255905f5260205f209081019282156109bc579160200282015b828111156109bb5782518255916020019190600101906109a0565b5b5090506109c99190610a1b565b5090565b60405180608001604052805f73ffffffffffffffffffffffffffffffffffffffff16815260200160608152602001606081526020015f6003811115610a1557610a14610e55565b5b81525090565b5b80821115610a32575f815f905550600101610a1c565b5090565b5f604051905090565b5f80fd5b5f80fd5b5f819050919050565b610a5981610a47565b8114610a63575f80fd5b50565b5f81359050610a7481610a50565b92915050565b5f80fd5b5f80fd5b5f601f19601f8301169050919050565b7f4e487b71000000000000000000000000000000000000000000000000000000005f52604160045260245ffd5b610ac882610a82565b810181811067ffffffffffffffff82111715610ae757610ae6610a92565b5b80604052505050565b5f610af9610a36565b9050610b058282610abf565b919050565b5f67ffffffffffffffff821115610b2457610b23610a92565b5b610b2d82610a82565b9050602081019050919050565b828183375f83830152505050565b5f610b5a610b5584610b0a565b610af0565b905082815260208101848484011115610b7657610b75610a7e565b5b610b81848285610b3a565b509392505050565b5f82601f830112610b9d57610b9c610a7a565b5b8135610bad848260208601610b48565b91505092915050565b5f8060408385031215610bcc57610bcb610a3f565b5b5f610bd985828601610a66565b925050602083013567ffffffffffffffff811115610bfa57610bf9610a43565b5b610c0685828601610b89565b9150509250929050565b5f67ffffffffffffffff821115610c2a57610c29610a92565b5b602082029050602081019050919050565b5f80fd5b5f610c51610c4c84610c10565b610af0565b90508083825260208201905060208402830185811115610c7457610c73610c3b565b5b835b81811015610c9d5780610c898882610a66565b845260208401935050602081019050610c76565b5050509392505050565b5f82601f830112610cbb57610cba610a7a565b5b8135610ccb848260208601610c3f565b91505092915050565b5f8060408385031215610cea57610ce9610a3f565b5b5f83013567ffffffffffffffff811115610d0757610d06610a43565b5b610d1385828601610b89565b925050602083013567ffffffffffffffff811115610d3457610d33610a43565b5b610d4085828601610ca7565b9150509250929050565b610d5381610a47565b82525050565b5f602082019050610d6c5f830184610d4a565b92915050565b5f73ffffffffffffffffffffffffffffffffffffffff82169050919050565b5f610d9b82610d72565b9050919050565b610dab81610d91565b82525050565b5f602082019050610dc45f830184610da2565b92915050565b5f60208284031215610ddf57610dde610a3f565b5b5f610dec84828501610a66565b91505092915050565b5f81519050919050565b5f82825260208201905092915050565b8281835e5f83830152505050565b5f610e2782610df5565b610e318185610dff565b9350610e41818560208601610e0f565b610e4a81610a82565b840191505092915050565b7f4e487b71000000000000000000000000000000000000000000000000000000005f52602160045260245ffd5b60048110610e9357610e92610e55565b5b50565b5f819050610ea382610e82565b919050565b5f610eb282610e96565b9050919050565b610ec281610ea8565b82525050565b5f606082019050610edb5f830186610da2565b8181036020830152610eed8185610e1d565b9050610efc6040830184610eb9565b949350505050565b610f0d81610d91565b82525050565b5f82825260208201905092915050565b5f610f2d82610df5565b610f378185610f13565b9350610f47818560208601610e0f565b610f5081610a82565b840191505092915050565b5f81519050919050565b5f82825260208201905092915050565b5f819050602082019050919050565b610f8d81610a47565b82525050565b5f610f9e8383610f84565b60208301905092915050565b5f602082019050919050565b5f610fc082610f5b565b610fca8185610f65565b9350610fd583610f75565b805f5b83811015611005578151610fec8882610f93565b9750610ff783610faa565b925050600181019050610fd8565b5085935050505092915050565b61101b81610ea8565b82525050565b5f608083015f8301516110365f860182610f04565b506020830151848203602086015261104e8282610f23565b915050604083015184820360408601526110688282610fb6565b915050606083015161107d6060860182611012565b508091505092915050565b5f6020820190508181035f8301526110a08184611021565b905092915050565b7f4e6f7420612076616c6964206f726465722069642e00000000000000000000005f82015250565b5f6110dc601583610dff565b91506110e7826110a8565b602082019050919050565b5f6020820190508181035f830152611109816110d0565b9050919050565b7f4e487b71000000000000000000000000000000000000000000000000000000005f52603260045260245ffd5b7f596f7520617265206e6f7420746865206f776e6572206f6620746865206f72645f8201527f65722e0000000000000000000000000000000000000000000000000000000000602082015250565b5f611197602383610dff565b91506111a28261113d565b604082019050919050565b5f6020820190508181035f8301526111c48161118b565b9050919050565b7f4e487b71000000000000000000000000000000000000000000000000000000005f52602260045260245ffd5b5f600282049050600182168061120f57607f821691505b602082108103611222576112216111cb565b5b50919050565b5f819050815f5260205f209050919050565b5f6020601f8301049050919050565b5f82821b905092915050565b5f600883026112847fffffffffffffffffffffffffffffffffffffffffffffffffffffffffffffffff82611249565b61128e8683611249565b95508019841693508086168417925050509392505050565b5f819050919050565b5f6112c96112c46112bf84610a47565b6112a6565b610a47565b9050919050565b5f819050919050565b6112e2836112af565b6112f66112ee826112d0565b848454611255565b825550505050565b5f90565b61130a6112fe565b6113158184846112d9565b505050565b5b818110156113385761132d5f82611302565b60018101905061131b565b5050565b601f82111561137d5761134e81611228565b6113578461123a565b81016020851015611366578190505b61137a6113728561123a565b83018261131a565b50505b505050565b5f82821c905092915050565b5f61139d5f1984600802611382565b1980831691505092915050565b5f6113b5838361138e565b9150826002028217905092915050565b6113ce82610df5565b67ffffffffffffffff8111156113e7576113e6610a92565b5b6113f182546111f8565b6113fc82828561133c565b5f60209050601f83116001811461142d575f841561141b578287015190505b61142585826113aa565b86555061148c565b601f19841661143b86611228565b5f5b828110156114625784890151825560018201915060208501945060208101905061143d565b8683101561147f578489015161147b601f89168261138e565b8355505b6001600288020188555050505b505050505050565b7f4e6f2070726f64756374732e00000000000000000000000000000000000000005f82015250565b5f6114c8600c83610dff565b91506114d382611494565b602082019050919050565b5f6020820190508181035f8301526114f5816114bc565b9050919050565b7f4e487b71000000000000000000000000000000000000000000000000000000005f52601160045260245ffd5b5f61153382610a47565b915061153e83610a47565b9250828203905081811115611556576115556114fc565b5b92915050565b7f596f7520617265206e6f7420617574686f72697a65642e0000000000000000005f82015250565b5f611590601783610dff565b915061159b8261155c565b602082019050919050565b5f6020820190508181035f8301526115bd81611584565b9050919050565b7f4f7264657220697320616c726561647920736869707065642e000000000000005f82015250565b5f6115f8601983610dff565b9150611603826115c4565b602082019050919050565b5f6020820190508181035f830152611625816115ec565b905091905056fea264697066735822122041b93d0eaa4f9d79509c9cf73e26a22f81e17b896b5437f759371bb937d0606364736f6c634300081a0033",
					"opcodes": "PUSH1 0x80 PUSH1 0x40 MSTORE CALLVALUE DUP1 ISZERO PUSH1 0xE JUMPI PUSH0 DUP1 REVERT JUMPDEST POP CALLER PUSH1 0x1 PUSH0 PUSH2 0x100 EXP DUP2 SLOAD DUP2 PUSH20 0xFFFFFFFFFFFFFFFFFFFFFFFFFFFFFFFFFFFFFFFF MUL NOT AND SWAP1 DUP4 PUSH20 0xFFFFFFFFFFFFFFFFFFFFFFFFFFFFFFFFFFFFFFFF AND MUL OR SWAP1 SSTORE POP PUSH2 0x1662 DUP1 PUSH2 0x5C PUSH0 CODECOPY PUSH0 RETURN INVALID PUSH1 0x80 PUSH1 0x40 MSTORE CALLVALUE DUP1 ISZERO PUSH2 0xF JUMPI PUSH0 DUP1 REVERT JUMPDEST POP PUSH1 0x4 CALLDATASIZE LT PUSH2 0x60 JUMPI PUSH0 CALLDATALOAD PUSH1 0xE0 SHR DUP1 PUSH4 0x577DC0A0 EQ PUSH2 0x64 JUMPI DUP1 PUSH4 0x6D9A65D8 EQ PUSH2 0x80 JUMPI DUP1 PUSH4 0x8DA5CB5B EQ PUSH2 0xB0 JUMPI DUP1 PUSH4 0xA85C38EF EQ PUSH2 0xCE JUMPI DUP1 PUSH4 0xAFE13A62 EQ PUSH2 0x100 JUMPI DUP1 PUSH4 0xD09EF241 EQ PUSH2 0x11C JUMPI JUMPDEST PUSH0 DUP1 REVERT JUMPDEST PUSH2 0x7E PUSH1 0x4 DUP1 CALLDATASIZE SUB DUP2 ADD SWAP1 PUSH2 0x79 SWAP2 SWAP1 PUSH2 0xBB6 JUMP JUMPDEST PUSH2 0x14C JUMP JUMPDEST STOP JUMPDEST PUSH2 0x9A PUSH1 0x4 DUP1 CALLDATASIZE SUB DUP2 ADD SWAP1 PUSH2 0x95 SWAP2 SWAP1 PUSH2 0xCD4 JUMP JUMPDEST PUSH2 0x25B JUMP JUMPDEST PUSH1 0x40 MLOAD PUSH2 0xA7 SWAP2 SWAP1 PUSH2 0xD59 JUMP JUMPDEST PUSH1 0x40 MLOAD DUP1 SWAP2 SUB SWAP1 RETURN JUMPDEST PUSH2 0xB8 PUSH2 0x3D0 JUMP JUMPDEST PUSH1 0x40 MLOAD PUSH2 0xC5 SWAP2 SWAP1 PUSH2 0xDB1 JUMP JUMPDEST PUSH1 0x40 MLOAD DUP1 SWAP2 SUB SWAP1 RETURN JUMPDEST PUSH2 0xE8 PUSH1 0x4 DUP1 CALLDATASIZE SUB DUP2 ADD SWAP1 PUSH2 0xE3 SWAP2 SWAP1 PUSH2 0xDCA JUMP JUMPDEST PUSH2 0x3F5 JUMP JUMPDEST PUSH1 0x40 MLOAD PUSH2 0xF7 SWAP4 SWAP3 SWAP2 SWAP1 PUSH2 0xEC8 JUMP JUMPDEST PUSH1 0x40 MLOAD DUP1 SWAP2 SUB SWAP1 RETURN JUMPDEST PUSH2 0x11A PUSH1 0x4 DUP1 CALLDATASIZE SUB DUP2 ADD SWAP1 PUSH2 0x115 SWAP2 SWAP1 PUSH2 0xDCA JUMP JUMPDEST PUSH2 0x4DA JUMP JUMPDEST STOP JUMPDEST PUSH2 0x136 PUSH1 0x4 DUP1 CALLDATASIZE SUB DUP2 ADD SWAP1 PUSH2 0x131 SWAP2 SWAP1 PUSH2 0xDCA JUMP JUMPDEST PUSH2 0x78F JUMP JUMPDEST PUSH1 0x40 MLOAD PUSH2 0x143 SWAP2 SWAP1 PUSH2 0x1088 JUMP JUMPDEST PUSH1 0x40 MLOAD DUP1 SWAP2 SUB SWAP1 RETURN JUMPDEST PUSH0 DUP1 SLOAD SWAP1 POP DUP3 LT PUSH2 0x192 JUMPI PUSH1 0x40 MLOAD PUSH32 0x8C379A000000000000000000000000000000000000000000000000000000000 DUP2 MSTORE PUSH1 0x4 ADD PUSH2 0x189 SWAP1 PUSH2 0x10F2 JUMP JUMPDEST PUSH1 0x40 MLOAD DUP1 SWAP2 SUB SWAP1 REVERT JUMPDEST PUSH0 DUP1 DUP4 DUP2 SLOAD DUP2 LT PUSH2 0x1A6 JUMPI PUSH2 0x1A5 PUSH2 0x1110 JUMP JUMPDEST JUMPDEST SWAP1 PUSH0 MSTORE PUSH1 0x20 PUSH0 KECCAK256 SWAP1 PUSH1 0x4 MUL ADD SWAP1 POP CALLER PUSH20 0xFFFFFFFFFFFFFFFFFFFFFFFFFFFFFFFFFFFFFFFF AND DUP2 PUSH0 ADD PUSH0 SWAP1 SLOAD SWAP1 PUSH2 0x100 EXP SWAP1 DIV PUSH20 0xFFFFFFFFFFFFFFFFFFFFFFFFFFFFFFFFFFFFFFFF AND PUSH20 0xFFFFFFFFFFFFFFFFFFFFFFFFFFFFFFFFFFFFFFFF AND EQ PUSH2 0x244 JUMPI PUSH1 0x40 MLOAD PUSH32 0x8C379A000000000000000000000000000000000000000000000000000000000 DUP2 MSTORE PUSH1 0x4 ADD PUSH2 0x23B SWAP1 PUSH2 0x11AD JUMP JUMPDEST PUSH1 0x40 MLOAD DUP1 SWAP2 SUB SWAP1 REVERT JUMPDEST DUP2 DUP2 PUSH1 0x1 ADD SWAP1 DUP2 PUSH2 0x255 SWAP2 SWAP1 PUSH2 0x13C5 JUMP JUMPDEST POP POP POP POP JUMP JUMPDEST PUSH0 DUP1 DUP3 MLOAD GT PUSH2 0x29F JUMPI PUSH1 0x40 MLOAD PUSH32 0x8C379A000000000000000000000000000000000000000000000000000000000 DUP2 MSTORE PUSH1 0x4 ADD PUSH2 0x296 SWAP1 PUSH2 0x14DE JUMP JUMPDEST PUSH1 0x40 MLOAD DUP1 SWAP2 SUB SWAP1 REVERT JUMPDEST PUSH0 PUSH1 0x40 MLOAD DUP1 PUSH1 0x80 ADD PUSH1 0x40 MSTORE DUP1 CALLER PUSH20 0xFFFFFFFFFFFFFFFFFFFFFFFFFFFFFFFFFFFFFFFF AND DUP2 MSTORE PUSH1 0x20 ADD DUP6 DUP2 MSTORE PUSH1 0x20 ADD DUP5 DUP2 MSTORE PUSH1 0x20 ADD PUSH0 PUSH1 0x3 DUP2 GT ISZERO PUSH2 0x2E6 JUMPI PUSH2 0x2E5 PUSH2 0xE55 JUMP JUMPDEST JUMPDEST DUP2 MSTORE POP SWAP1 DUP1 PUSH1 0x1 DUP2 SLOAD ADD DUP1 DUP3 SSTORE DUP1 SWAP2 POP POP PUSH1 0x1 SWAP1 SUB SWAP1 PUSH0 MSTORE PUSH1 0x20 PUSH0 KECCAK256 SWAP1 PUSH1 0x4 MUL ADD PUSH0 SWAP1 SWAP2 SWAP1 SWAP2 SWAP1 SWAP2 POP PUSH0 DUP3 ADD MLOAD DUP2 PUSH0 ADD PUSH0 PUSH2 0x100 EXP DUP2 SLOAD DUP2 PUSH20 0xFFFFFFFFFFFFFFFFFFFFFFFFFFFFFFFFFFFFFFFF MUL NOT AND SWAP1 DUP4 PUSH20 0xFFFFFFFFFFFFFFFFFFFFFFFFFFFFFFFFFFFFFFFF AND MUL OR SWAP1 SSTORE POP PUSH1 0x20 DUP3 ADD MLOAD DUP2 PUSH1 0x1 ADD SWAP1 DUP2 PUSH2 0x368 SWAP2 SWAP1 PUSH2 0x13C5 JUMP JUMPDEST POP PUSH1 0x40 DUP3 ADD MLOAD DUP2 PUSH1 0x2 ADD SWAP1 DUP1 MLOAD SWAP1 PUSH1 0x20 ADD SWAP1 PUSH2 0x385 SWAP3 SWAP2 SWAP1 PUSH2 0x982 JUMP JUMPDEST POP PUSH1 0x60 DUP3 ADD MLOAD DUP2 PUSH1 0x3 ADD PUSH0 PUSH2 0x100 EXP DUP2 SLOAD DUP2 PUSH1 0xFF MUL NOT AND SWAP1 DUP4 PUSH1 0x3 DUP2 GT ISZERO PUSH2 0x3B0 JUMPI PUSH2 0x3AF PUSH2 0xE55 JUMP JUMPDEST JUMPDEST MUL OR SWAP1 SSTORE POP POP POP PUSH1 0x1 PUSH0 DUP1 SLOAD SWAP1 POP PUSH2 0x3C8 SWAP2 SWAP1 PUSH2 0x1529 JUMP JUMPDEST SWAP1 POP SWAP3 SWAP2 POP POP JUMP JUMPDEST PUSH1 0x1 PUSH0 SWAP1 SLOAD SWAP1 PUSH2 0x100 EXP SWAP1 DIV PUSH20 0xFFFFFFFFFFFFFFFFFFFFFFFFFFFFFFFFFFFFFFFF AND DUP2 JUMP JUMPDEST PUSH0 DUP2 DUP2 SLOAD DUP2 LT PUSH2 0x403 JUMPI PUSH0 DUP1 REVERT JUMPDEST SWAP1 PUSH0 MSTORE PUSH1 0x20 PUSH0 KECCAK256 SWAP1 PUSH1 0x4 MUL ADD PUSH0 SWAP2 POP SWAP1 POP DUP1 PUSH0 ADD PUSH0 SWAP1 SLOAD SWAP1 PUSH2 0x100 EXP SWAP1 DIV PUSH20 0xFFFFFFFFFFFFFFFFFFFFFFFFFFFFFFFFFFFFFFFF AND SWAP1 DUP1 PUSH1 0x1 ADD DUP1 SLOAD PUSH2 0x447 SWAP1 PUSH2 0x11F8 JUMP JUMPDEST DUP1 PUSH1 0x1F ADD PUSH1 0x20 DUP1 SWAP2 DIV MUL PUSH1 0x20 ADD PUSH1 0x40 MLOAD SWAP1 DUP2 ADD PUSH1 0x40 MSTORE DUP1 SWAP3 SWAP2 SWAP1 DUP2 DUP2 MSTORE PUSH1 0x20 ADD DUP3 DUP1 SLOAD PUSH2 0x473 SWAP1 PUSH2 0x11F8 JUMP JUMPDEST DUP1 ISZERO PUSH2 0x4BE JUMPI DUP1 PUSH1 0x1F LT PUSH2 0x495 JUMPI PUSH2 0x100 DUP1 DUP4 SLOAD DIV MUL DUP4 MSTORE SWAP2 PUSH1 0x20 ADD SWAP2 PUSH2 0x4BE JUMP JUMPDEST DUP3 ADD SWAP2 SWAP1 PUSH0 MSTORE PUSH1 0x20 PUSH0 KECCAK256 SWAP1 JUMPDEST DUP2 SLOAD DUP2 MSTORE SWAP1 PUSH1 0x1 ADD SWAP1 PUSH1 0x20 ADD DUP1 DUP4 GT PUSH2 0x4A1 JUMPI DUP3 SWAP1 SUB PUSH1 0x1F AND DUP3 ADD SWAP2 JUMPDEST POP POP POP POP POP SWAP1 DUP1 PUSH1 0x3 ADD PUSH0 SWAP1 SLOAD SWAP1 PUSH2 0x100 EXP SWAP1 DIV PUSH1 0xFF AND SWAP1 POP DUP4 JUMP JUMPDEST CALLER PUSH20 0xFFFFFFFFFFFFFFFFFFFFFFFFFFFFFFFFFFFFFFFF AND PUSH1 0x1 PUSH0 SWAP1 SLOAD SWAP1 PUSH2 0x100 EXP SWAP1 DIV PUSH20 0xFFFFFFFFFFFFFFFFFFFFFFFFFFFFFFFFFFFFFFFF AND PUSH20 0xFFFFFFFFFFFFFFFFFFFFFFFFFFFFFFFFFFFFFFFF AND EQ PUSH2 0x569 JUMPI PUSH1 0x40 MLOAD PUSH32 0x8C379A000000000000000000000000000000000000000000000000000000000 DUP2 MSTORE PUSH1 0x4 ADD PUSH2 0x560 SWAP1 PUSH2 0x15A6 JUMP JUMPDEST PUSH1 0x40 MLOAD DUP1 SWAP2 SUB SWAP1 REVERT JUMPDEST PUSH0 DUP1 SLOAD SWAP1 POP DUP2 LT PUSH2 0x5AF JUMPI PUSH1 0x40 MLOAD PUSH32 0x8C379A000000000000000000000000000000000000000000000000000000000 DUP2 MSTORE PUSH1 0x4 ADD PUSH2 0x5A6 SWAP1 PUSH2 0x10F2 JUMP JUMPDEST PUSH1 0x40 MLOAD DUP1 SWAP2 SUB SWAP1 REVERT JUMPDEST PUSH0 DUP1 DUP3 DUP2 SLOAD DUP2 LT PUSH2 0x5C3 JUMPI PUSH2 0x5C2 PUSH2 0x1110 JUMP JUMPDEST JUMPDEST SWAP1 PUSH0 MSTORE PUSH1 0x20 PUSH0 KECCAK256 SWAP1 PUSH1 0x4 MUL ADD SWAP1 POP PUSH1 0x3 DUP1 DUP2 GT ISZERO PUSH2 0x5E4 JUMPI PUSH2 0x5E3 PUSH2 0xE55 JUMP JUMPDEST JUMPDEST DUP2 PUSH1 0x3 ADD PUSH0 SWAP1 SLOAD SWAP1 PUSH2 0x100 EXP SWAP1 DIV PUSH1 0xFF AND PUSH1 0x3 DUP2 GT ISZERO PUSH2 0x607 JUMPI PUSH2 0x606 PUSH2 0xE55 JUMP JUMPDEST JUMPDEST SUB PUSH2 0x647 JUMPI PUSH1 0x40 MLOAD PUSH32 0x8C379A000000000000000000000000000000000000000000000000000000000 DUP2 MSTORE PUSH1 0x4 ADD PUSH2 0x63E SWAP1 PUSH2 0x160E JUMP JUMPDEST PUSH1 0x40 MLOAD DUP1 SWAP2 SUB SWAP1 REVERT JUMPDEST PUSH0 PUSH1 0x3 DUP2 GT ISZERO PUSH2 0x65A JUMPI PUSH2 0x659 PUSH2 0xE55 JUMP JUMPDEST JUMPDEST DUP2 PUSH1 0x3 ADD PUSH0 SWAP1 SLOAD SWAP1 PUSH2 0x100 EXP SWAP1 DIV PUSH1 0xFF AND PUSH1 0x3 DUP2 GT ISZERO PUSH2 0x67D JUMPI PUSH2 0x67C PUSH2 0xE55 JUMP JUMPDEST JUMPDEST SUB PUSH2 0x6B3 JUMPI PUSH1 0x1 DUP2 PUSH1 0x3 ADD PUSH0 PUSH2 0x100 EXP DUP2 SLOAD DUP2 PUSH1 0xFF MUL NOT AND SWAP1 DUP4 PUSH1 0x3 DUP2 GT ISZERO PUSH2 0x6A9 JUMPI PUSH2 0x6A8 PUSH2 0xE55 JUMP JUMPDEST JUMPDEST MUL OR SWAP1 SSTORE POP PUSH2 0x78B JUMP JUMPDEST PUSH1 0x1 PUSH1 0x3 DUP2 GT ISZERO PUSH2 0x6C7 JUMPI PUSH2 0x6C6 PUSH2 0xE55 JUMP JUMPDEST JUMPDEST DUP2 PUSH1 0x3 ADD PUSH0 SWAP1 SLOAD SWAP1 PUSH2 0x100 EXP SWAP1 DIV PUSH1 0xFF AND PUSH1 0x3 DUP2 GT ISZERO PUSH2 0x6EA JUMPI PUSH2 0x6E9 PUSH2 0xE55 JUMP JUMPDEST JUMPDEST SUB PUSH2 0x720 JUMPI PUSH1 0x2 DUP2 PUSH1 0x3 ADD PUSH0 PUSH2 0x100 EXP DUP2 SLOAD DUP2 PUSH1 0xFF MUL NOT AND SWAP1 DUP4 PUSH1 0x3 DUP2 GT ISZERO PUSH2 0x716 JUMPI PUSH2 0x715 PUSH2 0xE55 JUMP JUMPDEST JUMPDEST MUL OR SWAP1 SSTORE POP PUSH2 0x78A JUMP JUMPDEST PUSH1 0x2 PUSH1 0x3 DUP2 GT ISZERO PUSH2 0x734 JUMPI PUSH2 0x733 PUSH2 0xE55 JUMP JUMPDEST JUMPDEST DUP2 PUSH1 0x3 ADD PUSH0 SWAP1 SLOAD SWAP1 PUSH2 0x100 EXP SWAP1 DIV PUSH1 0xFF AND PUSH1 0x3 DUP2 GT ISZERO PUSH2 0x757 JUMPI PUSH2 0x756 PUSH2 0xE55 JUMP JUMPDEST JUMPDEST SUB PUSH2 0x789 JUMPI PUSH1 0x3 DUP2 PUSH1 0x3 ADD PUSH0 PUSH2 0x100 EXP DUP2 SLOAD DUP2 PUSH1 0xFF MUL NOT AND SWAP1 DUP4 PUSH1 0x3 DUP2 GT ISZERO PUSH2 0x783 JUMPI PUSH2 0x782 PUSH2 0xE55 JUMP JUMPDEST JUMPDEST MUL OR SWAP1 SSTORE POP JUMPDEST JUMPDEST JUMPDEST POP POP JUMP JUMPDEST PUSH2 0x797 PUSH2 0x9CD JUMP JUMPDEST PUSH0 DUP1 SLOAD SWAP1 POP DUP3 LT PUSH2 0x7DD JUMPI PUSH1 0x40 MLOAD PUSH32 0x8C379A000000000000000000000000000000000000000000000000000000000 DUP2 MSTORE PUSH1 0x4 ADD PUSH2 0x7D4 SWAP1 PUSH2 0x10F2 JUMP JUMPDEST PUSH1 0x40 MLOAD DUP1 SWAP2 SUB SWAP1 REVERT JUMPDEST PUSH0 DUP3 DUP2 SLOAD DUP2 LT PUSH2 0x7F0 JUMPI PUSH2 0x7EF PUSH2 0x1110 JUMP JUMPDEST JUMPDEST SWAP1 PUSH0 MSTORE PUSH1 0x20 PUSH0 KECCAK256 SWAP1 PUSH1 0x4 MUL ADD PUSH1 0x40 MLOAD DUP1 PUSH1 0x80 ADD PUSH1 0x40 MSTORE SWAP1 DUP2 PUSH0 DUP3 ADD PUSH0 SWAP1 SLOAD SWAP1 PUSH2 0x100 EXP SWAP1 DIV PUSH20 0xFFFFFFFFFFFFFFFFFFFFFFFFFFFFFFFFFFFFFFFF AND PUSH20 0xFFFFFFFFFFFFFFFFFFFFFFFFFFFFFFFFFFFFFFFF AND PUSH20 0xFFFFFFFFFFFFFFFFFFFFFFFFFFFFFFFFFFFFFFFF AND DUP2 MSTORE PUSH1 0x20 ADD PUSH1 0x1 DUP3 ADD DUP1 SLOAD PUSH2 0x86B SWAP1 PUSH2 0x11F8 JUMP JUMPDEST DUP1 PUSH1 0x1F ADD PUSH1 0x20 DUP1 SWAP2 DIV MUL PUSH1 0x20 ADD PUSH1 0x40 MLOAD SWAP1 DUP2 ADD PUSH1 0x40 MSTORE DUP1 SWAP3 SWAP2 SWAP1 DUP2 DUP2 MSTORE PUSH1 0x20 ADD DUP3 DUP1 SLOAD PUSH2 0x897 SWAP1 PUSH2 0x11F8 JUMP JUMPDEST DUP1 ISZERO PUSH2 0x8E2 JUMPI DUP1 PUSH1 0x1F LT PUSH2 0x8B9 JUMPI PUSH2 0x100 DUP1 DUP4 SLOAD DIV MUL DUP4 MSTORE SWAP2 PUSH1 0x20 ADD SWAP2 PUSH2 0x8E2 JUMP JUMPDEST DUP3 ADD SWAP2 SWAP1 PUSH0 MSTORE PUSH1 0x20 PUSH0 KECCAK256 SWAP1 JUMPDEST DUP2 SLOAD DUP2 MSTORE SWAP1 PUSH1 0x1 ADD SWAP1 PUSH1 0x20 ADD DUP1 DUP4 GT PUSH2 0x8C5 JUMPI DUP3 SWAP1 SUB PUSH1 0x1F AND DUP3 ADD SWAP2 JUMPDEST POP POP POP POP POP DUP2 MSTORE PUSH1 0x20 ADD PUSH1 0x2 DUP3 ADD DUP1 SLOAD DUP1 PUSH1 0x20 MUL PUSH1 0x20 ADD PUSH1 0x40 MLOAD SWAP1 DUP2 ADD PUSH1 0x40 MSTORE DUP1 SWAP3 SWAP2 SWAP1 DUP2 DUP2 MSTORE PUSH1 0x20 ADD DUP3 DUP1 SLOAD DUP1 ISZERO PUSH2 0x938 JUMPI PUSH1 0x20 MUL DUP3 ADD SWAP2 SWAP1 PUSH0 MSTORE PUSH1 0x20 PUSH0 KECCAK256 SWAP1 JUMPDEST DUP2 SLOAD DUP2 MSTORE PUSH1 0x20 ADD SWAP1 PUSH1 0x1 ADD SWAP1 DUP1 DUP4 GT PUSH2 0x924 JUMPI JUMPDEST POP POP POP POP POP DUP2 MSTORE PUSH1 0x20 ADD PUSH1 0x3 DUP3 ADD PUSH0 SWAP1 SLOAD SWAP1 PUSH2 0x100 EXP SWAP1 DIV PUSH1 0xFF AND PUSH1 0x3 DUP2 GT ISZERO PUSH2 0x965 JUMPI PUSH2 0x964 PUSH2 0xE55 JUMP JUMPDEST JUMPDEST PUSH1 0x3 DUP2 GT ISZERO PUSH2 0x977 JUMPI PUSH2 0x976 PUSH2 0xE55 JUMP JUMPDEST JUMPDEST DUP2 MSTORE POP POP SWAP1 POP SWAP2 SWAP1 POP JUMP JUMPDEST DUP3 DUP1 SLOAD DUP3 DUP3 SSTORE SWAP1 PUSH0 MSTORE PUSH1 0x20 PUSH0 KECCAK256 SWAP1 DUP2 ADD SWAP3 DUP3 ISZERO PUSH2 0x9BC JUMPI SWAP2 PUSH1 0x20 MUL DUP3 ADD JUMPDEST DUP3 DUP2 GT ISZERO PUSH2 0x9BB JUMPI DUP3 MLOAD DUP3 SSTORE SWAP2 PUSH1 0x20 ADD SWAP2 SWAP1 PUSH1 0x1 ADD SWAP1 PUSH2 0x9A0 JUMP JUMPDEST JUMPDEST POP SWAP1 POP PUSH2 0x9C9 SWAP2 SWAP1 PUSH2 0xA1B JUMP JUMPDEST POP SWAP1 JUMP JUMPDEST PUSH1 0x40 MLOAD DUP1 PUSH1 0x80 ADD PUSH1 0x40 MSTORE DUP1 PUSH0 PUSH20 0xFFFFFFFFFFFFFFFFFFFFFFFFFFFFFFFFFFFFFFFF AND DUP2 MSTORE PUSH1 0x20 ADD PUSH1 0x60 DUP2 MSTORE PUSH1 0x20 ADD PUSH1 0x60 DUP2 MSTORE PUSH1 0x20 ADD PUSH0 PUSH1 0x3 DUP2 GT ISZERO PUSH2 0xA15 JUMPI PUSH2 0xA14 PUSH2 0xE55 JUMP JUMPDEST JUMPDEST DUP2 MSTORE POP SWAP1 JUMP JUMPDEST JUMPDEST DUP1 DUP3 GT ISZERO PUSH2 0xA32 JUMPI PUSH0 DUP2 PUSH0 SWAP1 SSTORE POP PUSH1 0x1 ADD PUSH2 0xA1C JUMP JUMPDEST POP SWAP1 JUMP JUMPDEST PUSH0 PUSH1 0x40 MLOAD SWAP1 POP SWAP1 JUMP JUMPDEST PUSH0 DUP1 REVERT JUMPDEST PUSH0 DUP1 REVERT JUMPDEST PUSH0 DUP2 SWAP1 POP SWAP2 SWAP1 POP JUMP JUMPDEST PUSH2 0xA59 DUP2 PUSH2 0xA47 JUMP JUMPDEST DUP2 EQ PUSH2 0xA63 JUMPI PUSH0 DUP1 REVERT JUMPDEST POP JUMP JUMPDEST PUSH0 DUP2 CALLDATALOAD SWAP1 POP PUSH2 0xA74 DUP2 PUSH2 0xA50 JUMP JUMPDEST SWAP3 SWAP2 POP POP JUMP JUMPDEST PUSH0 DUP1 REVERT JUMPDEST PUSH0 DUP1 REVERT JUMPDEST PUSH0 PUSH1 0x1F NOT PUSH1 0x1F DUP4 ADD AND SWAP1 POP SWAP2 SWAP1 POP JUMP JUMPDEST PUSH32 0x4E487B7100000000000000000000000000000000000000000000000000000000 PUSH0 MSTORE PUSH1 0x41 PUSH1 0x4 MSTORE PUSH1 0x24 PUSH0 REVERT JUMPDEST PUSH2 0xAC8 DUP3 PUSH2 0xA82 JUMP JUMPDEST DUP2 ADD DUP2 DUP2 LT PUSH8 0xFFFFFFFFFFFFFFFF DUP3 GT OR ISZERO PUSH2 0xAE7 JUMPI PUSH2 0xAE6 PUSH2 0xA92 JUMP JUMPDEST JUMPDEST DUP1 PUSH1 0x40 MSTORE POP POP POP JUMP JUMPDEST PUSH0 PUSH2 0xAF9 PUSH2 0xA36 JUMP JUMPDEST SWAP1 POP PUSH2 0xB05 DUP3 DUP3 PUSH2 0xABF JUMP JUMPDEST SWAP2 SWAP1 POP JUMP JUMPDEST PUSH0 PUSH8 0xFFFFFFFFFFFFFFFF DUP3 GT ISZERO PUSH2 0xB24 JUMPI PUSH2 0xB23 PUSH2 0xA92 JUMP JUMPDEST JUMPDEST PUSH2 0xB2D DUP3 PUSH2 0xA82 JUMP JUMPDEST SWAP1 POP PUSH1 0x20 DUP2 ADD SWAP1 POP SWAP2 SWAP1 POP JUMP JUMPDEST DUP3 DUP2 DUP4 CALLDATACOPY PUSH0 DUP4 DUP4 ADD MSTORE POP POP POP JUMP JUMPDEST PUSH0 PUSH2 0xB5A PUSH2 0xB55 DUP5 PUSH2 0xB0A JUMP JUMPDEST PUSH2 0xAF0 JUMP JUMPDEST SWAP1 POP DUP3 DUP2 MSTORE PUSH1 0x20 DUP2 ADD DUP5 DUP5 DUP5 ADD GT ISZERO PUSH2 0xB76 JUMPI PUSH2 0xB75 PUSH2 0xA7E JUMP JUMPDEST JUMPDEST PUSH2 0xB81 DUP5 DUP3 DUP6 PUSH2 0xB3A JUMP JUMPDEST POP SWAP4 SWAP3 POP POP POP JUMP JUMPDEST PUSH0 DUP3 PUSH1 0x1F DUP4 ADD SLT PUSH2 0xB9D JUMPI PUSH2 0xB9C PUSH2 0xA7A JUMP JUMPDEST JUMPDEST DUP2 CALLDATALOAD PUSH2 0xBAD DUP5 DUP3 PUSH1 0x20 DUP7 ADD PUSH2 0xB48 JUMP JUMPDEST SWAP2 POP POP SWAP3 SWAP2 POP POP JUMP JUMPDEST PUSH0 DUP1 PUSH1 0x40 DUP4 DUP6 SUB SLT ISZERO PUSH2 0xBCC JUMPI PUSH2 0xBCB PUSH2 0xA3F JUMP JUMPDEST JUMPDEST PUSH0 PUSH2 0xBD9 DUP6 DUP3 DUP7 ADD PUSH2 0xA66 JUMP JUMPDEST SWAP3 POP POP PUSH1 0x20 DUP4 ADD CALLDATALOAD PUSH8 0xFFFFFFFFFFFFFFFF DUP2 GT ISZERO PUSH2 0xBFA JUMPI PUSH2 0xBF9 PUSH2 0xA43 JUMP JUMPDEST JUMPDEST PUSH2 0xC06 DUP6 DUP3 DUP7 ADD PUSH2 0xB89 JUMP JUMPDEST SWAP2 POP POP SWAP3 POP SWAP3 SWAP1 POP JUMP JUMPDEST PUSH0 PUSH8 0xFFFFFFFFFFFFFFFF DUP3 GT ISZERO PUSH2 0xC2A JUMPI PUSH2 0xC29 PUSH2 0xA92 JUMP JUMPDEST JUMPDEST PUSH1 0x20 DUP3 MUL SWAP1 POP PUSH1 0x20 DUP2 ADD SWAP1 POP SWAP2 SWAP1 POP JUMP JUMPDEST PUSH0 DUP1 REVERT JUMPDEST PUSH0 PUSH2 0xC51 PUSH2 0xC4C DUP5 PUSH2 0xC10 JUMP JUMPDEST PUSH2 0xAF0 JUMP JUMPDEST SWAP1 POP DUP1 DUP4 DUP3 MSTORE PUSH1 0x20 DUP3 ADD SWAP1 POP PUSH1 0x20 DUP5 MUL DUP4 ADD DUP6 DUP2 GT ISZERO PUSH2 0xC74 JUMPI PUSH2 0xC73 PUSH2 0xC3B JUMP JUMPDEST JUMPDEST DUP4 JUMPDEST DUP2 DUP2 LT ISZERO PUSH2 0xC9D JUMPI DUP1 PUSH2 0xC89 DUP9 DUP3 PUSH2 0xA66 JUMP JUMPDEST DUP5 MSTORE PUSH1 0x20 DUP5 ADD SWAP4 POP POP PUSH1 0x20 DUP2 ADD SWAP1 POP PUSH2 0xC76 JUMP JUMPDEST POP POP POP SWAP4 SWAP3 POP POP POP JUMP JUMPDEST PUSH0 DUP3 PUSH1 0x1F DUP4 ADD SLT PUSH2 0xCBB JUMPI PUSH2 0xCBA PUSH2 0xA7A JUMP JUMPDEST JUMPDEST DUP2 CALLDATALOAD PUSH2 0xCCB DUP5 DUP3 PUSH1 0x20 DUP7 ADD PUSH2 0xC3F JUMP JUMPDEST SWAP2 POP POP SWAP3 SWAP2 POP POP JUMP JUMPDEST PUSH0 DUP1 PUSH1 0x40 DUP4 DUP6 SUB SLT ISZERO PUSH2 0xCEA JUMPI PUSH2 0xCE9 PUSH2 0xA3F JUMP JUMPDEST JUMPDEST PUSH0 DUP4 ADD CALLDATALOAD PUSH8 0xFFFFFFFFFFFFFFFF DUP2 GT ISZERO PUSH2 0xD07 JUMPI PUSH2 0xD06 PUSH2 0xA43 JUMP JUMPDEST JUMPDEST PUSH2 0xD13 DUP6 DUP3 DUP7 ADD PUSH2 0xB89 JUMP JUMPDEST SWAP3 POP POP PUSH1 0x20 DUP4 ADD CALLDATALOAD PUSH8 0xFFFFFFFFFFFFFFFF DUP2 GT ISZERO PUSH2 0xD34 JUMPI PUSH2 0xD33 PUSH2 0xA43 JUMP JUMPDEST JUMPDEST PUSH2 0xD40 DUP6 DUP3 DUP7 ADD PUSH2 0xCA7 JUMP JUMPDEST SWAP2 POP POP SWAP3 POP SWAP3 SWAP1 POP JUMP JUMPDEST PUSH2 0xD53 DUP2 PUSH2 0xA47 JUMP JUMPDEST DUP3 MSTORE POP POP JUMP JUMPDEST PUSH0 PUSH1 0x20 DUP3 ADD SWAP1 POP PUSH2 0xD6C PUSH0 DUP4 ADD DUP5 PUSH2 0xD4A JUMP JUMPDEST SWAP3 SWAP2 POP POP JUMP JUMPDEST PUSH0 PUSH20 0xFFFFFFFFFFFFFFFFFFFFFFFFFFFFFFFFFFFFFFFF DUP3 AND SWAP1 POP SWAP2 SWAP1 POP JUMP JUMPDEST PUSH0 PUSH2 0xD9B DUP3 PUSH2 0xD72 JUMP JUMPDEST SWAP1 POP SWAP2 SWAP1 POP JUMP JUMPDEST PUSH2 0xDAB DUP2 PUSH2 0xD91 JUMP JUMPDEST DUP3 MSTORE POP POP JUMP JUMPDEST PUSH0 PUSH1 0x20 DUP3 ADD SWAP1 POP PUSH2 0xDC4 PUSH0 DUP4 ADD DUP5 PUSH2 0xDA2 JUMP JUMPDEST SWAP3 SWAP2 POP POP JUMP JUMPDEST PUSH0 PUSH1 0x20 DUP3 DUP5 SUB SLT ISZERO PUSH2 0xDDF JUMPI PUSH2 0xDDE PUSH2 0xA3F JUMP JUMPDEST JUMPDEST PUSH0 PUSH2 0xDEC DUP5 DUP3 DUP6 ADD PUSH2 0xA66 JUMP JUMPDEST SWAP2 POP POP SWAP3 SWAP2 POP POP JUMP JUMPDEST PUSH0 DUP2 MLOAD SWAP1 POP SWAP2 SWAP1 POP JUMP JUMPDEST PUSH0 DUP3 DUP3 MSTORE PUSH1 0x20 DUP3 ADD SWAP1 POP SWAP3 SWAP2 POP POP JUMP JUMPDEST DUP3 DUP2 DUP4 MCOPY PUSH0 DUP4 DUP4 ADD MSTORE POP POP POP JUMP JUMPDEST PUSH0 PUSH2 0xE27 DUP3 PUSH2 0xDF5 JUMP JUMPDEST PUSH2 0xE31 DUP2 DUP6 PUSH2 0xDFF JUMP JUMPDEST SWAP4 POP PUSH2 0xE41 DUP2 DUP6 PUSH1 0x20 DUP7 ADD PUSH2 0xE0F JUMP JUMPDEST PUSH2 0xE4A DUP2 PUSH2 0xA82 JUMP JUMPDEST DUP5 ADD SWAP2 POP POP SWAP3 SWAP2 POP POP JUMP JUMPDEST PUSH32 0x4E487B7100000000000000000000000000000000000000000000000000000000 PUSH0 MSTORE PUSH1 0x21 PUSH1 0x4 MSTORE PUSH1 0x24 PUSH0 REVERT JUMPDEST PUSH1 0x4 DUP2 LT PUSH2 0xE93 JUMPI PUSH2 0xE92 PUSH2 0xE55 JUMP JUMPDEST JUMPDEST POP JUMP JUMPDEST PUSH0 DUP2 SWAP1 POP PUSH2 0xEA3 DUP3 PUSH2 0xE82 JUMP JUMPDEST SWAP2 SWAP1 POP JUMP JUMPDEST PUSH0 PUSH2 0xEB2 DUP3 PUSH2 0xE96 JUMP JUMPDEST SWAP1 POP SWAP2 SWAP1 POP JUMP JUMPDEST PUSH2 0xEC2 DUP2 PUSH2 0xEA8 JUMP JUMPDEST DUP3 MSTORE POP POP JUMP JUMPDEST PUSH0 PUSH1 0x60 DUP3 ADD SWAP1 POP PUSH2 0xEDB PUSH0 DUP4 ADD DUP7 PUSH2 0xDA2 JUMP JUMPDEST DUP2 DUP2 SUB PUSH1 0x20 DUP4 ADD MSTORE PUSH2 0xEED DUP2 DUP6 PUSH2 0xE1D JUMP JUMPDEST SWAP1 POP PUSH2 0xEFC PUSH1 0x40 DUP4 ADD DUP5 PUSH2 0xEB9 JUMP JUMPDEST SWAP5 SWAP4 POP POP POP POP JUMP JUMPDEST PUSH2 0xF0D DUP2 PUSH2 0xD91 JUMP JUMPDEST DUP3 MSTORE POP POP JUMP JUMPDEST PUSH0 DUP3 DUP3 MSTORE PUSH1 0x20 DUP3 ADD SWAP1 POP SWAP3 SWAP2 POP POP JUMP JUMPDEST PUSH0 PUSH2 0xF2D DUP3 PUSH2 0xDF5 JUMP JUMPDEST PUSH2 0xF37 DUP2 DUP6 PUSH2 0xF13 JUMP JUMPDEST SWAP4 POP PUSH2 0xF47 DUP2 DUP6 PUSH1 0x20 DUP7 ADD PUSH2 0xE0F JUMP JUMPDEST PUSH2 0xF50 DUP2 PUSH2 0xA82 JUMP JUMPDEST DUP5 ADD SWAP2 POP POP SWAP3 SWAP2 POP POP JUMP JUMPDEST PUSH0 DUP2 MLOAD SWAP1 POP SWAP2 SWAP1 POP JUMP JUMPDEST PUSH0 DUP3 DUP3 MSTORE PUSH1 0x20 DUP3 ADD SWAP1 POP SWAP3 SWAP2 POP POP JUMP JUMPDEST PUSH0 DUP2 SWAP1 POP PUSH1 0x20 DUP3 ADD SWAP1 POP SWAP2 SWAP1 POP JUMP JUMPDEST PUSH2 0xF8D DUP2 PUSH2 0xA47 JUMP JUMPDEST DUP3 MSTORE POP POP JUMP JUMPDEST PUSH0 PUSH2 0xF9E DUP4 DUP4 PUSH2 0xF84 JUMP JUMPDEST PUSH1 0x20 DUP4 ADD SWAP1 POP SWAP3 SWAP2 POP POP JUMP JUMPDEST PUSH0 PUSH1 0x20 DUP3 ADD SWAP1 POP SWAP2 SWAP1 POP JUMP JUMPDEST PUSH0 PUSH2 0xFC0 DUP3 PUSH2 0xF5B JUMP JUMPDEST PUSH2 0xFCA DUP2 DUP6 PUSH2 0xF65 JUMP JUMPDEST SWAP4 POP PUSH2 0xFD5 DUP4 PUSH2 0xF75 JUMP JUMPDEST DUP1 PUSH0 JUMPDEST DUP4 DUP2 LT ISZERO PUSH2 0x1005 JUMPI DUP2 MLOAD PUSH2 0xFEC DUP9 DUP3 PUSH2 0xF93 JUMP JUMPDEST SWAP8 POP PUSH2 0xFF7 DUP4 PUSH2 0xFAA JUMP JUMPDEST SWAP3 POP POP PUSH1 0x1 DUP2 ADD SWAP1 POP PUSH2 0xFD8 JUMP JUMPDEST POP DUP6 SWAP4 POP POP POP POP SWAP3 SWAP2 POP POP JUMP JUMPDEST PUSH2 0x101B DUP2 PUSH2 0xEA8 JUMP JUMPDEST DUP3 MSTORE POP POP JUMP JUMPDEST PUSH0 PUSH1 0x80 DUP4 ADD PUSH0 DUP4 ADD MLOAD PUSH2 0x1036 PUSH0 DUP7 ADD DUP3 PUSH2 0xF04 JUMP JUMPDEST POP PUSH1 0x20 DUP4 ADD MLOAD DUP5 DUP3 SUB PUSH1 0x20 DUP7 ADD MSTORE PUSH2 0x104E DUP3 DUP3 PUSH2 0xF23 JUMP JUMPDEST SWAP2 POP POP PUSH1 0x40 DUP4 ADD MLOAD DUP5 DUP3 SUB PUSH1 0x40 DUP7 ADD MSTORE PUSH2 0x1068 DUP3 DUP3 PUSH2 0xFB6 JUMP JUMPDEST SWAP2 POP POP PUSH1 0x60 DUP4 ADD MLOAD PUSH2 0x107D PUSH1 0x60 DUP7 ADD DUP3 PUSH2 0x1012 JUMP JUMPDEST POP DUP1 SWAP2 POP POP SWAP3 SWAP2 POP POP JUMP JUMPDEST PUSH0 PUSH1 0x20 DUP3 ADD SWAP1 POP DUP2 DUP2 SUB PUSH0 DUP4 ADD MSTORE PUSH2 0x10A0 DUP2 DUP5 PUSH2 0x1021 JUMP JUMPDEST SWAP1 POP SWAP3 SWAP2 POP POP JUMP JUMPDEST PUSH32 0x4E6F7420612076616C6964206F726465722069642E0000000000000000000000 PUSH0 DUP3 ADD MSTORE POP JUMP JUMPDEST PUSH0 PUSH2 0x10DC PUSH1 0x15 DUP4 PUSH2 0xDFF JUMP JUMPDEST SWAP2 POP PUSH2 0x10E7 DUP3 PUSH2 0x10A8 JUMP JUMPDEST PUSH1 0x20 DUP3 ADD SWAP1 POP SWAP2 SWAP1 POP JUMP JUMPDEST PUSH0 PUSH1 0x20 DUP3 ADD SWAP1 POP DUP2 DUP2 SUB PUSH0 DUP4 ADD MSTORE PUSH2 0x1109 DUP2 PUSH2 0x10D0 JUMP JUMPDEST SWAP1 POP SWAP2 SWAP1 POP JUMP JUMPDEST PUSH32 0x4E487B7100000000000000000000000000000000000000000000000000000000 PUSH0 MSTORE PUSH1 0x32 PUSH1 0x4 MSTORE PUSH1 0x24 PUSH0 REVERT JUMPDEST PUSH32 0x596F7520617265206E6F7420746865206F776E6572206F6620746865206F7264 PUSH0 DUP3 ADD MSTORE PUSH32 0x65722E0000000000000000000000000000000000000000000000000000000000 PUSH1 0x20 DUP3 ADD MSTORE POP JUMP JUMPDEST PUSH0 PUSH2 0x1197 PUSH1 0x23 DUP4 PUSH2 0xDFF JUMP JUMPDEST SWAP2 POP PUSH2 0x11A2 DUP3 PUSH2 0x113D JUMP JUMPDEST PUSH1 0x40 DUP3 ADD SWAP1 POP SWAP2 SWAP1 POP JUMP JUMPDEST PUSH0 PUSH1 0x20 DUP3 ADD SWAP1 POP DUP2 DUP2 SUB PUSH0 DUP4 ADD MSTORE PUSH2 0x11C4 DUP2 PUSH2 0x118B JUMP JUMPDEST SWAP1 POP SWAP2 SWAP1 POP JUMP JUMPDEST PUSH32 0x4E487B7100000000000000000000000000000000000000000000000000000000 PUSH0 MSTORE PUSH1 0x22 PUSH1 0x4 MSTORE PUSH1 0x24 PUSH0 REVERT JUMPDEST PUSH0 PUSH1 0x2 DUP3 DIV SWAP1 POP PUSH1 0x1 DUP3 AND DUP1 PUSH2 0x120F JUMPI PUSH1 0x7F DUP3 AND SWAP2 POP JUMPDEST PUSH1 0x20 DUP3 LT DUP2 SUB PUSH2 0x1222 JUMPI PUSH2 0x1221 PUSH2 0x11CB JUMP JUMPDEST JUMPDEST POP SWAP2 SWAP1 POP JUMP JUMPDEST PUSH0 DUP2 SWAP1 POP DUP2 PUSH0 MSTORE PUSH1 0x20 PUSH0 KECCAK256 SWAP1 POP SWAP2 SWAP1 POP JUMP JUMPDEST PUSH0 PUSH1 0x20 PUSH1 0x1F DUP4 ADD DIV SWAP1 POP SWAP2 SWAP1 POP JUMP JUMPDEST PUSH0 DUP3 DUP3 SHL SWAP1 POP SWAP3 SWAP2 POP POP JUMP JUMPDEST PUSH0 PUSH1 0x8 DUP4 MUL PUSH2 0x1284 PUSH32 0xFFFFFFFFFFFFFFFFFFFFFFFFFFFFFFFFFFFFFFFFFFFFFFFFFFFFFFFFFFFFFFFF DUP3 PUSH2 0x1249 JUMP JUMPDEST PUSH2 0x128E DUP7 DUP4 PUSH2 0x1249 JUMP JUMPDEST SWAP6 POP DUP1 NOT DUP5 AND SWAP4 POP DUP1 DUP7 AND DUP5 OR SWAP3 POP POP POP SWAP4 SWAP3 POP POP POP JUMP JUMPDEST PUSH0 DUP2 SWAP1 POP SWAP2 SWAP1 POP JUMP JUMPDEST PUSH0 PUSH2 0x12C9 PUSH2 0x12C4 PUSH2 0x12BF DUP5 PUSH2 0xA47 JUMP JUMPDEST PUSH2 0x12A6 JUMP JUMPDEST PUSH2 0xA47 JUMP JUMPDEST SWAP1 POP SWAP2 SWAP1 POP JUMP JUMPDEST PUSH0 DUP2 SWAP1 POP SWAP2 SWAP1 POP JUMP JUMPDEST PUSH2 0x12E2 DUP4 PUSH2 0x12AF JUMP JUMPDEST PUSH2 0x12F6 PUSH2 0x12EE DUP3 PUSH2 0x12D0 JUMP JUMPDEST DUP5 DUP5 SLOAD PUSH2 0x1255 JUMP JUMPDEST DUP3 SSTORE POP POP POP POP JUMP JUMPDEST PUSH0 SWAP1 JUMP JUMPDEST PUSH2 0x130A PUSH2 0x12FE JUMP JUMPDEST PUSH2 0x1315 DUP2 DUP5 DUP5 PUSH2 0x12D9 JUMP JUMPDEST POP POP POP JUMP JUMPDEST JUMPDEST DUP2 DUP2 LT ISZERO PUSH2 0x1338 JUMPI PUSH2 0x132D PUSH0 DUP3 PUSH2 0x1302 JUMP JUMPDEST PUSH1 0x1 DUP2 ADD SWAP1 POP PUSH2 0x131B JUMP JUMPDEST POP POP JUMP JUMPDEST PUSH1 0x1F DUP3 GT ISZERO PUSH2 0x137D JUMPI PUSH2 0x134E DUP2 PUSH2 0x1228 JUMP JUMPDEST PUSH2 0x1357 DUP5 PUSH2 0x123A JUMP JUMPDEST DUP2 ADD PUSH1 0x20 DUP6 LT ISZERO PUSH2 0x1366 JUMPI DUP2 SWAP1 POP JUMPDEST PUSH2 0x137A PUSH2 0x1372 DUP6 PUSH2 0x123A JUMP JUMPDEST DUP4 ADD DUP3 PUSH2 0x131A JUMP JUMPDEST POP POP JUMPDEST POP POP POP JUMP JUMPDEST PUSH0 DUP3 DUP3 SHR SWAP1 POP SWAP3 SWAP2 POP POP JUMP JUMPDEST PUSH0 PUSH2 0x139D PUSH0 NOT DUP5 PUSH1 0x8 MUL PUSH2 0x1382 JUMP JUMPDEST NOT DUP1 DUP4 AND SWAP2 POP POP SWAP3 SWAP2 POP POP JUMP JUMPDEST PUSH0 PUSH2 0x13B5 DUP4 DUP4 PUSH2 0x138E JUMP JUMPDEST SWAP2 POP DUP3 PUSH1 0x2 MUL DUP3 OR SWAP1 POP SWAP3 SWAP2 POP POP JUMP JUMPDEST PUSH2 0x13CE DUP3 PUSH2 0xDF5 JUMP JUMPDEST PUSH8 0xFFFFFFFFFFFFFFFF DUP2 GT ISZERO PUSH2 0x13E7 JUMPI PUSH2 0x13E6 PUSH2 0xA92 JUMP JUMPDEST JUMPDEST PUSH2 0x13F1 DUP3 SLOAD PUSH2 0x11F8 JUMP JUMPDEST PUSH2 0x13FC DUP3 DUP3 DUP6 PUSH2 0x133C JUMP JUMPDEST PUSH0 PUSH1 0x20 SWAP1 POP PUSH1 0x1F DUP4 GT PUSH1 0x1 DUP2 EQ PUSH2 0x142D JUMPI PUSH0 DUP5 ISZERO PUSH2 0x141B JUMPI DUP3 DUP8 ADD MLOAD SWAP1 POP JUMPDEST PUSH2 0x1425 DUP6 DUP3 PUSH2 0x13AA JUMP JUMPDEST DUP7 SSTORE POP PUSH2 0x148C JUMP JUMPDEST PUSH1 0x1F NOT DUP5 AND PUSH2 0x143B DUP7 PUSH2 0x1228 JUMP JUMPDEST PUSH0 JUMPDEST DUP3 DUP2 LT ISZERO PUSH2 0x1462 JUMPI DUP5 DUP10 ADD MLOAD DUP3 SSTORE PUSH1 0x1 DUP3 ADD SWAP2 POP PUSH1 0x20 DUP6 ADD SWAP5 POP PUSH1 0x20 DUP2 ADD SWAP1 POP PUSH2 0x143D JUMP JUMPDEST DUP7 DUP4 LT ISZERO PUSH2 0x147F JUMPI DUP5 DUP10 ADD MLOAD PUSH2 0x147B PUSH1 0x1F DUP10 AND DUP3 PUSH2 0x138E JUMP JUMPDEST DUP4 SSTORE POP JUMPDEST PUSH1 0x1 PUSH1 0x2 DUP9 MUL ADD DUP9 SSTORE POP POP POP JUMPDEST POP POP POP POP POP POP JUMP JUMPDEST PUSH32 0x4E6F2070726F64756374732E0000000000000000000000000000000000000000 PUSH0 DUP3 ADD MSTORE POP JUMP JUMPDEST PUSH0 PUSH2 0x14C8 PUSH1 0xC DUP4 PUSH2 0xDFF JUMP JUMPDEST SWAP2 POP PUSH2 0x14D3 DUP3 PUSH2 0x1494 JUMP JUMPDEST PUSH1 0x20 DUP3 ADD SWAP1 POP SWAP2 SWAP1 POP JUMP JUMPDEST PUSH0 PUSH1 0x20 DUP3 ADD SWAP1 POP DUP2 DUP2 SUB PUSH0 DUP4 ADD MSTORE PUSH2 0x14F5 DUP2 PUSH2 0x14BC JUMP JUMPDEST SWAP1 POP SWAP2 SWAP1 POP JUMP JUMPDEST PUSH32 0x4E487B7100000000000000000000000000000000000000000000000000000000 PUSH0 MSTORE PUSH1 0x11 PUSH1 0x4 MSTORE PUSH1 0x24 PUSH0 REVERT JUMPDEST PUSH0 PUSH2 0x1533 DUP3 PUSH2 0xA47 JUMP JUMPDEST SWAP2 POP PUSH2 0x153E DUP4 PUSH2 0xA47 JUMP JUMPDEST SWAP3 POP DUP3 DUP3 SUB SWAP1 POP DUP2 DUP2 GT ISZERO PUSH2 0x1556 JUMPI PUSH2 0x1555 PUSH2 0x14FC JUMP JUMPDEST JUMPDEST SWAP3 SWAP2 POP POP JUMP JUMPDEST PUSH32 0x596F7520617265206E6F7420617574686F72697A65642E000000000000000000 PUSH0 DUP3 ADD MSTORE POP JUMP JUMPDEST PUSH0 PUSH2 0x1590 PUSH1 0x17 DUP4 PUSH2 0xDFF JUMP JUMPDEST SWAP2 POP PUSH2 0x159B DUP3 PUSH2 0x155C JUMP JUMPDEST PUSH1 0x20 DUP3 ADD SWAP1 POP SWAP2 SWAP1 POP JUMP JUMPDEST PUSH0 PUSH1 0x20 DUP3 ADD SWAP1 POP DUP2 DUP2 SUB PUSH0 DUP4 ADD MSTORE PUSH2 0x15BD DUP2 PUSH2 0x1584 JUMP JUMPDEST SWAP1 POP SWAP2 SWAP1 POP JUMP JUMPDEST PUSH32 0x4F7264657220697320616C726561647920736869707065642E00000000000000 PUSH0 DUP3 ADD MSTORE POP JUMP JUMPDEST PUSH0 PUSH2 0x15F8 PUSH1 0x19 DUP4 PUSH2 0xDFF JUMP JUMPDEST SWAP2 POP PUSH2 0x1603 DUP3 PUSH2 0x15C4 JUMP JUMPDEST PUSH1 0x20 DUP3 ADD SWAP1 POP SWAP2 SWAP1 POP JUMP JUMPDEST PUSH0 PUSH1 0x20 DUP3 ADD SWAP1 POP DUP2 DUP2 SUB PUSH0 DUP4 ADD MSTORE PUSH2 0x1625 DUP2 PUSH2 0x15EC JUMP JUMPDEST SWAP1 POP SWAP2 SWAP1 POP JUMP INVALID LOG2 PUSH5 0x6970667358 0x22 SLT KECCAK256 COINBASE 0xB9 RETURNDATASIZE 0xE 0xAA 0x4F SWAP14 PUSH26 0x509C9CF73E26A22F81E17B896B5437F759371BB937D060636473 PUSH16 0x6C634300081A00330000000000000000 "
				},
				"gasEstimates": {
					"creation": {
						"codeDepositCost": "1146000",
						"executionCost": "25457",
						"totalCost": "1171457"
					},
					"external": {
						"advanceOrder(uint256)": "40124",
						"createOrder(string,uint256[])": "infinite",
						"getOrder(uint256)": "infinite",
						"orders(uint256)": "infinite",
						"owner()": "2530",
						"updateZip(uint256,string)": "infinite"
					}
				},
				"methodIdentifiers": {
					"advanceOrder(uint256)": "afe13a62",
					"createOrder(string,uint256[])": "6d9a65d8",
					"getOrder(uint256)": "d09ef241",
					"orders(uint256)": "a85c38ef",
					"owner()": "8da5cb5b",
					"updateZip(uint256,string)": "577dc0a0"
				}
			},
			"storageLayout": {
				"storage": [
					{
						"astId": 21,
						"contract": "StructEnum.sol:StrucEnum",
						"label": "orders",
						"offset": 0,
						"slot": "0",
						"type": "t_array(t_struct(Order)17_storage)dyn_storage"
					},
					{
						"astId": 23,
						"contract": "StructEnum.sol:StrucEnum",
						"label": "owner",
						"offset": 0,
						"slot": "1",
						"type": "t_address"
					}
				],
				"types": {
					"t_address": {
						"encoding": "inplace",
						"label": "address",
						"numberOfBytes": "20"
					},
					"t_array(t_struct(Order)17_storage)dyn_storage": {
						"base": "t_struct(Order)17_storage",
						"encoding": "dynamic_array",
						"label": "struct StrucEnum.Order[]",
						"numberOfBytes": "32"
					},
					"t_array(t_uint256)dyn_storage": {
						"base": "t_uint256",
						"encoding": "dynamic_array",
						"label": "uint256[]",
						"numberOfBytes": "32"
					},
					"t_enum(Status)6": {
						"encoding": "inplace",
						"label": "enum StrucEnum.Status",
						"numberOfBytes": "1"
					},
					"t_string_storage": {
						"encoding": "bytes",
						"label": "string",
						"numberOfBytes": "32"
					},
					"t_struct(Order)17_storage": {
						"encoding": "inplace",
						"label": "struct StrucEnum.Order",
						"members": [
							{
								"astId": 8,
								"contract": "StructEnum.sol:StrucEnum",
								"label": "customer",
								"offset": 0,
								"slot": "0",
								"type": "t_address"
							},
							{
								"astId": 10,
								"contract": "StructEnum.sol:StrucEnum",
								"label": "zipCode",
								"offset": 0,
								"slot": "1",
								"type": "t_string_storage"
							},
							{
								"astId": 13,
								"contract": "StructEnum.sol:StrucEnum",
								"label": "products",
								"offset": 0,
								"slot": "2",
								"type": "t_array(t_uint256)dyn_storage"
							},
							{
								"astId": 16,
								"contract": "StructEnum.sol:StrucEnum",
								"label": "status",
								"offset": 0,
								"slot": "3",
								"type": "t_enum(Status)6"
							}
						],
						"numberOfBytes": "128"
					},
					"t_uint256": {
						"encoding": "inplace",
						"label": "uint256",
						"numberOfBytes": "32"
					}
				}
			},
			"userdoc": {
				"kind": "user",
				"methods": {},
				"version": 1
			}
		}
	}
}